{
  "_format": "hh-sol-artifact-1",
  "contractName": "MedicalRecord",
  "sourceName": "contracts/MedicalRecord.sol",
  "abi": [
    {
      "inputs": [],
      "stateMutability": "nonpayable",
      "type": "constructor"
    },
    {
      "anonymous": false,
      "inputs": [
        {
          "indexed": false,
          "internalType": "uint256",
          "name": "recordId",
          "type": "uint256"
        },
        {
          "indexed": false,
          "internalType": "address",
          "name": "requester",
          "type": "address"
        }
      ],
      "name": "AccessGranted",
      "type": "event"
    },
    {
      "anonymous": false,
      "inputs": [
        {
          "indexed": false,
          "internalType": "uint256",
          "name": "recordId",
          "type": "uint256"
        },
        {
          "indexed": false,
          "internalType": "address",
          "name": "requester",
          "type": "address"
        }
      ],
      "name": "AccessRevoked",
      "type": "event"
    },
    {
      "anonymous": false,
      "inputs": [
        {
          "indexed": true,
          "internalType": "address",
          "name": "owner",
          "type": "address"
        },
        {
          "indexed": true,
          "internalType": "address",
          "name": "approved",
          "type": "address"
        },
        {
          "indexed": true,
          "internalType": "uint256",
          "name": "tokenId",
          "type": "uint256"
        }
      ],
      "name": "Approval",
      "type": "event"
    },
    {
      "anonymous": false,
      "inputs": [
        {
          "indexed": true,
          "internalType": "address",
          "name": "owner",
          "type": "address"
        },
        {
          "indexed": true,
          "internalType": "address",
          "name": "operator",
          "type": "address"
        },
        {
          "indexed": false,
          "internalType": "bool",
          "name": "approved",
          "type": "bool"
        }
      ],
      "name": "ApprovalForAll",
      "type": "event"
    },
    {
      "anonymous": false,
      "inputs": [
        {
          "indexed": false,
          "internalType": "uint256",
          "name": "recordId",
          "type": "uint256"
        },
        {
          "indexed": false,
          "internalType": "address",
          "name": "emergencyContact",
          "type": "address"
        },
        {
          "indexed": false,
          "internalType": "uint256",
          "name": "expiryTime",
          "type": "uint256"
        }
      ],
      "name": "EmergencyAccessGranted",
      "type": "event"
    },
    {
      "anonymous": false,
      "inputs": [
        {
          "indexed": false,
          "internalType": "uint256",
          "name": "recordId",
          "type": "uint256"
        },
        {
          "indexed": false,
          "internalType": "address",
          "name": "emergencyContact",
          "type": "address"
        }
      ],
      "name": "EmergencyAccessRevoked",
      "type": "event"
    },
    {
      "anonymous": false,
      "inputs": [
        {
          "indexed": true,
          "internalType": "address",
          "name": "previousOwner",
          "type": "address"
        },
        {
          "indexed": true,
          "internalType": "address",
          "name": "newOwner",
          "type": "address"
        }
      ],
      "name": "OwnershipTransferred",
      "type": "event"
    },
    {
      "anonymous": false,
      "inputs": [
        {
          "indexed": false,
          "internalType": "uint256",
          "name": "recordId",
          "type": "uint256"
        },
        {
          "indexed": false,
          "internalType": "address",
          "name": "owner",
          "type": "address"
        },
        {
          "indexed": false,
          "internalType": "enum MedicalRecord.Category",
          "name": "category",
          "type": "uint8"
        }
      ],
      "name": "RecordCreated",
      "type": "event"
    },
    {
      "anonymous": false,
      "inputs": [
        {
          "indexed": false,
          "internalType": "uint256",
          "name": "recordId",
          "type": "uint256"
        },
        {
          "indexed": false,
          "internalType": "string[]",
          "name": "tags",
          "type": "string[]"
        }
      ],
      "name": "TagsUpdated",
      "type": "event"
    },
    {
      "anonymous": false,
      "inputs": [
        {
          "indexed": true,
          "internalType": "address",
          "name": "from",
          "type": "address"
        },
        {
          "indexed": true,
          "internalType": "address",
          "name": "to",
          "type": "address"
        },
        {
          "indexed": true,
          "internalType": "uint256",
          "name": "tokenId",
          "type": "uint256"
        }
      ],
      "name": "Transfer",
      "type": "event"
    },
    {
      "inputs": [
        {
          "internalType": "address",
          "name": "to",
          "type": "address"
        },
        {
          "internalType": "uint256",
          "name": "tokenId",
          "type": "uint256"
        }
      ],
      "name": "approve",
      "outputs": [],
      "stateMutability": "nonpayable",
      "type": "function"
    },
    {
      "inputs": [
        {
          "internalType": "address",
          "name": "owner",
          "type": "address"
        }
      ],
      "name": "balanceOf",
      "outputs": [
        {
          "internalType": "uint256",
          "name": "",
          "type": "uint256"
        }
      ],
      "stateMutability": "view",
      "type": "function"
    },
    {
      "inputs": [
        {
          "internalType": "string",
          "name": "ipfsHash",
          "type": "string"
        },
        {
          "internalType": "bool",
          "name": "isEncrypted",
          "type": "bool"
        },
        {
          "internalType": "enum MedicalRecord.Category",
          "name": "category",
          "type": "uint8"
        },
        {
          "internalType": "string[]",
          "name": "tags",
          "type": "string[]"
        }
      ],
      "name": "createRecord",
      "outputs": [],
      "stateMutability": "nonpayable",
      "type": "function"
    },
    {
      "inputs": [
        {
          "internalType": "uint256",
          "name": "",
          "type": "uint256"
        },
        {
          "internalType": "address",
          "name": "",
          "type": "address"
        }
      ],
      "name": "emergencyAccess",
      "outputs": [
        {
          "internalType": "address",
          "name": "emergencyContact",
          "type": "address"
        },
        {
          "internalType": "uint256",
          "name": "expiryTime",
          "type": "uint256"
        },
        {
          "internalType": "bool",
          "name": "isActive",
          "type": "bool"
        }
      ],
      "stateMutability": "view",
      "type": "function"
    },
    {
      "inputs": [
        {
          "internalType": "uint256",
          "name": "tokenId",
          "type": "uint256"
        }
      ],
      "name": "getApproved",
      "outputs": [
        {
          "internalType": "address",
          "name": "",
          "type": "address"
        }
      ],
      "stateMutability": "view",
      "type": "function"
    },
    {
      "inputs": [
        {
          "internalType": "uint256",
          "name": "_recordId",
          "type": "uint256"
        },
        {
          "internalType": "address",
          "name": "_emergencyContact",
          "type": "address"
        }
      ],
      "name": "getEmergencyAccessDetails",
      "outputs": [
        {
          "internalType": "address",
          "name": "contact",
          "type": "address"
        },
        {
          "internalType": "uint256",
          "name": "expiryTime",
          "type": "uint256"
        },
        {
          "internalType": "bool",
          "name": "isActive",
          "type": "bool"
        }
      ],
      "stateMutability": "view",
      "type": "function"
    },
    {
      "inputs": [
        {
          "internalType": "address",
          "name": "patient",
          "type": "address"
        }
      ],
      "name": "getPatientRecordIds",
      "outputs": [
        {
          "internalType": "uint256[]",
          "name": "",
          "type": "uint256[]"
        }
      ],
      "stateMutability": "view",
      "type": "function"
    },
    {
      "inputs": [
        {
          "internalType": "uint256",
          "name": "recordId",
          "type": "uint256"
        }
      ],
      "name": "getRecordDetails",
      "outputs": [
        {
          "internalType": "string",
          "name": "ipfsHash",
          "type": "string"
        },
        {
          "internalType": "address",
          "name": "owner",
          "type": "address"
        },
        {
          "internalType": "uint256",
          "name": "timestamp",
          "type": "uint256"
        },
        {
          "internalType": "bool",
          "name": "isEncrypted",
          "type": "bool"
        },
        {
          "internalType": "enum MedicalRecord.Category",
          "name": "category",
          "type": "uint8"
        },
        {
          "internalType": "string[]",
          "name": "tags",
          "type": "string[]"
        }
      ],
      "stateMutability": "view",
      "type": "function"
    },
    {
      "inputs": [
        {
          "internalType": "enum MedicalRecord.Category",
          "name": "category",
          "type": "uint8"
        }
      ],
      "name": "getRecordsByCategory",
      "outputs": [
        {
          "internalType": "uint256[]",
          "name": "",
          "type": "uint256[]"
        }
      ],
      "stateMutability": "view",
      "type": "function"
    },
    {
      "inputs": [
        {
          "internalType": "uint256",
          "name": "_recordId",
          "type": "uint256"
        }
      ],
      "name": "getSharedAddresses",
      "outputs": [
        {
          "internalType": "address[]",
          "name": "",
          "type": "address[]"
        }
      ],
      "stateMutability": "view",
      "type": "function"
    },
    {
      "inputs": [
        {
          "internalType": "address",
          "name": "_address",
          "type": "address"
        }
      ],
      "name": "getSharedWithMeRecords",
      "outputs": [
        {
          "internalType": "uint256[]",
          "name": "",
          "type": "uint256[]"
        }
      ],
      "stateMutability": "view",
      "type": "function"
    },
    {
      "inputs": [
        {
          "internalType": "uint256",
          "name": "_recordId",
          "type": "uint256"
        },
        {
          "internalType": "address",
          "name": "_to",
          "type": "address"
        }
      ],
      "name": "grantAccess",
      "outputs": [],
      "stateMutability": "nonpayable",
      "type": "function"
    },
    {
      "inputs": [
        {
          "internalType": "uint256",
          "name": "_recordId",
          "type": "uint256"
        },
        {
          "internalType": "address",
          "name": "_emergencyContact",
          "type": "address"
        },
        {
          "internalType": "uint256",
          "name": "_durationInHours",
          "type": "uint256"
        }
      ],
      "name": "grantEmergencyAccess",
      "outputs": [],
      "stateMutability": "nonpayable",
      "type": "function"
    },
    {
      "inputs": [
        {
          "internalType": "uint256",
          "name": "recordId",
          "type": "uint256"
        },
        {
          "internalType": "address",
          "name": "requester",
          "type": "address"
        }
      ],
      "name": "hasAccess",
      "outputs": [
        {
          "internalType": "bool",
          "name": "",
          "type": "bool"
        }
      ],
      "stateMutability": "view",
      "type": "function"
    },
    {
      "inputs": [
        {
          "internalType": "uint256",
          "name": "_recordId",
          "type": "uint256"
        },
        {
          "internalType": "address",
          "name": "_requester",
          "type": "address"
        }
      ],
      "name": "hasEmergencyAccess",
      "outputs": [
        {
          "internalType": "bool",
          "name": "",
          "type": "bool"
        }
      ],
      "stateMutability": "view",
      "type": "function"
    },
    {
      "inputs": [
        {
          "internalType": "address",
          "name": "owner",
          "type": "address"
        },
        {
          "internalType": "address",
          "name": "operator",
          "type": "address"
        }
      ],
      "name": "isApprovedForAll",
      "outputs": [
        {
          "internalType": "bool",
          "name": "",
          "type": "bool"
        }
      ],
      "stateMutability": "view",
      "type": "function"
    },
    {
      "inputs": [],
      "name": "name",
      "outputs": [
        {
          "internalType": "string",
          "name": "",
          "type": "string"
        }
      ],
      "stateMutability": "view",
      "type": "function"
    },
    {
      "inputs": [],
      "name": "owner",
      "outputs": [
        {
          "internalType": "address",
          "name": "",
          "type": "address"
        }
      ],
      "stateMutability": "view",
      "type": "function"
    },
    {
      "inputs": [
        {
          "internalType": "uint256",
          "name": "tokenId",
          "type": "uint256"
        }
      ],
      "name": "ownerOf",
      "outputs": [
        {
          "internalType": "address",
          "name": "",
          "type": "address"
        }
      ],
      "stateMutability": "view",
      "type": "function"
    },
    {
      "inputs": [
        {
          "internalType": "address",
          "name": "",
          "type": "address"
        },
        {
          "internalType": "uint256",
          "name": "",
          "type": "uint256"
        }
      ],
      "name": "patientRecords",
      "outputs": [
        {
          "internalType": "uint256",
          "name": "",
          "type": "uint256"
        }
      ],
      "stateMutability": "view",
      "type": "function"
    },
    {
      "inputs": [
        {
          "internalType": "uint256",
          "name": "recordId",
          "type": "uint256"
        }
      ],
      "name": "recordExists",
      "outputs": [
        {
          "internalType": "bool",
          "name": "",
          "type": "bool"
        }
      ],
      "stateMutability": "view",
      "type": "function"
    },
    {
      "inputs": [
        {
          "internalType": "uint256",
          "name": "",
          "type": "uint256"
        }
      ],
      "name": "records",
      "outputs": [
        {
          "internalType": "string",
          "name": "ipfsHash",
          "type": "string"
        },
        {
          "internalType": "address",
          "name": "owner",
          "type": "address"
        },
        {
          "internalType": "uint256",
          "name": "timestamp",
          "type": "uint256"
        },
        {
          "internalType": "bool",
          "name": "isEncrypted",
          "type": "bool"
        },
        {
          "internalType": "bool",
          "name": "exists",
          "type": "bool"
        },
        {
          "internalType": "enum MedicalRecord.Category",
          "name": "category",
          "type": "uint8"
        }
      ],
      "stateMutability": "view",
      "type": "function"
    },
    {
      "inputs": [],
      "name": "renounceOwnership",
      "outputs": [],
      "stateMutability": "nonpayable",
      "type": "function"
    },
    {
      "inputs": [
        {
          "internalType": "uint256",
          "name": "_recordId",
          "type": "uint256"
        },
        {
          "internalType": "address",
          "name": "_from",
          "type": "address"
        }
      ],
      "name": "revokeAccess",
      "outputs": [],
      "stateMutability": "nonpayable",
      "type": "function"
    },
    {
      "inputs": [
        {
          "internalType": "uint256",
          "name": "_recordId",
          "type": "uint256"
        },
        {
          "internalType": "address",
          "name": "_emergencyContact",
          "type": "address"
        }
      ],
      "name": "revokeEmergencyAccess",
      "outputs": [],
      "stateMutability": "nonpayable",
      "type": "function"
    },
    {
      "inputs": [
        {
          "internalType": "address",
          "name": "from",
          "type": "address"
        },
        {
          "internalType": "address",
          "name": "to",
          "type": "address"
        },
        {
          "internalType": "uint256",
          "name": "tokenId",
          "type": "uint256"
        }
      ],
      "name": "safeTransferFrom",
      "outputs": [],
      "stateMutability": "nonpayable",
      "type": "function"
    },
    {
      "inputs": [
        {
          "internalType": "address",
          "name": "from",
          "type": "address"
        },
        {
          "internalType": "address",
          "name": "to",
          "type": "address"
        },
        {
          "internalType": "uint256",
          "name": "tokenId",
          "type": "uint256"
        },
        {
          "internalType": "bytes",
          "name": "data",
          "type": "bytes"
        }
      ],
      "name": "safeTransferFrom",
      "outputs": [],
      "stateMutability": "nonpayable",
      "type": "function"
    },
    {
      "inputs": [
        {
          "internalType": "string",
          "name": "tag",
          "type": "string"
        }
      ],
      "name": "searchRecordsByTag",
      "outputs": [
        {
          "internalType": "uint256[]",
          "name": "",
          "type": "uint256[]"
        }
      ],
      "stateMutability": "view",
      "type": "function"
    },
    {
      "inputs": [
        {
          "internalType": "address",
          "name": "operator",
          "type": "address"
        },
        {
          "internalType": "bool",
          "name": "approved",
          "type": "bool"
        }
      ],
      "name": "setApprovalForAll",
      "outputs": [],
      "stateMutability": "nonpayable",
      "type": "function"
    },
    {
      "inputs": [
        {
          "internalType": "bytes4",
          "name": "interfaceId",
          "type": "bytes4"
        }
      ],
      "name": "supportsInterface",
      "outputs": [
        {
          "internalType": "bool",
          "name": "",
          "type": "bool"
        }
      ],
      "stateMutability": "view",
      "type": "function"
    },
    {
      "inputs": [],
      "name": "symbol",
      "outputs": [
        {
          "internalType": "string",
          "name": "",
          "type": "string"
        }
      ],
      "stateMutability": "view",
      "type": "function"
    },
    {
      "inputs": [
        {
          "internalType": "uint256",
          "name": "tokenId",
          "type": "uint256"
        }
      ],
      "name": "tokenURI",
      "outputs": [
        {
          "internalType": "string",
          "name": "",
          "type": "string"
        }
      ],
      "stateMutability": "view",
      "type": "function"
    },
    {
      "inputs": [
        {
          "internalType": "address",
          "name": "from",
          "type": "address"
        },
        {
          "internalType": "address",
          "name": "to",
          "type": "address"
        },
        {
          "internalType": "uint256",
          "name": "tokenId",
          "type": "uint256"
        }
      ],
      "name": "transferFrom",
      "outputs": [],
      "stateMutability": "nonpayable",
      "type": "function"
    },
    {
      "inputs": [
        {
          "internalType": "address",
          "name": "newOwner",
          "type": "address"
        }
      ],
      "name": "transferOwnership",
      "outputs": [],
      "stateMutability": "nonpayable",
      "type": "function"
    },
    {
      "inputs": [
        {
          "internalType": "uint256",
          "name": "recordId",
          "type": "uint256"
        },
        {
          "internalType": "string[]",
          "name": "newTags",
          "type": "string[]"
        }
      ],
      "name": "updateTags",
      "outputs": [],
      "stateMutability": "nonpayable",
      "type": "function"
    }
  ],
  "bytecode": "0x60806040523480156200001157600080fd5b506040518060400160405280600d81526020016c1359591a58d85b149958dbdc99609a1b815250604051806040016040528060048152602001634d52454360e01b815250816000908162000066919062000198565b50600162000075828262000198565b505050620000926200008c6200009d60201b60201c565b620000a1565b600160075562000264565b3390565b600680546001600160a01b038381166001600160a01b0319831681179093556040519116919082907f8be0079c531659141344cd1fd0a4f28419497f9722a3daafe3b4186f6b6457e090600090a35050565b634e487b7160e01b600052604160045260246000fd5b600181811c908216806200011e57607f821691505b6020821081036200013f57634e487b7160e01b600052602260045260246000fd5b50919050565b601f8211156200019357600081815260208120601f850160051c810160208610156200016e5750805b601f850160051c820191505b818110156200018f578281556001016200017a565b5050505b505050565b81516001600160401b03811115620001b457620001b4620000f3565b620001cc81620001c5845462000109565b8462000145565b602080601f831160018114620002045760008415620001eb5750858301515b600019600386901b1c1916600185901b1785556200018f565b600085815260208120601f198616915b82811015620002355788860151825594840194600190910190840162000214565b5085821015620002545787850151600019600388901b60f8161c191681555b5050505050600190811b01905550565b6134fe80620002746000396000f3fe608060405234801561001057600080fd5b50600436106102115760003560e01c8063715018a611610125578063c08c5e83116100ad578063d9a5ec1b1161007c578063d9a5ec1b14610510578063e985e9c514610523578063f2fde38b1461055f578063fdcd582914610572578063fdffba0e1461058557600080fd5b8063c08c5e831461047e578063c87b56dd146104c5578063ced14198146104d8578063d8c08673146104eb57600080fd5b806395d89b41116100f457806395d89b411461042a578063a22cb46514610432578063a7c81a0114610445578063b547236a14610458578063b88d4fde1461046b57600080fd5b8063715018a6146103eb5780638335c196146103f35780638da5cb5b1461040657806394f0df611461041757600080fd5b806334461067116101a857806361aaee921161017757806361aaee921461037e5780636248204e146103915780636352211e146103a457806365dd152c146103b757806370a08231146103ca57600080fd5b806334461067146102f95780633640e8dd1461031e5780633fb5b1f11461033157806342842e0e1461036b57600080fd5b80630c6510e0116101e45780630c6510e01461029357806316b54108146102a657806323b872dd146102c65780632c1d977c146102d957600080fd5b806301ffc9a71461021657806306fdde031461023e578063081812fc14610253578063095ea7b31461027e575b600080fd5b610229610224366004612a17565b6105b0565b60405190151581526020015b60405180910390f35b610246610602565b6040516102359190612a84565b610266610261366004612a97565b610694565b6040516001600160a01b039091168152602001610235565b61029161028c366004612acc565b6106bb565b005b6102916102a1366004612af6565b6107d5565b6102b96102b4366004612b2b565b61096a565b6040516102359190612b46565b6102916102d4366004612b8a565b6109d6565b6102ec6102e7366004612a97565b610a07565b6040516102359190612bb6565b61030c610307366004612a97565b610ad9565b60405161023596959493929190612c2f565b6102b961032c366004612c91565b610baa565b61034461033f366004612cac565b610c41565b604080516001600160a01b0390941684526020840192909252151590820152606001610235565b610291610379366004612b8a565b610cd3565b6102b961038c366004612d97565b610cee565b6102b961039f366004612b2b565b610ed7565b6102666103b2366004612a97565b610f41565b6102916103c5366004612cac565b610fa1565b6103dd6103d8366004612b2b565b6111c3565b604051908152602001610235565b610291611249565b610291610401366004612e7b565b61125d565b6006546001600160a01b0316610266565b6103dd610425366004612acc565b6114d7565b610246611508565b610291610440366004612f00565b611517565b610291610453366004612f2a565b611526565b610229610466366004612cac565b61183c565b610291610479366004612f71565b6118ca565b61034461048c366004612cac565b600b6020908152600092835260408084209091529082529020805460018201546002909201546001600160a01b03909116919060ff1683565b6102466104d3366004612a97565b611902565b6102296104e6366004612cac565b611976565b6104fe6104f9366004612a97565b6119c8565b60405161023596959493929190613036565b61029161051e366004612cac565b611c1e565b610229610531366004613093565b6001600160a01b03918216600090815260056020908152604080832093909416825291909152205460ff1690565b61029161056d366004612b2b565b611f71565b610291610580366004612cac565b611fea565b610229610593366004612a97565b600090815260096020526040902060030154610100900460ff1690565b60006001600160e01b031982166380ac58cd60e01b14806105e157506001600160e01b03198216635b5e139f60e01b145b806105fc57506301ffc9a760e01b6001600160e01b03198316145b92915050565b606060008054610611906130bd565b80601f016020809104026020016040519081016040528092919081815260200182805461063d906130bd565b801561068a5780601f1061065f5761010080835404028352916020019161068a565b820191906000526020600020905b81548152906001019060200180831161066d57829003601f168201915b5050505050905090565b600061069f82612129565b506000908152600460205260409020546001600160a01b031690565b60006106c682610f41565b9050806001600160a01b0316836001600160a01b0316036107385760405162461bcd60e51b815260206004820152602160248201527f4552433732313a20617070726f76616c20746f2063757272656e74206f776e656044820152603960f91b60648201526084015b60405180910390fd5b336001600160a01b038216148061075457506107548133610531565b6107c65760405162461bcd60e51b815260206004820152603d60248201527f4552433732313a20617070726f76652063616c6c6572206973206e6f7420746f60448201527f6b656e206f776e6572206f7220617070726f76656420666f7220616c6c000000606482015260840161072f565b6107d08383612188565b505050565b600083815260096020526040902060030154610100900460ff1661080b5760405162461bcd60e51b815260040161072f906130f7565b6001600160a01b03821661086b5760405162461bcd60e51b815260206004820152602160248201527f496e76616c696420656d657267656e637920636f6e74616374206164647265736044820152607360f81b606482015260840161072f565b3361087584610f41565b6001600160a01b03161461089b5760405162461bcd60e51b815260040161072f90613126565b60006108a982610e10613173565b6108b3904261318a565b60408051606080820183526001600160a01b038781168084526020808501878152600186880181815260008e8152600b85528981208682528552899020975188546001600160a01b031916961695909517875590519086015591516002909401805460ff1916941515949094179093558351898152908101929092529181018390529192507f950cb26ce135bf8b7863126f9c1069eb87671da694b534b73338302ee22fbc9f91015b60405180910390a150505050565b6001600160a01b0381166000908152600e60209081526040918290208054835181840281018401909452808452606093928301828280156109ca57602002820191906000526020600020905b8154815260200190600101908083116109b6575b50505050509050919050565b6109e033826121f6565b6109fc5760405162461bcd60e51b815260040161072f9061319d565b6107d0838383612274565b600081815260096020526040902060030154606090610100900460ff16610a405760405162461bcd60e51b815260040161072f906130f7565b33610a4a83610f41565b6001600160a01b031614610a705760405162461bcd60e51b815260040161072f90613126565b6000828152600f6020908152604091829020805483518184028101840190945280845290918301828280156109ca57602002820191906000526020600020905b81546001600160a01b03168152600190910190602001808311610ab05750505050509050919050565b600960205260009081526040902080548190610af4906130bd565b80601f0160208091040260200160405190810160405280929190818152602001828054610b20906130bd565b8015610b6d5780601f10610b4257610100808354040283529160200191610b6d565b820191906000526020600020905b815481529060010190602001808311610b5057829003601f168201915b5050506001840154600285015460039095015493946001600160a01b039091169390925060ff808216925061010082048116916201000090041686565b336000908152601060205260408120606091836008811115610bce57610bce612bf7565b6008811115610bdf57610bdf612bf7565b81526020019081526020016000208054806020026020016040519081016040528092919081815260200182805480156109ca57602002820191906000526020600020908154815260200190600101908083116109b65750505050509050919050565b60008281526009602052604081206003015481908190610100900460ff16610c7b5760405162461bcd60e51b815260040161072f906130f7565b5050506000918252600b602090815260408084206001600160a01b03938416855282529283902083516060810185528154909316808452600182015492840183905260029091015460ff161515929093018290529192565b6107d0838383604051806020016040528060008152506118ca565b60606000601183604051610d0291906131ea565b9081526040805191829003602090810183208054808302850183019093528284529190830182828015610d5457602002820191906000526020600020905b815481526020019060010190808311610d40575b505050505090506000805b8251811015610dd457336001600160a01b031660096000858481518110610d8857610d88613206565b6020908102919091018101518252810191909152604001600020600101546001600160a01b031603610dc25781610dbe8161321c565b9250505b80610dcc8161321c565b915050610d5f565b5060008167ffffffffffffffff811115610df057610df0612cd8565b604051908082528060200260200182016040528015610e19578160200160208202803683370190505b5090506000805b8451811015610ecc57336001600160a01b031660096000878481518110610e4957610e49613206565b6020908102919091018101518252810191909152604001600020600101546001600160a01b031603610eba57848181518110610e8757610e87613206565b6020026020010151838381518110610ea157610ea1613206565b602090810291909101015281610eb68161321c565b9250505b80610ec48161321c565b915050610e20565b509095945050505050565b6001600160a01b0381166000908152600a60209081526040918290208054835181840281018401909452808452606093928301828280156109ca57602002820191906000526020600020908154815260200190600101908083116109b65750505050509050919050565b6000818152600260205260408120546001600160a01b0316806105fc5760405162461bcd60e51b8152602060048201526018602482015277115490cdcc8c4e881a5b9d985b1a59081d1bdad95b88125160421b604482015260640161072f565b600082815260096020526040902060030154610100900460ff16610fd75760405162461bcd60e51b815260040161072f906130f7565b6001600160a01b03811661101f5760405162461bcd60e51b815260206004820152600f60248201526e496e76616c6964206164647265737360881b604482015260640161072f565b336001600160a01b038216036110775760405162461bcd60e51b815260206004820152601f60248201527f43616e6e6f74206772616e742061636365737320746f20796f757273656c6600604482015260640161072f565b3361108183610f41565b6001600160a01b0316146110a75760405162461bcd60e51b815260040161072f90613126565b6000828152600d602090815260408083206001600160a01b038516845290915290205460ff16156111135760405162461bcd60e51b81526020600482015260166024820152751058d8d95cdcc8185b1c9958591e4819dc985b9d195960521b604482015260640161072f565b6000828152600d602090815260408083206001600160a01b038516808552908352818420805460ff19166001908117909155600e84528285208054808301825590865284862001879055868552600f84528285208054918201815585529383902090930180546001600160a01b031916841790558051858152918201929092527f3c3a9147a1fc73dd51a32f4d10c43d457e8cb826eb6f35cac6349eb965ba82b491015b60405180910390a15050565b60006001600160a01b03821661122d5760405162461bcd60e51b815260206004820152602960248201527f4552433732313a2061646472657373207a65726f206973206e6f7420612076616044820152683634b21037bbb732b960b91b606482015260840161072f565b506001600160a01b031660009081526003602052604090205490565b6112516123d8565b61125b6000612432565b565b60008451116112a25760405162461bcd60e51b8152602060048201526011602482015270092dcecc2d8d2c84092a08ca640d0c2e6d607b1b604482015260640161072f565b6112b0600880546001019055565b60006112bb60085490565b6000818152600960205260409020909150806112d78782613283565b506001810180546001600160a01b0319163317905542600282015560038101805461ff00198715151661ffff19909116176101001780825585919062ff000019166201000083600881111561132e5761132e612bf7565b021790555060005b83518110156113de578160040184828151811061135557611355613206565b6020908102919091018101518254600181018455600093845291909220019061137e9082613283565b50601184828151811061139357611393613206565b60200260200101516040516113a891906131ea565b908152604051602091819003820190208054600181018255600091825291902001839055806113d68161321c565b915050611336565b503360009081526010602052604081209085600881111561140157611401612bf7565b600881111561141257611412612bf7565b8152602080820192909252604090810160009081208054600181810183559183528483200186905533808352600a855292822080548083018255908352938220909301859055600c8054938401815590527fdf6966c971051c3d54ec59162606531493a51404a002842f56009d7e5cf4a8c79091018390556114949083612484565b7f107736fec5bf0ecfe95025e33380c86b21f8a3ceb3799a0be620979e7505857f8233866040516114c793929190613343565b60405180910390a1505050505050565b600a60205281600052604060002081815481106114f357600080fd5b90600052602060002001600091509150505481565b606060018054610611906130bd565b61152233838361260f565b5050565b600082815260096020526040902060030154610100900460ff1661155c5760405162461bcd60e51b815260040161072f906130f7565b3361156683610f41565b6001600160a01b03161461158c5760405162461bcd60e51b815260040161072f90613126565b6000828152600960205260408120905b60048201548110156117435760008260040182815481106115bf576115bf613206565b9060005260206000200180546115d4906130bd565b80601f0160208091040260200160405190810160405280929190818152602001828054611600906130bd565b801561164d5780601f106116225761010080835404028352916020019161164d565b820191906000526020600020905b81548152906001019060200180831161163057829003601f168201915b50505050509050600060118260405161166691906131ea565b9081526020016040518091039020905060005b815481101561172d578682828154811061169557611695613206565b90600052602060002001540361171b57815482906116b590600190613366565b815481106116c5576116c5613206565b90600052602060002001548282815481106116e2576116e2613206565b90600052602060002001819055508180548061170057611700613379565b6001900381819060005260206000200160009055905561172d565b806117258161321c565b915050611679565b505050808061173b9061321c565b91505061159c565b5061175260048201600061297c565b60005b82518110156117fd578160040183828151811061177457611774613206565b6020908102919091018101518254600181018455600093845291909220019061179d9082613283565b5060118382815181106117b2576117b2613206565b60200260200101516040516117c791906131ea565b908152604051602091819003820190208054600181018255600091825291902001849055806117f58161321c565b915050611755565b507f1ec4c1ffa8337f540f543c894b49ff569d0f0e1f6f0401b1d853712087c9d4c5838360405161182f92919061338f565b60405180910390a1505050565b600082815260096020526040812060030154610100900460ff16611862575060006105fc565b6000838152600b602090815260408083206001600160a01b0380871685529083529281902081516060810183528154909416845260018101549284019290925260029091015460ff161580159183018290526118c2575080602001514211155b949350505050565b6118d433836121f6565b6118f05760405162461bcd60e51b815260040161072f9061319d565b6118fc848484846126dd565b50505050565b606061190d82612129565b600061192460408051602081019091526000815290565b90506000815111611944576040518060200160405280600081525061196f565b8061194e84612710565b60405160200161195f9291906133a8565b6040516020818303038152906040525b9392505050565b600082815260096020526040812060030154610100900460ff1661199c575060006105fc565b506000918252600d602090815260408084206001600160a01b0393909316845291905290205460ff1690565b606060008060008060606119f48760009081526009602052604090206003015460ff6101009091041690565b611a105760405162461bcd60e51b815260040161072f906130f7565b600087815260096020526040902060018101546001600160a01b0316611a785760405162461bcd60e51b815260206004820152601f60248201527f5265636f7264206e6f742070726f7065726c7920696e697469616c697a656400604482015260640161072f565b600181015460028201546003830154835484936001600160a01b0316929160ff8082169262010000909204169060048601908690611ab5906130bd565b80601f0160208091040260200160405190810160405280929190818152602001828054611ae1906130bd565b8015611b2e5780601f10611b0357610100808354040283529160200191611b2e565b820191906000526020600020905b815481529060010190602001808311611b1157829003601f168201915b5050505050955080805480602002602001604051908101604052809291908181526020016000905b82821015611c02578382906000526020600020018054611b75906130bd565b80601f0160208091040260200160405190810160405280929190818152602001828054611ba1906130bd565b8015611bee5780601f10611bc357610100808354040283529160200191611bee565b820191906000526020600020905b815481529060010190602001808311611bd157829003601f168201915b505050505081526020019060010190611b56565b5050505090509650965096509650965096505091939550919395565b600082815260096020526040902060030154610100900460ff16611c545760405162461bcd60e51b815260040161072f906130f7565b6001600160a01b038116611c9c5760405162461bcd60e51b815260206004820152600f60248201526e496e76616c6964206164647265737360881b604482015260640161072f565b33611ca683610f41565b6001600160a01b031614611ccc5760405162461bcd60e51b815260040161072f90613126565b6000828152600d602090815260408083206001600160a01b038516845290915290205460ff16611d345760405162461bcd60e51b81526020600482015260136024820152724e6f2061636365737320746f207265766f6b6560681b604482015260640161072f565b6000828152600d602090815260408083206001600160a01b03851684528252808320805460ff19169055600e9091528120905b8154811015611e1b5783828281548110611d8357611d83613206565b906000526020600020015403611e095781548290611da390600190613366565b81548110611db357611db3613206565b9060005260206000200154828281548110611dd057611dd0613206565b906000526020600020018190555081805480611dee57611dee613379565b60019003818190600052602060002001600090559055611e1b565b80611e138161321c565b915050611d67565b506000838152600f60205260408120905b8154811015611f3257836001600160a01b0316828281548110611e5157611e51613206565b6000918252602090912001546001600160a01b031603611f205781548290611e7b90600190613366565b81548110611e8b57611e8b613206565b9060005260206000200160009054906101000a90046001600160a01b0316828281548110611ebb57611ebb613206565b9060005260206000200160006101000a8154816001600160a01b0302191690836001600160a01b0316021790555081805480611ef957611ef9613379565b600082815260209020810160001990810180546001600160a01b0319169055019055611f32565b80611f2a8161321c565b915050611e2c565b50604080518581526001600160a01b03851660208201527f125883b94692baebecad9f111ed97ffa626523bbbadc6b0ef85ee1b56b9e52d5910161095c565b611f796123d8565b6001600160a01b038116611fde5760405162461bcd60e51b815260206004820152602660248201527f4f776e61626c653a206e6577206f776e657220697320746865207a65726f206160448201526564647265737360d01b606482015260840161072f565b611fe781612432565b50565b600082815260096020526040902060030154610100900460ff166120205760405162461bcd60e51b815260040161072f906130f7565b3361202a83610f41565b6001600160a01b0316146120505760405162461bcd60e51b815260040161072f90613126565b6000828152600b602090815260408083206001600160a01b038516845290915290206002015460ff166120c55760405162461bcd60e51b815260206004820152601a60248201527f4e6f2061637469766520656d657267656e637920616363657373000000000000604482015260640161072f565b6000828152600b602090815260408083206001600160a01b03851680855290835292819020600201805460ff191690558051858152918201929092527f80ee26c128140dc5c04c3ce97037d466a7fbdd3c3894299a626cfa8c1f5bd47f91016111b7565b6000818152600260205260409020546001600160a01b0316611fe75760405162461bcd60e51b8152602060048201526018602482015277115490cdcc8c4e881a5b9d985b1a59081d1bdad95b88125160421b604482015260640161072f565b600081815260046020526040902080546001600160a01b0319166001600160a01b03841690811790915581906121bd82610f41565b6001600160a01b03167f8c5be1e5ebec7d5bd14f71427d1e84f3dd0314c0f7b2291e5b200ac8c7c3b92560405160405180910390a45050565b60008061220283610f41565b9050806001600160a01b0316846001600160a01b0316148061224957506001600160a01b0380821660009081526005602090815260408083209388168352929052205460ff165b806118c25750836001600160a01b031661226284610694565b6001600160a01b031614949350505050565b826001600160a01b031661228782610f41565b6001600160a01b0316146122ad5760405162461bcd60e51b815260040161072f906133d7565b6001600160a01b03821661230f5760405162461bcd60e51b8152602060048201526024808201527f4552433732313a207472616e7366657220746f20746865207a65726f206164646044820152637265737360e01b606482015260840161072f565b826001600160a01b031661232282610f41565b6001600160a01b0316146123485760405162461bcd60e51b815260040161072f906133d7565b600081815260046020908152604080832080546001600160a01b03199081169091556001600160a01b0387811680865260038552838620805460001901905590871680865283862080546001019055868652600290945282852080549092168417909155905184937fddf252ad1be2c89b69c2b068fc378daa952ba7f163c4a11628f55a4df523b3ef91a4505050565b6006546001600160a01b0316331461125b5760405162461bcd60e51b815260206004820181905260248201527f4f776e61626c653a2063616c6c6572206973206e6f7420746865206f776e6572604482015260640161072f565b600680546001600160a01b038381166001600160a01b0319831681179093556040519116919082907f8be0079c531659141344cd1fd0a4f28419497f9722a3daafe3b4186f6b6457e090600090a35050565b6001600160a01b0382166124da5760405162461bcd60e51b815260206004820181905260248201527f4552433732313a206d696e7420746f20746865207a65726f2061646472657373604482015260640161072f565b6000818152600260205260409020546001600160a01b03161561253f5760405162461bcd60e51b815260206004820152601c60248201527f4552433732313a20746f6b656e20616c7265616479206d696e74656400000000604482015260640161072f565b6000818152600260205260409020546001600160a01b0316156125a45760405162461bcd60e51b815260206004820152601c60248201527f4552433732313a20746f6b656e20616c7265616479206d696e74656400000000604482015260640161072f565b6001600160a01b038216600081815260036020908152604080832080546001019055848352600290915280822080546001600160a01b0319168417905551839291907fddf252ad1be2c89b69c2b068fc378daa952ba7f163c4a11628f55a4df523b3ef908290a45050565b816001600160a01b0316836001600160a01b0316036126705760405162461bcd60e51b815260206004820152601960248201527f4552433732313a20617070726f766520746f2063616c6c657200000000000000604482015260640161072f565b6001600160a01b03838116600081815260056020908152604080832094871680845294825291829020805460ff191686151590811790915591519182527f17307eab39ab6107e8899845ad3d59bd9653f200f220920489ca2b5937696c31910160405180910390a3505050565b6126e8848484612274565b6126f4848484846127a3565b6118fc5760405162461bcd60e51b815260040161072f9061341c565b6060600061271d836128a4565b600101905060008167ffffffffffffffff81111561273d5761273d612cd8565b6040519080825280601f01601f191660200182016040528015612767576020820181803683370190505b5090508181016020015b600019016f181899199a1a9b1b9c1cb0b131b232b360811b600a86061a8153600a850494508461277157509392505050565b60006001600160a01b0384163b1561289957604051630a85bd0160e11b81526001600160a01b0385169063150b7a02906127e790339089908890889060040161346e565b6020604051808303816000875af1925050508015612822575060408051601f3d908101601f1916820190925261281f918101906134ab565b60015b61287f573d808015612850576040519150601f19603f3d011682016040523d82523d6000602084013e612855565b606091505b5080516000036128775760405162461bcd60e51b815260040161072f9061341c565b805181602001fd5b6001600160e01b031916630a85bd0160e11b1490506118c2565b506001949350505050565b60008072184f03e93ff9f4daa797ed6e38ed64bf6a1f0160401b83106128e35772184f03e93ff9f4daa797ed6e38ed64bf6a1f0160401b830492506040015b6d04ee2d6d415b85acef8100000000831061290f576d04ee2d6d415b85acef8100000000830492506020015b662386f26fc10000831061292d57662386f26fc10000830492506010015b6305f5e1008310612945576305f5e100830492506008015b612710831061295957612710830492506004015b6064831061296b576064830492506002015b600a83106105fc5760010192915050565b5080546000825590600052602060002090810190611fe791905b808211156129b35760006129aa82826129b7565b50600101612996565b5090565b5080546129c3906130bd565b6000825580601f106129d3575050565b601f016020900490600052602060002090810190611fe791905b808211156129b357600081556001016129ed565b6001600160e01b031981168114611fe757600080fd5b600060208284031215612a2957600080fd5b813561196f81612a01565b60005b83811015612a4f578181015183820152602001612a37565b50506000910152565b60008151808452612a70816020860160208601612a34565b601f01601f19169290920160200192915050565b60208152600061196f6020830184612a58565b600060208284031215612aa957600080fd5b5035919050565b80356001600160a01b0381168114612ac757600080fd5b919050565b60008060408385031215612adf57600080fd5b612ae883612ab0565b946020939093013593505050565b600080600060608486031215612b0b57600080fd5b83359250612b1b60208501612ab0565b9150604084013590509250925092565b600060208284031215612b3d57600080fd5b61196f82612ab0565b6020808252825182820181905260009190848201906040850190845b81811015612b7e57835183529284019291840191600101612b62565b50909695505050505050565b600080600060608486031215612b9f57600080fd5b612ba884612ab0565b9250612b1b60208501612ab0565b6020808252825182820181905260009190848201906040850190845b81811015612b7e5783516001600160a01b031683529284019291840191600101612bd2565b634e487b7160e01b600052602160045260246000fd5b60098110612c2b57634e487b7160e01b600052602160045260246000fd5b9052565b60c081526000612c4260c0830189612a58565b6001600160a01b038816602084015260408301879052851515606084015284151560808401529050612c7760a0830184612c0d565b979650505050505050565b803560098110612ac757600080fd5b600060208284031215612ca357600080fd5b61196f82612c82565b60008060408385031215612cbf57600080fd5b82359150612ccf60208401612ab0565b90509250929050565b634e487b7160e01b600052604160045260246000fd5b604051601f8201601f1916810167ffffffffffffffff81118282101715612d1757612d17612cd8565b604052919050565b600067ffffffffffffffff831115612d3957612d39612cd8565b612d4c601f8401601f1916602001612cee565b9050828152838383011115612d6057600080fd5b828260208301376000602084830101529392505050565b600082601f830112612d8857600080fd5b61196f83833560208501612d1f565b600060208284031215612da957600080fd5b813567ffffffffffffffff811115612dc057600080fd5b6118c284828501612d77565b80358015158114612ac757600080fd5b600082601f830112612ded57600080fd5b8135602067ffffffffffffffff80831115612e0a57612e0a612cd8565b8260051b612e19838201612cee565b9384528581018301938381019088861115612e3357600080fd5b84880192505b85831015612e6f57823584811115612e515760008081fd5b612e5f8a87838c0101612d77565b8352509184019190840190612e39565b98975050505050505050565b60008060008060808587031215612e9157600080fd5b843567ffffffffffffffff80821115612ea957600080fd5b612eb588838901612d77565b9550612ec360208801612dcc565b9450612ed160408801612c82565b93506060870135915080821115612ee757600080fd5b50612ef487828801612ddc565b91505092959194509250565b60008060408385031215612f1357600080fd5b612f1c83612ab0565b9150612ccf60208401612dcc565b60008060408385031215612f3d57600080fd5b82359150602083013567ffffffffffffffff811115612f5b57600080fd5b612f6785828601612ddc565b9150509250929050565b60008060008060808587031215612f8757600080fd5b612f9085612ab0565b9350612f9e60208601612ab0565b925060408501359150606085013567ffffffffffffffff811115612fc157600080fd5b8501601f81018713612fd257600080fd5b612ef487823560208401612d1f565b600081518084526020808501808196508360051b8101915082860160005b85811015613029578284038952613017848351612a58565b98850198935090840190600101612fff565b5091979650505050505050565b60c08152600061304960c0830189612a58565b6001600160a01b03881660208401526040830187905285151560608401526130746080840186612c0d565b82810360a08401526130868185612fe1565b9998505050505050505050565b600080604083850312156130a657600080fd5b6130af83612ab0565b9150612ccf60208401612ab0565b600181811c908216806130d157607f821691505b6020821081036130f157634e487b7160e01b600052602260045260246000fd5b50919050565b602080825260159082015274149958dbdc9908191bd95cc81b9bdd08195e1a5cdd605a1b604082015260600190565b6020808252601b908201527f4e6f7420746865206f776e6572206f6620746865207265636f72640000000000604082015260600190565b634e487b7160e01b600052601160045260246000fd5b80820281158282048414176105fc576105fc61315d565b808201808211156105fc576105fc61315d565b6020808252602d908201527f4552433732313a2063616c6c6572206973206e6f7420746f6b656e206f776e6560408201526c1c881bdc88185c1c1c9bdd9959609a1b606082015260800190565b600082516131fc818460208701612a34565b9190910192915050565b634e487b7160e01b600052603260045260246000fd5b60006001820161322e5761322e61315d565b5060010190565b601f8211156107d057600081815260208120601f850160051c8101602086101561325c5750805b601f850160051c820191505b8181101561327b57828155600101613268565b505050505050565b815167ffffffffffffffff81111561329d5761329d612cd8565b6132b1816132ab84546130bd565b84613235565b602080601f8311600181146132e657600084156132ce5750858301515b600019600386901b1c1916600185901b17855561327b565b600085815260208120601f198616915b82811015613315578886015182559484019460019091019084016132f6565b50858210156133335787850151600019600388901b60f8161c191681555b5050505050600190811b01905550565b8381526001600160a01b0383166020820152606081016118c26040830184612c0d565b818103818111156105fc576105fc61315d565b634e487b7160e01b600052603160045260246000fd5b8281526040602082015260006118c26040830184612fe1565b600083516133ba818460208801612a34565b8351908301906133ce818360208801612a34565b01949350505050565b60208082526025908201527f4552433732313a207472616e736665722066726f6d20696e636f72726563742060408201526437bbb732b960d91b606082015260800190565b60208082526032908201527f4552433732313a207472616e7366657220746f206e6f6e20455243373231526560408201527131b2b4bb32b91034b6b83632b6b2b73a32b960711b606082015260800190565b6001600160a01b03858116825284166020820152604081018390526080606082018190526000906134a190830184612a58565b9695505050505050565b6000602082840312156134bd57600080fd5b815161196f81612a0156fea2646970667358221220809176a47cfa7d9c27dcf8dc7b1d74bcfb37659003b6052151fb5c44c71a20d464736f6c63430008140033",
  "linkReferences": {},
  "deployedLinkReferences": {}
}