{
  "_format": "hh-sol-artifact-1",
  "contractName": "MedicalRecord",
  "sourceName": "contracts/MedicalRecord.sol",
  "abi": [
    {
      "inputs": [],
      "stateMutability": "nonpayable",
      "type": "constructor"
    },
    {
      "anonymous": false,
      "inputs": [
        {
          "indexed": false,
          "internalType": "uint256",
          "name": "recordId",
          "type": "uint256"
        },
        {
          "indexed": false,
          "internalType": "address",
          "name": "requester",
          "type": "address"
        }
      ],
      "name": "AccessGranted",
      "type": "event"
    },
    {
      "anonymous": false,
      "inputs": [
        {
          "indexed": false,
          "internalType": "uint256",
          "name": "recordId",
          "type": "uint256"
        },
        {
          "indexed": false,
          "internalType": "address",
          "name": "requester",
          "type": "address"
        }
      ],
      "name": "AccessRevoked",
      "type": "event"
    },
    {
      "anonymous": false,
      "inputs": [
        {
          "indexed": true,
          "internalType": "address",
          "name": "owner",
          "type": "address"
        },
        {
          "indexed": true,
          "internalType": "address",
          "name": "approved",
          "type": "address"
        },
        {
          "indexed": true,
          "internalType": "uint256",
          "name": "tokenId",
          "type": "uint256"
        }
      ],
      "name": "Approval",
      "type": "event"
    },
    {
      "anonymous": false,
      "inputs": [
        {
          "indexed": true,
          "internalType": "address",
          "name": "owner",
          "type": "address"
        },
        {
          "indexed": true,
          "internalType": "address",
          "name": "operator",
          "type": "address"
        },
        {
          "indexed": false,
          "internalType": "bool",
          "name": "approved",
          "type": "bool"
        }
      ],
      "name": "ApprovalForAll",
      "type": "event"
    },
    {
      "anonymous": false,
      "inputs": [
        {
          "indexed": false,
          "internalType": "uint256",
          "name": "recordId",
          "type": "uint256"
        },
        {
          "indexed": false,
          "internalType": "address",
          "name": "emergencyContact",
          "type": "address"
        },
        {
          "indexed": false,
          "internalType": "uint256",
          "name": "expiryTime",
          "type": "uint256"
        }
      ],
      "name": "EmergencyAccessGranted",
      "type": "event"
    },
    {
      "anonymous": false,
      "inputs": [
        {
          "indexed": false,
          "internalType": "uint256",
          "name": "recordId",
          "type": "uint256"
        },
        {
          "indexed": false,
          "internalType": "address",
          "name": "emergencyContact",
          "type": "address"
        }
      ],
      "name": "EmergencyAccessRevoked",
      "type": "event"
    },
    {
      "anonymous": false,
      "inputs": [
        {
          "indexed": true,
          "internalType": "address",
          "name": "previousOwner",
          "type": "address"
        },
        {
          "indexed": true,
          "internalType": "address",
          "name": "newOwner",
          "type": "address"
        }
      ],
      "name": "OwnershipTransferred",
      "type": "event"
    },
    {
      "anonymous": false,
      "inputs": [
        {
          "indexed": false,
          "internalType": "uint256",
          "name": "recordId",
          "type": "uint256"
        },
        {
          "indexed": false,
          "internalType": "address",
          "name": "owner",
          "type": "address"
        },
        {
          "indexed": false,
          "internalType": "enum MedicalRecord.Category",
          "name": "category",
          "type": "uint8"
        }
      ],
      "name": "RecordCreated",
      "type": "event"
    },
    {
      "anonymous": false,
      "inputs": [
        {
          "indexed": true,
          "internalType": "bytes32",
          "name": "role",
          "type": "bytes32"
        },
        {
          "indexed": true,
          "internalType": "bytes32",
          "name": "previousAdminRole",
          "type": "bytes32"
        },
        {
          "indexed": true,
          "internalType": "bytes32",
          "name": "newAdminRole",
          "type": "bytes32"
        }
      ],
      "name": "RoleAdminChanged",
      "type": "event"
    },
    {
      "anonymous": false,
      "inputs": [
        {
          "indexed": true,
          "internalType": "address",
          "name": "requester",
          "type": "address"
        },
        {
          "indexed": true,
          "internalType": "bytes32",
          "name": "requestedRole",
          "type": "bytes32"
        },
        {
          "indexed": false,
          "internalType": "bool",
          "name": "approved",
          "type": "bool"
        }
      ],
      "name": "RoleChangeRequestProcessed",
      "type": "event"
    },
    {
      "anonymous": false,
      "inputs": [
        {
          "indexed": true,
          "internalType": "address",
          "name": "requester",
          "type": "address"
        },
        {
          "indexed": true,
          "internalType": "bytes32",
          "name": "requestedRole",
          "type": "bytes32"
        }
      ],
      "name": "RoleChangeRequested",
      "type": "event"
    },
    {
      "anonymous": false,
      "inputs": [
        {
          "indexed": true,
          "internalType": "bytes32",
          "name": "role",
          "type": "bytes32"
        },
        {
          "indexed": true,
          "internalType": "address",
          "name": "account",
          "type": "address"
        },
        {
          "indexed": true,
          "internalType": "address",
          "name": "sender",
          "type": "address"
        }
      ],
      "name": "RoleGranted",
      "type": "event"
    },
    {
      "anonymous": false,
      "inputs": [
        {
          "indexed": false,
          "internalType": "address",
          "name": "account",
          "type": "address"
        },
        {
          "indexed": false,
          "internalType": "bytes32",
          "name": "role",
          "type": "bytes32"
        }
      ],
      "name": "RoleGranted",
      "type": "event"
    },
    {
      "anonymous": false,
      "inputs": [
        {
          "indexed": true,
          "internalType": "bytes32",
          "name": "role",
          "type": "bytes32"
        },
        {
          "indexed": true,
          "internalType": "address",
          "name": "account",
          "type": "address"
        },
        {
          "indexed": true,
          "internalType": "address",
          "name": "sender",
          "type": "address"
        }
      ],
      "name": "RoleRevoked",
      "type": "event"
    },
    {
      "anonymous": false,
      "inputs": [
        {
          "indexed": false,
          "internalType": "address",
          "name": "account",
          "type": "address"
        },
        {
          "indexed": false,
          "internalType": "bytes32",
          "name": "role",
          "type": "bytes32"
        }
      ],
      "name": "RoleRevoked",
      "type": "event"
    },
    {
      "anonymous": false,
      "inputs": [
        {
          "indexed": false,
          "internalType": "uint256",
          "name": "recordId",
          "type": "uint256"
        },
        {
          "indexed": false,
          "internalType": "string[]",
          "name": "tags",
          "type": "string[]"
        }
      ],
      "name": "TagsUpdated",
      "type": "event"
    },
    {
      "anonymous": false,
      "inputs": [
        {
          "indexed": true,
          "internalType": "address",
          "name": "from",
          "type": "address"
        },
        {
          "indexed": true,
          "internalType": "address",
          "name": "to",
          "type": "address"
        },
        {
          "indexed": true,
          "internalType": "uint256",
          "name": "tokenId",
          "type": "uint256"
        }
      ],
      "name": "Transfer",
      "type": "event"
    },
    {
      "anonymous": false,
      "inputs": [
        {
          "indexed": false,
          "internalType": "address",
          "name": "user",
          "type": "address"
        },
        {
          "indexed": false,
          "internalType": "string",
          "name": "name",
          "type": "string"
        },
        {
          "indexed": false,
          "internalType": "string",
          "name": "specialization",
          "type": "string"
        },
        {
          "indexed": false,
          "internalType": "string",
          "name": "institution",
          "type": "string"
        }
      ],
      "name": "UserProfileUpdated",
      "type": "event"
    },
    {
      "inputs": [],
      "name": "ADMIN_ROLE",
      "outputs": [
        {
          "internalType": "bytes32",
          "name": "",
          "type": "bytes32"
        }
      ],
      "stateMutability": "view",
      "type": "function"
    },
    {
      "inputs": [],
      "name": "DEFAULT_ADMIN_ROLE",
      "outputs": [
        {
          "internalType": "bytes32",
          "name": "",
          "type": "bytes32"
        }
      ],
      "stateMutability": "view",
      "type": "function"
    },
    {
      "inputs": [],
      "name": "DOCTOR_ROLE",
      "outputs": [
        {
          "internalType": "bytes32",
          "name": "",
          "type": "bytes32"
        }
      ],
      "stateMutability": "view",
      "type": "function"
    },
    {
      "inputs": [],
      "name": "PATIENT_ROLE",
      "outputs": [
        {
          "internalType": "bytes32",
          "name": "",
          "type": "bytes32"
        }
      ],
      "stateMutability": "view",
      "type": "function"
    },
    {
      "inputs": [],
      "name": "RESEARCHER_ROLE",
      "outputs": [
        {
          "internalType": "bytes32",
          "name": "",
          "type": "bytes32"
        }
      ],
      "stateMutability": "view",
      "type": "function"
    },
    {
      "inputs": [
        {
          "internalType": "address",
          "name": "to",
          "type": "address"
        },
        {
          "internalType": "uint256",
          "name": "tokenId",
          "type": "uint256"
        }
      ],
      "name": "approve",
      "outputs": [],
      "stateMutability": "nonpayable",
      "type": "function"
    },
    {
      "inputs": [
        {
          "internalType": "address",
          "name": "owner",
          "type": "address"
        }
      ],
      "name": "balanceOf",
      "outputs": [
        {
          "internalType": "uint256",
          "name": "",
          "type": "uint256"
        }
      ],
      "stateMutability": "view",
      "type": "function"
    },
    {
      "inputs": [
        {
          "internalType": "string",
          "name": "ipfsHash",
          "type": "string"
        },
        {
          "internalType": "bool",
          "name": "isEncrypted",
          "type": "bool"
        },
        {
          "internalType": "enum MedicalRecord.Category",
          "name": "category",
          "type": "uint8"
        },
        {
          "internalType": "string[]",
          "name": "tags",
          "type": "string[]"
        }
      ],
      "name": "createRecord",
      "outputs": [],
      "stateMutability": "nonpayable",
      "type": "function"
    },
    {
      "inputs": [
        {
          "internalType": "uint256",
          "name": "",
          "type": "uint256"
        },
        {
          "internalType": "address",
          "name": "",
          "type": "address"
        }
      ],
      "name": "emergencyAccess",
      "outputs": [
        {
          "internalType": "address",
          "name": "emergencyContact",
          "type": "address"
        },
        {
          "internalType": "uint256",
          "name": "expiryTime",
          "type": "uint256"
        },
        {
          "internalType": "bool",
          "name": "isActive",
          "type": "bool"
        }
      ],
      "stateMutability": "view",
      "type": "function"
    },
    {
      "inputs": [
        {
          "internalType": "uint256",
          "name": "tokenId",
          "type": "uint256"
        }
      ],
      "name": "getApproved",
      "outputs": [
        {
          "internalType": "address",
          "name": "",
          "type": "address"
        }
      ],
      "stateMutability": "view",
      "type": "function"
    },
    {
      "inputs": [
        {
          "internalType": "uint256",
          "name": "_recordId",
          "type": "uint256"
        },
        {
          "internalType": "address",
          "name": "_emergencyContact",
          "type": "address"
        }
      ],
      "name": "getEmergencyAccessDetails",
      "outputs": [
        {
          "internalType": "address",
          "name": "contact",
          "type": "address"
        },
        {
          "internalType": "uint256",
          "name": "expiryTime",
          "type": "uint256"
        },
        {
          "internalType": "bool",
          "name": "isActive",
          "type": "bool"
        }
      ],
      "stateMutability": "view",
      "type": "function"
    },
    {
      "inputs": [
        {
          "internalType": "address",
          "name": "patient",
          "type": "address"
        }
      ],
      "name": "getPatientRecordIds",
      "outputs": [
        {
          "internalType": "uint256[]",
          "name": "",
          "type": "uint256[]"
        }
      ],
      "stateMutability": "view",
      "type": "function"
    },
    {
      "inputs": [
        {
          "internalType": "address",
          "name": "user",
          "type": "address"
        }
      ],
      "name": "getPendingRoleRequest",
      "outputs": [
        {
          "internalType": "bytes32",
          "name": "requestedRole",
          "type": "bytes32"
        },
        {
          "internalType": "uint256",
          "name": "timestamp",
          "type": "uint256"
        },
        {
          "internalType": "bool",
          "name": "isPending",
          "type": "bool"
        }
      ],
      "stateMutability": "view",
      "type": "function"
    },
    {
      "inputs": [
        {
          "internalType": "uint256",
          "name": "recordId",
          "type": "uint256"
        }
      ],
      "name": "getRecordDetails",
      "outputs": [
        {
          "internalType": "string",
          "name": "ipfsHash",
          "type": "string"
        },
        {
          "internalType": "address",
          "name": "owner",
          "type": "address"
        },
        {
          "internalType": "uint256",
          "name": "timestamp",
          "type": "uint256"
        },
        {
          "internalType": "bool",
          "name": "isEncrypted",
          "type": "bool"
        },
        {
          "internalType": "enum MedicalRecord.Category",
          "name": "category",
          "type": "uint8"
        },
        {
          "internalType": "string[]",
          "name": "tags",
          "type": "string[]"
        }
      ],
      "stateMutability": "view",
      "type": "function"
    },
    {
      "inputs": [
        {
          "internalType": "enum MedicalRecord.Category",
          "name": "category",
          "type": "uint8"
        }
      ],
      "name": "getRecordsByCategory",
      "outputs": [
        {
          "internalType": "uint256[]",
          "name": "",
          "type": "uint256[]"
        }
      ],
      "stateMutability": "view",
      "type": "function"
    },
    {
      "inputs": [
        {
          "internalType": "bytes32",
          "name": "role",
          "type": "bytes32"
        }
      ],
      "name": "getRoleAdmin",
      "outputs": [
        {
          "internalType": "bytes32",
          "name": "",
          "type": "bytes32"
        }
      ],
      "stateMutability": "view",
      "type": "function"
    },
    {
      "inputs": [
        {
          "internalType": "uint256",
          "name": "_recordId",
          "type": "uint256"
        }
      ],
      "name": "getSharedAddresses",
      "outputs": [
        {
          "internalType": "address[]",
          "name": "",
          "type": "address[]"
        }
      ],
      "stateMutability": "view",
      "type": "function"
    },
    {
      "inputs": [
        {
          "internalType": "address",
          "name": "_address",
          "type": "address"
        }
      ],
      "name": "getSharedWithMeRecords",
      "outputs": [
        {
          "internalType": "uint256[]",
          "name": "",
          "type": "uint256[]"
        }
      ],
      "stateMutability": "view",
      "type": "function"
    },
    {
      "inputs": [
        {
          "internalType": "address",
          "name": "user",
          "type": "address"
        }
      ],
      "name": "getUserProfile",
      "outputs": [
        {
          "internalType": "string",
          "name": "name",
          "type": "string"
        },
        {
          "internalType": "string",
          "name": "specialization",
          "type": "string"
        },
        {
          "internalType": "string",
          "name": "institution",
          "type": "string"
        },
        {
          "internalType": "bool",
          "name": "isVerified",
          "type": "bool"
        },
        {
          "internalType": "uint256",
          "name": "verificationTimestamp",
          "type": "uint256"
        }
      ],
      "stateMutability": "view",
      "type": "function"
    },
    {
      "inputs": [
        {
          "internalType": "uint256",
          "name": "_recordId",
          "type": "uint256"
        },
        {
          "internalType": "address",
          "name": "_to",
          "type": "address"
        }
      ],
      "name": "grantAccess",
      "outputs": [],
      "stateMutability": "nonpayable",
      "type": "function"
    },
    {
      "inputs": [
        {
          "internalType": "uint256",
          "name": "_recordId",
          "type": "uint256"
        },
        {
          "internalType": "address",
          "name": "_emergencyContact",
          "type": "address"
        },
        {
          "internalType": "uint256",
          "name": "_durationInHours",
          "type": "uint256"
        }
      ],
      "name": "grantEmergencyAccess",
      "outputs": [],
      "stateMutability": "nonpayable",
      "type": "function"
    },
    {
      "inputs": [
        {
          "internalType": "bytes32",
          "name": "role",
          "type": "bytes32"
        },
        {
          "internalType": "address",
          "name": "account",
          "type": "address"
        }
      ],
      "name": "grantRole",
      "outputs": [],
      "stateMutability": "nonpayable",
      "type": "function"
    },
    {
      "inputs": [
        {
          "internalType": "uint256",
          "name": "_recordId",
          "type": "uint256"
        },
        {
          "internalType": "bytes32",
          "name": "_role",
          "type": "bytes32"
        }
      ],
      "name": "grantRoleAccess",
      "outputs": [],
      "stateMutability": "nonpayable",
      "type": "function"
    },
    {
      "inputs": [
        {
          "internalType": "uint256",
          "name": "recordId",
          "type": "uint256"
        },
        {
          "internalType": "address",
          "name": "requester",
          "type": "address"
        }
      ],
      "name": "hasAccess",
      "outputs": [
        {
          "internalType": "bool",
          "name": "",
          "type": "bool"
        }
      ],
      "stateMutability": "view",
      "type": "function"
    },
    {
      "inputs": [
        {
          "internalType": "uint256",
          "name": "_recordId",
          "type": "uint256"
        },
        {
          "internalType": "address",
          "name": "_requester",
          "type": "address"
        }
      ],
      "name": "hasEmergencyAccess",
      "outputs": [
        {
          "internalType": "bool",
          "name": "",
          "type": "bool"
        }
      ],
      "stateMutability": "view",
      "type": "function"
    },
    {
      "inputs": [
        {
          "internalType": "bytes32",
          "name": "role",
          "type": "bytes32"
        },
        {
          "internalType": "address",
          "name": "account",
          "type": "address"
        }
      ],
      "name": "hasRole",
      "outputs": [
        {
          "internalType": "bool",
          "name": "",
          "type": "bool"
        }
      ],
      "stateMutability": "view",
      "type": "function"
    },
    {
      "inputs": [
        {
          "internalType": "uint256",
          "name": "_recordId",
          "type": "uint256"
        },
        {
          "internalType": "bytes32",
          "name": "_role",
          "type": "bytes32"
        }
      ],
      "name": "hasRoleAccess",
      "outputs": [
        {
          "internalType": "bool",
          "name": "",
          "type": "bool"
        }
      ],
      "stateMutability": "view",
      "type": "function"
    },
    {
      "inputs": [
        {
          "internalType": "address",
          "name": "owner",
          "type": "address"
        },
        {
          "internalType": "address",
          "name": "operator",
          "type": "address"
        }
      ],
      "name": "isApprovedForAll",
      "outputs": [
        {
          "internalType": "bool",
          "name": "",
          "type": "bool"
        }
      ],
      "stateMutability": "view",
      "type": "function"
    },
    {
      "inputs": [],
      "name": "name",
      "outputs": [
        {
          "internalType": "string",
          "name": "",
          "type": "string"
        }
      ],
      "stateMutability": "view",
      "type": "function"
    },
    {
      "inputs": [],
      "name": "owner",
      "outputs": [
        {
          "internalType": "address",
          "name": "",
          "type": "address"
        }
      ],
      "stateMutability": "view",
      "type": "function"
    },
    {
      "inputs": [
        {
          "internalType": "uint256",
          "name": "tokenId",
          "type": "uint256"
        }
      ],
      "name": "ownerOf",
      "outputs": [
        {
          "internalType": "address",
          "name": "",
          "type": "address"
        }
      ],
      "stateMutability": "view",
      "type": "function"
    },
    {
      "inputs": [
        {
          "internalType": "address",
          "name": "",
          "type": "address"
        },
        {
          "internalType": "uint256",
          "name": "",
          "type": "uint256"
        }
      ],
      "name": "patientRecords",
      "outputs": [
        {
          "internalType": "uint256",
          "name": "",
          "type": "uint256"
        }
      ],
      "stateMutability": "view",
      "type": "function"
    },
    {
      "inputs": [
        {
          "internalType": "address",
          "name": "requester",
          "type": "address"
        },
        {
          "internalType": "bool",
          "name": "approved",
          "type": "bool"
        }
      ],
      "name": "processRoleChangeRequest",
      "outputs": [],
      "stateMutability": "nonpayable",
      "type": "function"
    },
    {
      "inputs": [
        {
          "internalType": "uint256",
          "name": "recordId",
          "type": "uint256"
        }
      ],
      "name": "recordExists",
      "outputs": [
        {
          "internalType": "bool",
          "name": "",
          "type": "bool"
        }
      ],
      "stateMutability": "view",
      "type": "function"
    },
    {
      "inputs": [
        {
          "internalType": "uint256",
          "name": "",
          "type": "uint256"
        }
      ],
      "name": "records",
      "outputs": [
        {
          "internalType": "string",
          "name": "ipfsHash",
          "type": "string"
        },
        {
          "internalType": "address",
          "name": "owner",
          "type": "address"
        },
        {
          "internalType": "uint256",
          "name": "timestamp",
          "type": "uint256"
        },
        {
          "internalType": "bool",
          "name": "isEncrypted",
          "type": "bool"
        },
        {
          "internalType": "bool",
          "name": "exists",
          "type": "bool"
        },
        {
          "internalType": "enum MedicalRecord.Category",
          "name": "category",
          "type": "uint8"
        }
      ],
      "stateMutability": "view",
      "type": "function"
    },
    {
      "inputs": [],
      "name": "renounceOwnership",
      "outputs": [],
      "stateMutability": "nonpayable",
      "type": "function"
    },
    {
      "inputs": [
        {
          "internalType": "bytes32",
          "name": "role",
          "type": "bytes32"
        },
        {
          "internalType": "address",
          "name": "account",
          "type": "address"
        }
      ],
      "name": "renounceRole",
      "outputs": [],
      "stateMutability": "nonpayable",
      "type": "function"
    },
    {
      "inputs": [
        {
          "internalType": "bytes32",
          "name": "requestedRole",
          "type": "bytes32"
        }
      ],
      "name": "requestRoleChange",
      "outputs": [],
      "stateMutability": "nonpayable",
      "type": "function"
    },
    {
      "inputs": [
        {
          "internalType": "uint256",
          "name": "_recordId",
          "type": "uint256"
        },
        {
          "internalType": "address",
          "name": "_from",
          "type": "address"
        }
      ],
      "name": "revokeAccess",
      "outputs": [],
      "stateMutability": "nonpayable",
      "type": "function"
    },
    {
      "inputs": [
        {
          "internalType": "uint256",
          "name": "_recordId",
          "type": "uint256"
        },
        {
          "internalType": "address",
          "name": "_emergencyContact",
          "type": "address"
        }
      ],
      "name": "revokeEmergencyAccess",
      "outputs": [],
      "stateMutability": "nonpayable",
      "type": "function"
    },
    {
      "inputs": [
        {
          "internalType": "bytes32",
          "name": "role",
          "type": "bytes32"
        },
        {
          "internalType": "address",
          "name": "account",
          "type": "address"
        }
      ],
      "name": "revokeRole",
      "outputs": [],
      "stateMutability": "nonpayable",
      "type": "function"
    },
    {
      "inputs": [
        {
          "internalType": "address",
          "name": "",
          "type": "address"
        }
      ],
      "name": "roleChangeRequests",
      "outputs": [
        {
          "internalType": "address",
          "name": "requester",
          "type": "address"
        },
        {
          "internalType": "bytes32",
          "name": "requestedRole",
          "type": "bytes32"
        },
        {
          "internalType": "uint256",
          "name": "timestamp",
          "type": "uint256"
        },
        {
          "internalType": "bool",
          "name": "isPending",
          "type": "bool"
        }
      ],
      "stateMutability": "view",
      "type": "function"
    },
    {
      "inputs": [
        {
          "internalType": "address",
          "name": "from",
          "type": "address"
        },
        {
          "internalType": "address",
          "name": "to",
          "type": "address"
        },
        {
          "internalType": "uint256",
          "name": "tokenId",
          "type": "uint256"
        }
      ],
      "name": "safeTransferFrom",
      "outputs": [],
      "stateMutability": "nonpayable",
      "type": "function"
    },
    {
      "inputs": [
        {
          "internalType": "address",
          "name": "from",
          "type": "address"
        },
        {
          "internalType": "address",
          "name": "to",
          "type": "address"
        },
        {
          "internalType": "uint256",
          "name": "tokenId",
          "type": "uint256"
        },
        {
          "internalType": "bytes",
          "name": "data",
          "type": "bytes"
        }
      ],
      "name": "safeTransferFrom",
      "outputs": [],
      "stateMutability": "nonpayable",
      "type": "function"
    },
    {
      "inputs": [
        {
          "internalType": "string",
          "name": "tag",
          "type": "string"
        }
      ],
      "name": "searchRecordsByTag",
      "outputs": [
        {
          "internalType": "uint256[]",
          "name": "",
          "type": "uint256[]"
        }
      ],
      "stateMutability": "view",
      "type": "function"
    },
    {
      "inputs": [
        {
          "internalType": "address",
          "name": "operator",
          "type": "address"
        },
        {
          "internalType": "bool",
          "name": "approved",
          "type": "bool"
        }
      ],
      "name": "setApprovalForAll",
      "outputs": [],
      "stateMutability": "nonpayable",
      "type": "function"
    },
    {
      "inputs": [
        {
          "internalType": "bytes4",
          "name": "interfaceId",
          "type": "bytes4"
        }
      ],
      "name": "supportsInterface",
      "outputs": [
        {
          "internalType": "bool",
          "name": "",
          "type": "bool"
        }
      ],
      "stateMutability": "view",
      "type": "function"
    },
    {
      "inputs": [],
      "name": "symbol",
      "outputs": [
        {
          "internalType": "string",
          "name": "",
          "type": "string"
        }
      ],
      "stateMutability": "view",
      "type": "function"
    },
    {
      "inputs": [
        {
          "internalType": "uint256",
          "name": "tokenId",
          "type": "uint256"
        }
      ],
      "name": "tokenURI",
      "outputs": [
        {
          "internalType": "string",
          "name": "",
          "type": "string"
        }
      ],
      "stateMutability": "view",
      "type": "function"
    },
    {
      "inputs": [
        {
          "internalType": "address",
          "name": "from",
          "type": "address"
        },
        {
          "internalType": "address",
          "name": "to",
          "type": "address"
        },
        {
          "internalType": "uint256",
          "name": "tokenId",
          "type": "uint256"
        }
      ],
      "name": "transferFrom",
      "outputs": [],
      "stateMutability": "nonpayable",
      "type": "function"
    },
    {
      "inputs": [
        {
          "internalType": "address",
          "name": "newOwner",
          "type": "address"
        }
      ],
      "name": "transferOwnership",
      "outputs": [],
      "stateMutability": "nonpayable",
      "type": "function"
    },
    {
      "inputs": [
        {
          "internalType": "uint256",
          "name": "recordId",
          "type": "uint256"
        },
        {
          "internalType": "string[]",
          "name": "newTags",
          "type": "string[]"
        }
      ],
      "name": "updateTags",
      "outputs": [],
      "stateMutability": "nonpayable",
      "type": "function"
    },
    {
      "inputs": [
        {
          "internalType": "string",
          "name": "name",
          "type": "string"
        },
        {
          "internalType": "string",
          "name": "specialization",
          "type": "string"
        },
        {
          "internalType": "string",
          "name": "institution",
          "type": "string"
        }
      ],
      "name": "updateUserProfile",
      "outputs": [],
      "stateMutability": "nonpayable",
      "type": "function"
    },
    {
      "inputs": [
        {
          "internalType": "address",
          "name": "",
          "type": "address"
        }
      ],
      "name": "userProfiles",
      "outputs": [
        {
          "internalType": "string",
          "name": "name",
          "type": "string"
        },
        {
          "internalType": "string",
          "name": "specialization",
          "type": "string"
        },
        {
          "internalType": "string",
          "name": "institution",
          "type": "string"
        },
        {
          "internalType": "bool",
          "name": "isVerified",
          "type": "bool"
        },
        {
          "internalType": "uint256",
          "name": "verificationTimestamp",
          "type": "uint256"
        }
      ],
      "stateMutability": "view",
      "type": "function"
    },
    {
      "inputs": [
        {
          "internalType": "address",
          "name": "user",
          "type": "address"
        }
      ],
      "name": "verifyUser",
      "outputs": [],
      "stateMutability": "nonpayable",
      "type": "function"
    }
  ],
  "bytecode": "0x60806040523480156200001157600080fd5b506040518060400160405280600d81526020016c1359591a58d85b149958dbdc99609a1b815250604051806040016040528060048152602001634d52454360e01b815250816000908162000066919062000285565b50600162000075828262000285565b505050620000926200008c620000d660201b60201c565b620000da565b6001600755620000a46000336200012c565b620000d07fa49807205ce4d355092ef5a8a18f56e8913cf4a201fbe287825b095693c21775336200012c565b62000351565b3390565b600680546001600160a01b038381166001600160a01b0319831681179093556040519116919082907f8be0079c531659141344cd1fd0a4f28419497f9722a3daafe3b4186f6b6457e090600090a35050565b6200013882826200013c565b5050565b60008281526008602090815260408083206001600160a01b038516845290915290205460ff16620001385760008281526008602090815260408083206001600160a01b03851684529091529020805460ff191660011790556200019c3390565b6001600160a01b0316816001600160a01b0316837f2f8788117e7eff1d82e926ec794901d17c78024a50270940304540a733656f0d60405160405180910390a45050565b634e487b7160e01b600052604160045260246000fd5b600181811c908216806200020b57607f821691505b6020821081036200022c57634e487b7160e01b600052602260045260246000fd5b50919050565b601f8211156200028057600081815260208120601f850160051c810160208610156200025b5750805b601f850160051c820191505b818110156200027c5782815560010162000267565b5050505b505050565b81516001600160401b03811115620002a157620002a1620001e0565b620002b981620002b28454620001f6565b8462000232565b602080601f831160018114620002f15760008415620002d85750858301515b600019600386901b1c1916600185901b1785556200027c565b600085815260208120601f198616915b82811015620003225788860151825594840194600190910190840162000301565b5085821015620003415787850151600019600388901b60f8161c191681555b5050505050600190811b01905550565b61472180620003616000396000f3fe608060405234801561001057600080fd5b506004361061035d5760003560e01c806375b238fc116101d3578063bace029011610104578063d9a5ec1b116100a2578063f51590241161007c578063f51590241461089d578063fdcd5829146108f9578063fdffba0e1461090c578063fec331f21461093757600080fd5b8063d9a5ec1b1461083b578063e985e9c51461084e578063f2fde38b1461088a57600080fd5b8063cbdf8abb116100de578063cbdf8abb146107dd578063ced14198146107f0578063d547741f14610803578063d8c086731461081657600080fd5b8063bace029014610770578063c08c5e8314610783578063c87b56dd146107ca57600080fd5b8063987ee15611610171578063a7c81a011161014b578063a7c81a0114610722578063ac5cb97d14610735578063b547236a1461074a578063b88d4fde1461075d57600080fd5b8063987ee156146106f4578063a217fddf14610707578063a22cb4651461070f57600080fd5b80638da5cb5b116101ad5780638da5cb5b146106b557806391d14854146106c657806394f0df61146106d957806395d89b41146106ec57600080fd5b806375b238fc1461061f5780638335c196146106345780638adf19a41461064757600080fd5b80633640e8dd116102ad5780635b0402941161024b5780636352211e116102255780636352211e146105de57806365dd152c146105f157806370a0823114610604578063715018a61461061757600080fd5b80635b040294146105a557806361aaee92146105b85780636248204e146105cb57600080fd5b806342842e0e1161028757806342842e0e1461054557806347d427f4146105585780634d8131201461056b57806350f2aab31461057e57600080fd5b80633640e8dd146104e557806336568abe146104f85780633fb5b1f11461050b57600080fd5b806323b872dd1161031a5780632c1d977c116102f45780632c1d977c146104695780632f2ff15d14610489578063332d56d71461049c57806334461067146104c057600080fd5b806323b872dd14610412578063248a9ca3146104255780632b410c371461045657600080fd5b806301ffc9a71461036257806306fdde031461038a578063081812fc1461039f578063095ea7b3146103ca5780630c6510e0146103df57806316b54108146103f2575b600080fd5b610375610370366004613a68565b61094c565b60405190151581526020015b60405180910390f35b61039261095d565b6040516103819190613ad5565b6103b26103ad366004613ae8565b6109ef565b6040516001600160a01b039091168152602001610381565b6103dd6103d8366004613b1d565b610a16565b005b6103dd6103ed366004613b47565b610b30565b610405610400366004613b7c565b610cc5565b6040516103819190613b97565b6103dd610420366004613bdb565b610d31565b610448610433366004613ae8565b60009081526008602052604090206001015490565b604051908152602001610381565b6103dd610464366004613ae8565b610d62565b61047c610477366004613ae8565b610f60565b6040516103819190613c07565b6103dd610497366004613c48565b611032565b6104af6104aa366004613b7c565b6110b7565b604051610381959493929190613c74565b6104d36104ce366004613ae8565b611281565b60405161038196959493929190613cfa565b6104056104f3366004613d5c565b611352565b6103dd610506366004613c48565b6113e9565b61051e610519366004613c48565b611467565b604080516001600160a01b0390941684526020840192909252151590820152606001610381565b6103dd610553366004613bdb565b6114f9565b610375610566366004613d77565b611514565b6103dd610579366004613b7c565b61155f565b6104487f7765bfe615aab9fb9a16bd4c5c9b353f39dae79ca7da86094b0a74ea8a89e59a81565b6103dd6105b3366004613d77565b6115c2565b6104056105c6366004613e58565b611652565b6104056105d9366004613b7c565b61183b565b6103b26105ec366004613ae8565b6118a5565b6103dd6105ff366004613c48565b611905565b610448610612366004613b7c565b611bd1565b6103dd611c57565b6104486000805160206146cc83398151915281565b6103dd610642366004613f3c565b611c6b565b610689610655366004613b7c565b60146020526000908152604090208054600182015460028301546003909301546001600160a01b0390921692909160ff1684565b604080516001600160a01b03909516855260208501939093529183015215156060820152608001610381565b6006546001600160a01b03166103b2565b6103756106d4366004613c48565b611f7c565b6104486106e7366004613b1d565b611fa7565b610392611fd8565b6104af610702366004613b7c565b611fe7565b610448600081565b6103dd61071d366004613fc1565b6121df565b6103dd610730366004613feb565b6121ea565b61044860008051602061468c83398151915281565b610375610758366004613c48565b612500565b6103dd61076b366004614032565b61258e565b6103dd61077e3660046140a2565b6125c6565b61051e610791366004613c48565b600c6020908152600092835260408084209091529082529020805460018201546002909201546001600160a01b03909116919060ff1683565b6103926107d8366004613ae8565b61267c565b6103dd6107eb366004613fc1565b6126f0565b6103756107fe366004613c48565b6127f0565b6103dd610811366004613c48565b612842565b610829610824366004613ae8565b6128bf565b6040516103819695949392919061417f565b6103dd610849366004613c48565b612b15565b61037561085c3660046141dc565b6001600160a01b03918216600090815260056020908152604080832093909416825291909152205460ff1690565b6103dd610898366004613b7c565b612e68565b6108dc6108ab366004613b7c565b6001600160a01b0316600090815260146020526040902060018101546002820154600390920154909260ff90911690565b604080519384526020840192909252151590820152606001610381565b6103dd610907366004613c48565b612ee1565b61037561091a366004613ae8565b6000908152600a6020526040902060030154610100900460ff1690565b6104486000805160206146ac83398151915281565b600061095782613020565b92915050565b60606000805461096c90614206565b80601f016020809104026020016040519081016040528092919081815260200182805461099890614206565b80156109e55780601f106109ba576101008083540402835291602001916109e5565b820191906000526020600020905b8154815290600101906020018083116109c857829003601f168201915b5050505050905090565b60006109fa82613045565b506000908152600460205260409020546001600160a01b031690565b6000610a21826118a5565b9050806001600160a01b0316836001600160a01b031603610a935760405162461bcd60e51b815260206004820152602160248201527f4552433732313a20617070726f76616c20746f2063757272656e74206f776e656044820152603960f91b60648201526084015b60405180910390fd5b336001600160a01b0382161480610aaf5750610aaf813361085c565b610b215760405162461bcd60e51b815260206004820152603d60248201527f4552433732313a20617070726f76652063616c6c6572206973206e6f7420746f60448201527f6b656e206f776e6572206f7220617070726f76656420666f7220616c6c0000006064820152608401610a8a565b610b2b83836130a4565b505050565b6000838152600a6020526040902060030154610100900460ff16610b665760405162461bcd60e51b8152600401610a8a90614240565b6001600160a01b038216610bc65760405162461bcd60e51b815260206004820152602160248201527f496e76616c696420656d657267656e637920636f6e74616374206164647265736044820152607360f81b6064820152608401610a8a565b33610bd0846118a5565b6001600160a01b031614610bf65760405162461bcd60e51b8152600401610a8a9061426f565b6000610c0482610e106142bc565b610c0e90426142d3565b60408051606080820183526001600160a01b038781168084526020808501878152600186880181815260008e8152600c85528981208682528552899020975188546001600160a01b031916961695909517875590519086015591516002909401805460ff1916941515949094179093558351898152908101929092529181018390529192507f950cb26ce135bf8b7863126f9c1069eb87671da694b534b73338302ee22fbc9f91015b60405180910390a150505050565b6001600160a01b038116600090815260106020908152604091829020805483518184028101840190945280845260609392830182828015610d2557602002820191906000526020600020905b815481526020019060010190808311610d11575b50505050509050919050565b610d3b3382613112565b610d575760405162461bcd60e51b8152600401610a8a906142e6565b610b2b838383613190565b60008051602061468c833981519152811480610d8b57506000805160206146ac83398151915281145b80610db557507f7765bfe615aab9fb9a16bd4c5c9b353f39dae79ca7da86094b0a74ea8a89e59a81145b80610dcd57506000805160206146cc83398151915281145b610e125760405162461bcd60e51b8152602060048201526016602482015275125b9d985b1a59081c9bdb19481c995c5d595cdd195960521b6044820152606401610a8a565b610e1c8133611f7c565b15610e615760405162461bcd60e51b8152602060048201526015602482015274416c726561647920686173207468697320726f6c6560581b6044820152606401610a8a565b3360009081526014602052604090206003015460ff1615610ec45760405162461bcd60e51b815260206004820152601d60248201527f416c72656164792068617320612070656e64696e6720726571756573740000006044820152606401610a8a565b604080516080810182523380825260208083018581524284860190815260016060860181815260008681526014909552878520965187546001600160a01b0319166001600160a01b03909116178755925190860155516002850155516003909301805460ff19169315159390931790925591518392917f7b023f11640258227df7a33a31de27ad1282cee572fec33f3cac78af43d4a57f91a350565b6000818152600a6020526040902060030154606090610100900460ff16610f995760405162461bcd60e51b8152600401610a8a90614240565b33610fa3836118a5565b6001600160a01b031614610fc95760405162461bcd60e51b8152600401610a8a9061426f565b60008281526011602090815260409182902080548351818402810184019094528084529091830182828015610d2557602002820191906000526020600020905b81546001600160a01b031681526001909101906020018083116110095750505050509050919050565b61104a6000805160206146cc83398151915233611f7c565b6110665760405162461bcd60e51b8152600401610a8a90614333565b61107082826132f4565b604080516001600160a01b0383168152602081018490527fcf7afa953eac742fc7c2e2985cce7875d0ff3b2e3952b4526a780c7777bbe9af91015b60405180910390a15050565b600d602052600090815260409020805481906110d290614206565b80601f01602080910402602001604051908101604052809291908181526020018280546110fe90614206565b801561114b5780601f106111205761010080835404028352916020019161114b565b820191906000526020600020905b81548152906001019060200180831161112e57829003601f168201915b50505050509080600101805461116090614206565b80601f016020809104026020016040519081016040528092919081815260200182805461118c90614206565b80156111d95780601f106111ae576101008083540402835291602001916111d9565b820191906000526020600020905b8154815290600101906020018083116111bc57829003601f168201915b5050505050908060020180546111ee90614206565b80601f016020809104026020016040519081016040528092919081815260200182805461121a90614206565b80156112675780601f1061123c57610100808354040283529160200191611267565b820191906000526020600020905b81548152906001019060200180831161124a57829003601f168201915b505050506003830154600490930154919260ff1691905085565b600a6020526000908152604090208054819061129c90614206565b80601f01602080910402602001604051908101604052809291908181526020018280546112c890614206565b80156113155780601f106112ea57610100808354040283529160200191611315565b820191906000526020600020905b8154815290600101906020018083116112f857829003601f168201915b5050506001840154600285015460039095015493946001600160a01b039091169390925060ff808216925061010082048116916201000090041686565b33600090815260126020526040812060609183600881111561137657611376613cc2565b600881111561138757611387613cc2565b8152602001908152602001600020805480602002602001604051908101604052809291908181526020018280548015610d255760200282019190600052602060002090815481526020019060010190808311610d115750505050509050919050565b6001600160a01b03811633146114595760405162461bcd60e51b815260206004820152602f60248201527f416363657373436f6e74726f6c3a2063616e206f6e6c792072656e6f756e636560448201526e103937b632b9903337b91039b2b63360891b6064820152608401610a8a565b611463828261337a565b5050565b6000828152600a602052604081206003015481908190610100900460ff166114a15760405162461bcd60e51b8152600401610a8a90614240565b5050506000918252600c602090815260408084206001600160a01b03938416855282529283902083516060810185528154909316808452600182015492840183905260029091015460ff161515929093018290529192565b610b2b8383836040518060200160405280600081525061258e565b6000828152600a6020526040812060030154610100900460ff1661153a57506000610957565b506000918252600a602090815260408084209284526007909201905290205460ff1690565b6115776000805160206146cc83398151915233611f7c565b6115935760405162461bcd60e51b8152600401610a8a90614333565b6001600160a01b03166000908152600d6020526040902060038101805460ff1916600117905542600490910155565b6000828152600a6020526040902060030154610100900460ff166115f85760405162461bcd60e51b8152600401610a8a90614240565b33611602836118a5565b6001600160a01b0316146116285760405162461bcd60e51b8152600401610a8a9061426f565b6000918252600a60209081526040808420928452600790920190529020805460ff19166001179055565b606060006013836040516116669190614363565b90815260408051918290036020908101832080548083028501830190935282845291908301828280156116b857602002820191906000526020600020905b8154815260200190600101908083116116a4575b505050505090506000805b825181101561173857336001600160a01b0316600a60008584815181106116ec576116ec61437f565b6020908102919091018101518252810191909152604001600020600101546001600160a01b031603611726578161172281614395565b9250505b8061173081614395565b9150506116c3565b5060008167ffffffffffffffff81111561175457611754613d99565b60405190808252806020026020018201604052801561177d578160200160208202803683370190505b5090506000805b845181101561183057336001600160a01b0316600a60008784815181106117ad576117ad61437f565b6020908102919091018101518252810191909152604001600020600101546001600160a01b03160361181e578481815181106117eb576117eb61437f565b60200260200101518383815181106118055761180561437f565b60209081029190910101528161181a81614395565b9250505b8061182881614395565b915050611784565b509095945050505050565b6001600160a01b0381166000908152600b6020908152604091829020805483518184028101840190945280845260609392830182828015610d255760200282019190600052602060002090815481526020019060010190808311610d115750505050509050919050565b6000818152600260205260408120546001600160a01b0316806109575760405162461bcd60e51b8152602060048201526018602482015277115490cdcc8c4e881a5b9d985b1a59081d1bdad95b88125160421b6044820152606401610a8a565b6000828152600a6020526040902060030154610100900460ff1661193b5760405162461bcd60e51b8152600401610a8a90614240565b6001600160a01b0381166119835760405162461bcd60e51b815260206004820152600f60248201526e496e76616c6964206164647265737360881b6044820152606401610a8a565b336001600160a01b038216036119db5760405162461bcd60e51b815260206004820152601f60248201527f43616e6e6f74206772616e742061636365737320746f20796f757273656c66006044820152606401610a8a565b336119e5836118a5565b6001600160a01b031614611a0b5760405162461bcd60e51b8152600401610a8a9061426f565b6000828152600f602090815260408083206001600160a01b038516845290915290205460ff1615611a775760405162461bcd60e51b81526020600482015260166024820152751058d8d95cdcc8185b1c9958591e4819dc985b9d195960521b6044820152606401610a8a565b611a8f6000805160206146ac83398151915282611f7c565b80611abf5750611abf7f7765bfe615aab9fb9a16bd4c5c9b353f39dae79ca7da86094b0a74ea8a89e59a82611f7c565b80611add5750611add60008051602061468c83398151915282611f7c565b611b295760405162461bcd60e51b815260206004820181905260248201527f526563697069656e74206d757374206861766520612076616c696420726f6c656044820152606401610a8a565b6000828152600f602090815260408083206001600160a01b038516808552908352818420805460ff19166001908117909155601084528285208054808301825590865284862001879055868552601184528285208054918201815585529383902090930180546001600160a01b031916841790558051858152918201929092527f3c3a9147a1fc73dd51a32f4d10c43d457e8cb826eb6f35cac6349eb965ba82b491016110ab565b60006001600160a01b038216611c3b5760405162461bcd60e51b815260206004820152602960248201527f4552433732313a2061646472657373207a65726f206973206e6f7420612076616044820152683634b21037bbb732b960b91b6064820152608401610a8a565b506001600160a01b031660009081526003602052604090205490565b611c5f6133e1565b611c69600061343b565b565b611c8360008051602061468c83398151915233611f7c565b80611ca15750611ca16000805160206146ac83398151915233611f7c565b611d025760405162461bcd60e51b815260206004820152602c60248201527f4f6e6c792070617469656e747320616e6420646f63746f72732063616e20637260448201526b65617465207265636f72647360a01b6064820152608401610a8a565b6000845111611d475760405162461bcd60e51b8152602060048201526011602482015270092dcecc2d8d2c84092a08ca640d0c2e6d607b1b6044820152606401610a8a565b611d55600980546001019055565b6000611d6060095490565b6000818152600a6020526040902090915080611d7c87826143fc565b506001810180546001600160a01b0319163317905542600282015560038101805461ff00198715151661ffff19909116176101001780825585919062ff0000191662010000836008811115611dd357611dd3613cc2565b021790555060005b8351811015611e835781600401848281518110611dfa57611dfa61437f565b60209081029190910181015182546001810184556000938452919092200190611e2390826143fc565b506013848281518110611e3857611e3861437f565b6020026020010151604051611e4d9190614363565b90815260405160209181900382019020805460018101825560009182529190200183905580611e7b81614395565b915050611ddb565b5033600090815260126020526040812090856008811115611ea657611ea6613cc2565b6008811115611eb757611eb7613cc2565b8152602080820192909252604090810160009081208054600181810183559183528483200186905533808352600b855292822080548083018255908352938220909301859055600e8054938401815590527fbb7b4a454dc3493923482f07822329ed19e8244eff582cc204f8554c3620c3fd909101839055611f39908361348d565b7f107736fec5bf0ecfe95025e33380c86b21f8a3ceb3799a0be620979e7505857f823386604051611f6c939291906144bc565b60405180910390a1505050505050565b60009182526008602090815260408084206001600160a01b0393909316845291905290205460ff1690565b600b6020528160005260406000208181548110611fc357600080fd5b90600052602060002001600091509150505481565b60606001805461096c90614206565b6001600160a01b0381166000908152600d602052604081206003810154600482015482546060948594859491938493919283926001840192600285019260ff1691859061203390614206565b80601f016020809104026020016040519081016040528092919081815260200182805461205f90614206565b80156120ac5780601f10612081576101008083540402835291602001916120ac565b820191906000526020600020905b81548152906001019060200180831161208f57829003601f168201915b505050505094508380546120bf90614206565b80601f01602080910402602001604051908101604052809291908181526020018280546120eb90614206565b80156121385780601f1061210d57610100808354040283529160200191612138565b820191906000526020600020905b81548152906001019060200180831161211b57829003601f168201915b5050505050935082805461214b90614206565b80601f016020809104026020016040519081016040528092919081815260200182805461217790614206565b80156121c45780601f10612199576101008083540402835291602001916121c4565b820191906000526020600020905b8154815290600101906020018083116121a757829003601f168201915b50505050509250955095509550955095505091939590929450565b611463338383613618565b6000828152600a6020526040902060030154610100900460ff166122205760405162461bcd60e51b8152600401610a8a90614240565b3361222a836118a5565b6001600160a01b0316146122505760405162461bcd60e51b8152600401610a8a9061426f565b6000828152600a60205260408120905b60048201548110156124075760008260040182815481106122835761228361437f565b90600052602060002001805461229890614206565b80601f01602080910402602001604051908101604052809291908181526020018280546122c490614206565b80156123115780601f106122e657610100808354040283529160200191612311565b820191906000526020600020905b8154815290600101906020018083116122f457829003601f168201915b50505050509050600060138260405161232a9190614363565b9081526020016040518091039020905060005b81548110156123f157868282815481106123595761235961437f565b9060005260206000200154036123df5781548290612379906001906144df565b815481106123895761238961437f565b90600052602060002001548282815481106123a6576123a661437f565b9060005260206000200181905550818054806123c4576123c46144f2565b600190038181906000526020600020016000905590556123f1565b806123e981614395565b91505061233d565b50505080806123ff90614395565b915050612260565b506124166004820160006139cd565b60005b82518110156124c157816004018382815181106124385761243861437f565b6020908102919091018101518254600181018455600093845291909220019061246190826143fc565b5060138382815181106124765761247661437f565b602002602001015160405161248b9190614363565b908152604051602091819003820190208054600181018255600091825291902001849055806124b981614395565b915050612419565b507f1ec4c1ffa8337f540f543c894b49ff569d0f0e1f6f0401b1d853712087c9d4c583836040516124f3929190614508565b60405180910390a1505050565b6000828152600a6020526040812060030154610100900460ff1661252657506000610957565b6000838152600c602090815260408083206001600160a01b0380871685529083529281902081516060810183528154909416845260018101549284019290925260029091015460ff16158015918301829052612586575080602001514211155b949350505050565b6125983383613112565b6125b45760405162461bcd60e51b8152600401610a8a906142e6565b6125c0848484846136de565b50505050565b600083511161260e5760405162461bcd60e51b81526020600482015260146024820152734e616d652063616e6e6f7420626520656d70747960601b6044820152606401610a8a565b336000908152600d602052604090208061262885826143fc565b506001810161263784826143fc565b506002810161264683826143fc565b507f198eb8de772c5a42c31d10ea779636d74f5a7cd2633012f88632697fae910db433858585604051610cb79493929190614521565b606061268782613045565b600061269e60408051602081019091526000815290565b905060008151116126be57604051806020016040528060008152506126e9565b806126c884613711565b6040516020016126d992919061456b565b6040516020818303038152906040525b9392505050565b6127086000805160206146cc83398151915233611f7c565b6127245760405162461bcd60e51b8152600401610a8a90614333565b6001600160a01b0382166000908152601460205260409020600381015460ff166127855760405162461bcd60e51b8152602060048201526012602482015271139bc81c195b991a5b99c81c995c5d595cdd60721b6044820152606401610a8a565b8115612799576127998160010154846132f4565b60038101805460ff19169055600181015460405183151581526001600160a01b038516907f158bd253b4a522424b4351844552a2703c13216942a244938ecaa41d34f9ac50906020015b60405180910390a3505050565b6000828152600a6020526040812060030154610100900460ff1661281657506000610957565b506000918252600f602090815260408084206001600160a01b0393909316845291905290205460ff1690565b61285a6000805160206146cc83398151915233611f7c565b6128765760405162461bcd60e51b8152600401610a8a90614333565b612880828261337a565b604080516001600160a01b0383168152602081018490527fea83a7caef01824e96446a8c4bc8ff4669edd99e129b53e32c077f85d216808191016110ab565b606060008060008060606128eb876000908152600a602052604090206003015460ff6101009091041690565b6129075760405162461bcd60e51b8152600401610a8a90614240565b6000878152600a6020526040902060018101546001600160a01b031661296f5760405162461bcd60e51b815260206004820152601f60248201527f5265636f7264206e6f742070726f7065726c7920696e697469616c697a6564006044820152606401610a8a565b600181015460028201546003830154835484936001600160a01b0316929160ff80821692620100009092041690600486019086906129ac90614206565b80601f01602080910402602001604051908101604052809291908181526020018280546129d890614206565b8015612a255780601f106129fa57610100808354040283529160200191612a25565b820191906000526020600020905b815481529060010190602001808311612a0857829003601f168201915b5050505050955080805480602002602001604051908101604052809291908181526020016000905b82821015612af9578382906000526020600020018054612a6c90614206565b80601f0160208091040260200160405190810160405280929190818152602001828054612a9890614206565b8015612ae55780601f10612aba57610100808354040283529160200191612ae5565b820191906000526020600020905b815481529060010190602001808311612ac857829003601f168201915b505050505081526020019060010190612a4d565b5050505090509650965096509650965096505091939550919395565b6000828152600a6020526040902060030154610100900460ff16612b4b5760405162461bcd60e51b8152600401610a8a90614240565b6001600160a01b038116612b935760405162461bcd60e51b815260206004820152600f60248201526e496e76616c6964206164647265737360881b6044820152606401610a8a565b33612b9d836118a5565b6001600160a01b031614612bc35760405162461bcd60e51b8152600401610a8a9061426f565b6000828152600f602090815260408083206001600160a01b038516845290915290205460ff16612c2b5760405162461bcd60e51b81526020600482015260136024820152724e6f2061636365737320746f207265766f6b6560681b6044820152606401610a8a565b6000828152600f602090815260408083206001600160a01b03851684528252808320805460ff1916905560109091528120905b8154811015612d125783828281548110612c7a57612c7a61437f565b906000526020600020015403612d005781548290612c9a906001906144df565b81548110612caa57612caa61437f565b9060005260206000200154828281548110612cc757612cc761437f565b906000526020600020018190555081805480612ce557612ce56144f2565b60019003818190600052602060002001600090559055612d12565b80612d0a81614395565b915050612c5e565b506000838152601160205260408120905b8154811015612e2957836001600160a01b0316828281548110612d4857612d4861437f565b6000918252602090912001546001600160a01b031603612e175781548290612d72906001906144df565b81548110612d8257612d8261437f565b9060005260206000200160009054906101000a90046001600160a01b0316828281548110612db257612db261437f565b9060005260206000200160006101000a8154816001600160a01b0302191690836001600160a01b0316021790555081805480612df057612df06144f2565b600082815260209020810160001990810180546001600160a01b0319169055019055612e29565b80612e2181614395565b915050612d23565b50604080518581526001600160a01b03851660208201527f125883b94692baebecad9f111ed97ffa626523bbbadc6b0ef85ee1b56b9e52d59101610cb7565b612e706133e1565b6001600160a01b038116612ed55760405162461bcd60e51b815260206004820152602660248201527f4f776e61626c653a206e6577206f776e657220697320746865207a65726f206160448201526564647265737360d01b6064820152608401610a8a565b612ede8161343b565b50565b6000828152600a6020526040902060030154610100900460ff16612f175760405162461bcd60e51b8152600401610a8a90614240565b33612f21836118a5565b6001600160a01b031614612f475760405162461bcd60e51b8152600401610a8a9061426f565b6000828152600c602090815260408083206001600160a01b038516845290915290206002015460ff16612fbc5760405162461bcd60e51b815260206004820152601a60248201527f4e6f2061637469766520656d657267656e6379206163636573730000000000006044820152606401610a8a565b6000828152600c602090815260408083206001600160a01b03851680855290835292819020600201805460ff191690558051858152918201929092527f80ee26c128140dc5c04c3ce97037d466a7fbdd3c3894299a626cfa8c1f5bd47f91016110ab565b60006001600160e01b03198216637965db0b60e01b14806109575750610957826137a4565b6000818152600260205260409020546001600160a01b0316612ede5760405162461bcd60e51b8152602060048201526018602482015277115490cdcc8c4e881a5b9d985b1a59081d1bdad95b88125160421b6044820152606401610a8a565b600081815260046020526040902080546001600160a01b0319166001600160a01b03841690811790915581906130d9826118a5565b6001600160a01b03167f8c5be1e5ebec7d5bd14f71427d1e84f3dd0314c0f7b2291e5b200ac8c7c3b92560405160405180910390a45050565b60008061311e836118a5565b9050806001600160a01b0316846001600160a01b0316148061316557506001600160a01b0380821660009081526005602090815260408083209388168352929052205460ff165b806125865750836001600160a01b031661317e846109ef565b6001600160a01b031614949350505050565b826001600160a01b03166131a3826118a5565b6001600160a01b0316146131c95760405162461bcd60e51b8152600401610a8a9061459a565b6001600160a01b03821661322b5760405162461bcd60e51b8152602060048201526024808201527f4552433732313a207472616e7366657220746f20746865207a65726f206164646044820152637265737360e01b6064820152608401610a8a565b826001600160a01b031661323e826118a5565b6001600160a01b0316146132645760405162461bcd60e51b8152600401610a8a9061459a565b600081815260046020908152604080832080546001600160a01b03199081169091556001600160a01b0387811680865260038552838620805460001901905590871680865283862080546001019055868652600290945282852080549092168417909155905184937fddf252ad1be2c89b69c2b068fc378daa952ba7f163c4a11628f55a4df523b3ef91a4505050565b6132fe8282611f7c565b6114635760008281526008602090815260408083206001600160a01b03851684529091529020805460ff191660011790556133363390565b6001600160a01b0316816001600160a01b0316837f2f8788117e7eff1d82e926ec794901d17c78024a50270940304540a733656f0d60405160405180910390a45050565b6133848282611f7c565b156114635760008281526008602090815260408083206001600160a01b0385168085529252808320805460ff1916905551339285917ff6391f5c32d9c69d2a47ea670b442974b53935d1edc7fd64eb21e047a839171b9190a45050565b6006546001600160a01b03163314611c695760405162461bcd60e51b815260206004820181905260248201527f4f776e61626c653a2063616c6c6572206973206e6f7420746865206f776e65726044820152606401610a8a565b600680546001600160a01b038381166001600160a01b0319831681179093556040519116919082907f8be0079c531659141344cd1fd0a4f28419497f9722a3daafe3b4186f6b6457e090600090a35050565b6001600160a01b0382166134e35760405162461bcd60e51b815260206004820181905260248201527f4552433732313a206d696e7420746f20746865207a65726f20616464726573736044820152606401610a8a565b6000818152600260205260409020546001600160a01b0316156135485760405162461bcd60e51b815260206004820152601c60248201527f4552433732313a20746f6b656e20616c7265616479206d696e746564000000006044820152606401610a8a565b6000818152600260205260409020546001600160a01b0316156135ad5760405162461bcd60e51b815260206004820152601c60248201527f4552433732313a20746f6b656e20616c7265616479206d696e746564000000006044820152606401610a8a565b6001600160a01b038216600081815260036020908152604080832080546001019055848352600290915280822080546001600160a01b0319168417905551839291907fddf252ad1be2c89b69c2b068fc378daa952ba7f163c4a11628f55a4df523b3ef908290a45050565b816001600160a01b0316836001600160a01b0316036136795760405162461bcd60e51b815260206004820152601960248201527f4552433732313a20617070726f766520746f2063616c6c6572000000000000006044820152606401610a8a565b6001600160a01b03838116600081815260056020908152604080832094871680845294825291829020805460ff191686151590811790915591519182527f17307eab39ab6107e8899845ad3d59bd9653f200f220920489ca2b5937696c3191016127e3565b6136e9848484613190565b6136f5848484846137f4565b6125c05760405162461bcd60e51b8152600401610a8a906145df565b6060600061371e836138f5565b600101905060008167ffffffffffffffff81111561373e5761373e613d99565b6040519080825280601f01601f191660200182016040528015613768576020820181803683370190505b5090508181016020015b600019016f181899199a1a9b1b9c1cb0b131b232b360811b600a86061a8153600a850494508461377257509392505050565b60006001600160e01b031982166380ac58cd60e01b14806137d557506001600160e01b03198216635b5e139f60e01b145b8061095757506301ffc9a760e01b6001600160e01b0319831614610957565b60006001600160a01b0384163b156138ea57604051630a85bd0160e11b81526001600160a01b0385169063150b7a0290613838903390899088908890600401614631565b6020604051808303816000875af1925050508015613873575060408051601f3d908101601f191682019092526138709181019061466e565b60015b6138d0573d8080156138a1576040519150601f19603f3d011682016040523d82523d6000602084013e6138a6565b606091505b5080516000036138c85760405162461bcd60e51b8152600401610a8a906145df565b805181602001fd5b6001600160e01b031916630a85bd0160e11b149050612586565b506001949350505050565b60008072184f03e93ff9f4daa797ed6e38ed64bf6a1f0160401b83106139345772184f03e93ff9f4daa797ed6e38ed64bf6a1f0160401b830492506040015b6d04ee2d6d415b85acef81000000008310613960576d04ee2d6d415b85acef8100000000830492506020015b662386f26fc10000831061397e57662386f26fc10000830492506010015b6305f5e1008310613996576305f5e100830492506008015b61271083106139aa57612710830492506004015b606483106139bc576064830492506002015b600a83106109575760010192915050565b5080546000825590600052602060002090810190612ede91905b80821115613a045760006139fb8282613a08565b506001016139e7565b5090565b508054613a1490614206565b6000825580601f10613a24575050565b601f016020900490600052602060002090810190612ede91905b80821115613a045760008155600101613a3e565b6001600160e01b031981168114612ede57600080fd5b600060208284031215613a7a57600080fd5b81356126e981613a52565b60005b83811015613aa0578181015183820152602001613a88565b50506000910152565b60008151808452613ac1816020860160208601613a85565b601f01601f19169290920160200192915050565b6020815260006126e96020830184613aa9565b600060208284031215613afa57600080fd5b5035919050565b80356001600160a01b0381168114613b1857600080fd5b919050565b60008060408385031215613b3057600080fd5b613b3983613b01565b946020939093013593505050565b600080600060608486031215613b5c57600080fd5b83359250613b6c60208501613b01565b9150604084013590509250925092565b600060208284031215613b8e57600080fd5b6126e982613b01565b6020808252825182820181905260009190848201906040850190845b81811015613bcf57835183529284019291840191600101613bb3565b50909695505050505050565b600080600060608486031215613bf057600080fd5b613bf984613b01565b9250613b6c60208501613b01565b6020808252825182820181905260009190848201906040850190845b81811015613bcf5783516001600160a01b031683529284019291840191600101613c23565b60008060408385031215613c5b57600080fd5b82359150613c6b60208401613b01565b90509250929050565b60a081526000613c8760a0830188613aa9565b8281036020840152613c998188613aa9565b90508281036040840152613cad8187613aa9565b94151560608401525050608001529392505050565b634e487b7160e01b600052602160045260246000fd5b60098110613cf657634e487b7160e01b600052602160045260246000fd5b9052565b60c081526000613d0d60c0830189613aa9565b6001600160a01b038816602084015260408301879052851515606084015284151560808401529050613d4260a0830184613cd8565b979650505050505050565b803560098110613b1857600080fd5b600060208284031215613d6e57600080fd5b6126e982613d4d565b60008060408385031215613d8a57600080fd5b50508035926020909101359150565b634e487b7160e01b600052604160045260246000fd5b604051601f8201601f1916810167ffffffffffffffff81118282101715613dd857613dd8613d99565b604052919050565b600067ffffffffffffffff831115613dfa57613dfa613d99565b613e0d601f8401601f1916602001613daf565b9050828152838383011115613e2157600080fd5b828260208301376000602084830101529392505050565b600082601f830112613e4957600080fd5b6126e983833560208501613de0565b600060208284031215613e6a57600080fd5b813567ffffffffffffffff811115613e8157600080fd5b61258684828501613e38565b80358015158114613b1857600080fd5b600082601f830112613eae57600080fd5b8135602067ffffffffffffffff80831115613ecb57613ecb613d99565b8260051b613eda838201613daf565b9384528581018301938381019088861115613ef457600080fd5b84880192505b85831015613f3057823584811115613f125760008081fd5b613f208a87838c0101613e38565b8352509184019190840190613efa565b98975050505050505050565b60008060008060808587031215613f5257600080fd5b843567ffffffffffffffff80821115613f6a57600080fd5b613f7688838901613e38565b9550613f8460208801613e8d565b9450613f9260408801613d4d565b93506060870135915080821115613fa857600080fd5b50613fb587828801613e9d565b91505092959194509250565b60008060408385031215613fd457600080fd5b613fdd83613b01565b9150613c6b60208401613e8d565b60008060408385031215613ffe57600080fd5b82359150602083013567ffffffffffffffff81111561401c57600080fd5b61402885828601613e9d565b9150509250929050565b6000806000806080858703121561404857600080fd5b61405185613b01565b935061405f60208601613b01565b925060408501359150606085013567ffffffffffffffff81111561408257600080fd5b8501601f8101871361409357600080fd5b613fb587823560208401613de0565b6000806000606084860312156140b757600080fd5b833567ffffffffffffffff808211156140cf57600080fd5b6140db87838801613e38565b945060208601359150808211156140f157600080fd5b6140fd87838801613e38565b9350604086013591508082111561411357600080fd5b5061412086828701613e38565b9150509250925092565b600081518084526020808501808196508360051b8101915082860160005b85811015614172578284038952614160848351613aa9565b98850198935090840190600101614148565b5091979650505050505050565b60c08152600061419260c0830189613aa9565b6001600160a01b03881660208401526040830187905285151560608401526141bd6080840186613cd8565b82810360a08401526141cf818561412a565b9998505050505050505050565b600080604083850312156141ef57600080fd5b6141f883613b01565b9150613c6b60208401613b01565b600181811c9082168061421a57607f821691505b60208210810361423a57634e487b7160e01b600052602260045260246000fd5b50919050565b602080825260159082015274149958dbdc9908191bd95cc81b9bdd08195e1a5cdd605a1b604082015260600190565b6020808252601b908201527f4e6f7420746865206f776e6572206f6620746865207265636f72640000000000604082015260600190565b634e487b7160e01b600052601160045260246000fd5b8082028115828204841417610957576109576142a6565b80820180821115610957576109576142a6565b6020808252602d908201527f4552433732313a2063616c6c6572206973206e6f7420746f6b656e206f776e6560408201526c1c881bdc88185c1c1c9bdd9959609a1b606082015260800190565b60208082526016908201527521b0b63632b91034b9903737ba1030b71030b236b4b760511b604082015260600190565b60008251614375818460208701613a85565b9190910192915050565b634e487b7160e01b600052603260045260246000fd5b6000600182016143a7576143a76142a6565b5060010190565b601f821115610b2b57600081815260208120601f850160051c810160208610156143d55750805b601f850160051c820191505b818110156143f4578281556001016143e1565b505050505050565b815167ffffffffffffffff81111561441657614416613d99565b61442a816144248454614206565b846143ae565b602080601f83116001811461445f57600084156144475750858301515b600019600386901b1c1916600185901b1785556143f4565b600085815260208120601f198616915b8281101561448e5788860151825594840194600190910190840161446f565b50858210156144ac5787850151600019600388901b60f8161c191681555b5050505050600190811b01905550565b8381526001600160a01b0383166020820152606081016125866040830184613cd8565b81810381811115610957576109576142a6565b634e487b7160e01b600052603160045260246000fd5b828152604060208201526000612586604083018461412a565b6001600160a01b038516815260806020820181905260009061454590830186613aa9565b82810360408401526145578186613aa9565b90508281036060840152613d428185613aa9565b6000835161457d818460208801613a85565b835190830190614591818360208801613a85565b01949350505050565b60208082526025908201527f4552433732313a207472616e736665722066726f6d20696e636f72726563742060408201526437bbb732b960d91b606082015260800190565b60208082526032908201527f4552433732313a207472616e7366657220746f206e6f6e20455243373231526560408201527131b2b4bb32b91034b6b83632b6b2b73a32b960711b606082015260800190565b6001600160a01b038581168252841660208201526040810183905260806060820181905260009061466490830184613aa9565b9695505050505050565b60006020828403121561468057600080fd5b81516126e981613a5256fe72606200fac42b7dc86b75901d61ecfab2a4a1a6eded478b97a428094891abed0af1dac7dea2fd7f7738119cec7df099dfad49aa9d2e7d17ba6b60f63ae7411fa49807205ce4d355092ef5a8a18f56e8913cf4a201fbe287825b095693c21775a2646970667358221220a4f291c6820f6c34e8d5f43caf9b67d93b6ea97b7318273c4f2792fff268229464736f6c63430008140033",
  "linkReferences": {},
  "deployedLinkReferences": {}
}