{
  "_format": "hh-sol-artifact-1",
  "contractName": "MedicalRecord",
  "sourceName": "contracts/MedicalRecord.sol",
  "abi": [
    {
      "inputs": [],
      "stateMutability": "nonpayable",
      "type": "constructor"
    },
    {
      "anonymous": false,
      "inputs": [
        {
          "indexed": false,
          "internalType": "uint256",
          "name": "recordId",
          "type": "uint256"
        },
        {
          "indexed": false,
          "internalType": "address",
          "name": "requester",
          "type": "address"
        }
      ],
      "name": "AccessGranted",
      "type": "event"
    },
    {
      "anonymous": false,
      "inputs": [
        {
          "indexed": false,
          "internalType": "uint256",
          "name": "recordId",
          "type": "uint256"
        },
        {
          "indexed": false,
          "internalType": "address",
          "name": "requester",
          "type": "address"
        }
      ],
      "name": "AccessRevoked",
      "type": "event"
    },
    {
      "anonymous": false,
      "inputs": [
        {
          "indexed": true,
          "internalType": "address",
          "name": "owner",
          "type": "address"
        },
        {
          "indexed": true,
          "internalType": "address",
          "name": "approved",
          "type": "address"
        },
        {
          "indexed": true,
          "internalType": "uint256",
          "name": "tokenId",
          "type": "uint256"
        }
      ],
      "name": "Approval",
      "type": "event"
    },
    {
      "anonymous": false,
      "inputs": [
        {
          "indexed": true,
          "internalType": "address",
          "name": "owner",
          "type": "address"
        },
        {
          "indexed": true,
          "internalType": "address",
          "name": "operator",
          "type": "address"
        },
        {
          "indexed": false,
          "internalType": "bool",
          "name": "approved",
          "type": "bool"
        }
      ],
      "name": "ApprovalForAll",
      "type": "event"
    },
    {
      "anonymous": false,
      "inputs": [
        {
          "indexed": false,
          "internalType": "uint256",
          "name": "recordId",
          "type": "uint256"
        },
        {
          "indexed": false,
          "internalType": "address",
          "name": "emergencyContact",
          "type": "address"
        },
        {
          "indexed": false,
          "internalType": "uint256",
          "name": "expiryTime",
          "type": "uint256"
        }
      ],
      "name": "EmergencyAccessGranted",
      "type": "event"
    },
    {
      "anonymous": false,
      "inputs": [
        {
          "indexed": false,
          "internalType": "uint256",
          "name": "recordId",
          "type": "uint256"
        },
        {
          "indexed": false,
          "internalType": "address",
          "name": "emergencyContact",
          "type": "address"
        }
      ],
      "name": "EmergencyAccessRevoked",
      "type": "event"
    },
    {
      "anonymous": false,
      "inputs": [
        {
          "indexed": true,
          "internalType": "address",
          "name": "previousOwner",
          "type": "address"
        },
        {
          "indexed": true,
          "internalType": "address",
          "name": "newOwner",
          "type": "address"
        }
      ],
      "name": "OwnershipTransferred",
      "type": "event"
    },
    {
      "anonymous": false,
      "inputs": [
        {
          "indexed": false,
          "internalType": "uint256",
          "name": "recordId",
          "type": "uint256"
        },
        {
          "indexed": false,
          "internalType": "address",
          "name": "owner",
          "type": "address"
        },
        {
          "indexed": false,
          "internalType": "enum MedicalRecord.Category",
          "name": "category",
          "type": "uint8"
        }
      ],
      "name": "RecordCreated",
      "type": "event"
    },
    {
      "anonymous": false,
      "inputs": [
        {
          "indexed": false,
          "internalType": "uint256",
          "name": "recordId",
          "type": "uint256"
        },
        {
          "indexed": false,
          "internalType": "string[]",
          "name": "tags",
          "type": "string[]"
        }
      ],
      "name": "TagsUpdated",
      "type": "event"
    },
    {
      "anonymous": false,
      "inputs": [
        {
          "indexed": true,
          "internalType": "address",
          "name": "from",
          "type": "address"
        },
        {
          "indexed": true,
          "internalType": "address",
          "name": "to",
          "type": "address"
        },
        {
          "indexed": true,
          "internalType": "uint256",
          "name": "tokenId",
          "type": "uint256"
        }
      ],
      "name": "Transfer",
      "type": "event"
    },
    {
      "inputs": [
        {
          "internalType": "address",
          "name": "to",
          "type": "address"
        },
        {
          "internalType": "uint256",
          "name": "tokenId",
          "type": "uint256"
        }
      ],
      "name": "approve",
      "outputs": [],
      "stateMutability": "nonpayable",
      "type": "function"
    },
    {
      "inputs": [
        {
          "internalType": "address",
          "name": "owner",
          "type": "address"
        }
      ],
      "name": "balanceOf",
      "outputs": [
        {
          "internalType": "uint256",
          "name": "",
          "type": "uint256"
        }
      ],
      "stateMutability": "view",
      "type": "function"
    },
    {
      "inputs": [
        {
          "internalType": "string",
          "name": "ipfsHash",
          "type": "string"
        },
        {
          "internalType": "bool",
          "name": "isEncrypted",
          "type": "bool"
        },
        {
          "internalType": "enum MedicalRecord.Category",
          "name": "category",
          "type": "uint8"
        },
        {
          "internalType": "string[]",
          "name": "tags",
          "type": "string[]"
        }
      ],
      "name": "createRecord",
      "outputs": [],
      "stateMutability": "nonpayable",
      "type": "function"
    },
    {
      "inputs": [
        {
          "internalType": "uint256",
          "name": "",
          "type": "uint256"
        },
        {
          "internalType": "address",
          "name": "",
          "type": "address"
        }
      ],
      "name": "emergencyAccess",
      "outputs": [
        {
          "internalType": "address",
          "name": "emergencyContact",
          "type": "address"
        },
        {
          "internalType": "uint256",
          "name": "expiryTime",
          "type": "uint256"
        },
        {
          "internalType": "bool",
          "name": "isActive",
          "type": "bool"
        }
      ],
      "stateMutability": "view",
      "type": "function"
    },
    {
      "inputs": [
        {
          "internalType": "uint256",
          "name": "tokenId",
          "type": "uint256"
        }
      ],
      "name": "getApproved",
      "outputs": [
        {
          "internalType": "address",
          "name": "",
          "type": "address"
        }
      ],
      "stateMutability": "view",
      "type": "function"
    },
    {
      "inputs": [
        {
          "internalType": "uint256",
          "name": "_recordId",
          "type": "uint256"
        },
        {
          "internalType": "address",
          "name": "_emergencyContact",
          "type": "address"
        }
      ],
      "name": "getEmergencyAccessDetails",
      "outputs": [
        {
          "internalType": "address",
          "name": "contact",
          "type": "address"
        },
        {
          "internalType": "uint256",
          "name": "expiryTime",
          "type": "uint256"
        },
        {
          "internalType": "bool",
          "name": "isActive",
          "type": "bool"
        }
      ],
      "stateMutability": "view",
      "type": "function"
    },
    {
      "inputs": [
        {
          "internalType": "address",
          "name": "patient",
          "type": "address"
        }
      ],
      "name": "getPatientRecordIds",
      "outputs": [
        {
          "internalType": "uint256[]",
          "name": "",
          "type": "uint256[]"
        }
      ],
      "stateMutability": "view",
      "type": "function"
    },
    {
      "inputs": [
        {
          "internalType": "uint256",
          "name": "recordId",
          "type": "uint256"
        }
      ],
      "name": "getRecordDetails",
      "outputs": [
        {
          "internalType": "string",
          "name": "ipfsHash",
          "type": "string"
        },
        {
          "internalType": "address",
          "name": "owner",
          "type": "address"
        },
        {
          "internalType": "uint256",
          "name": "timestamp",
          "type": "uint256"
        },
        {
          "internalType": "bool",
          "name": "isEncrypted",
          "type": "bool"
        },
        {
          "internalType": "enum MedicalRecord.Category",
          "name": "category",
          "type": "uint8"
        },
        {
          "internalType": "string[]",
          "name": "tags",
          "type": "string[]"
        }
      ],
      "stateMutability": "view",
      "type": "function"
    },
    {
      "inputs": [
        {
          "internalType": "enum MedicalRecord.Category",
          "name": "category",
          "type": "uint8"
        }
      ],
      "name": "getRecordsByCategory",
      "outputs": [
        {
          "internalType": "uint256[]",
          "name": "",
          "type": "uint256[]"
        }
      ],
      "stateMutability": "view",
      "type": "function"
    },
    {
      "inputs": [
        {
          "internalType": "uint256",
          "name": "_recordId",
          "type": "uint256"
        }
      ],
      "name": "getSharedAddresses",
      "outputs": [
        {
          "internalType": "address[]",
          "name": "",
          "type": "address[]"
        }
      ],
      "stateMutability": "view",
      "type": "function"
    },
    {
      "inputs": [
        {
          "internalType": "address",
          "name": "_address",
          "type": "address"
        }
      ],
      "name": "getSharedWithMeRecords",
      "outputs": [
        {
          "internalType": "uint256[]",
          "name": "",
          "type": "uint256[]"
        }
      ],
      "stateMutability": "view",
      "type": "function"
    },
    {
      "inputs": [
        {
          "internalType": "uint256",
          "name": "_recordId",
          "type": "uint256"
        },
        {
          "internalType": "address",
          "name": "_to",
          "type": "address"
        }
      ],
      "name": "grantAccess",
      "outputs": [],
      "stateMutability": "nonpayable",
      "type": "function"
    },
    {
      "inputs": [
        {
          "internalType": "uint256",
          "name": "_recordId",
          "type": "uint256"
        },
        {
          "internalType": "address",
          "name": "_emergencyContact",
          "type": "address"
        },
        {
          "internalType": "uint256",
          "name": "_durationInHours",
          "type": "uint256"
        }
      ],
      "name": "grantEmergencyAccess",
      "outputs": [],
      "stateMutability": "nonpayable",
      "type": "function"
    },
    {
      "inputs": [
        {
          "internalType": "uint256",
          "name": "recordId",
          "type": "uint256"
        },
        {
          "internalType": "address",
          "name": "requester",
          "type": "address"
        }
      ],
      "name": "hasAccess",
      "outputs": [
        {
          "internalType": "bool",
          "name": "",
          "type": "bool"
        }
      ],
      "stateMutability": "view",
      "type": "function"
    },
    {
      "inputs": [
        {
          "internalType": "uint256",
          "name": "_recordId",
          "type": "uint256"
        },
        {
          "internalType": "address",
          "name": "_requester",
          "type": "address"
        }
      ],
      "name": "hasEmergencyAccess",
      "outputs": [
        {
          "internalType": "bool",
          "name": "",
          "type": "bool"
        }
      ],
      "stateMutability": "view",
      "type": "function"
    },
    {
      "inputs": [
        {
          "internalType": "address",
          "name": "owner",
          "type": "address"
        },
        {
          "internalType": "address",
          "name": "operator",
          "type": "address"
        }
      ],
      "name": "isApprovedForAll",
      "outputs": [
        {
          "internalType": "bool",
          "name": "",
          "type": "bool"
        }
      ],
      "stateMutability": "view",
      "type": "function"
    },
    {
      "inputs": [],
      "name": "name",
      "outputs": [
        {
          "internalType": "string",
          "name": "",
          "type": "string"
        }
      ],
      "stateMutability": "view",
      "type": "function"
    },
    {
      "inputs": [],
      "name": "owner",
      "outputs": [
        {
          "internalType": "address",
          "name": "",
          "type": "address"
        }
      ],
      "stateMutability": "view",
      "type": "function"
    },
    {
      "inputs": [
        {
          "internalType": "uint256",
          "name": "tokenId",
          "type": "uint256"
        }
      ],
      "name": "ownerOf",
      "outputs": [
        {
          "internalType": "address",
          "name": "",
          "type": "address"
        }
      ],
      "stateMutability": "view",
      "type": "function"
    },
    {
      "inputs": [
        {
          "internalType": "address",
          "name": "",
          "type": "address"
        },
        {
          "internalType": "uint256",
          "name": "",
          "type": "uint256"
        }
      ],
      "name": "patientRecords",
      "outputs": [
        {
          "internalType": "uint256",
          "name": "",
          "type": "uint256"
        }
      ],
      "stateMutability": "view",
      "type": "function"
    },
    {
      "inputs": [
        {
          "internalType": "uint256",
          "name": "recordId",
          "type": "uint256"
        }
      ],
      "name": "recordExists",
      "outputs": [
        {
          "internalType": "bool",
          "name": "",
          "type": "bool"
        }
      ],
      "stateMutability": "view",
      "type": "function"
    },
    {
      "inputs": [
        {
          "internalType": "uint256",
          "name": "",
          "type": "uint256"
        }
      ],
      "name": "records",
      "outputs": [
        {
          "internalType": "string",
          "name": "ipfsHash",
          "type": "string"
        },
        {
          "internalType": "address",
          "name": "owner",
          "type": "address"
        },
        {
          "internalType": "uint256",
          "name": "timestamp",
          "type": "uint256"
        },
        {
          "internalType": "bool",
          "name": "isEncrypted",
          "type": "bool"
        },
        {
          "internalType": "bool",
          "name": "exists",
          "type": "bool"
        },
        {
          "internalType": "enum MedicalRecord.Category",
          "name": "category",
          "type": "uint8"
        }
      ],
      "stateMutability": "view",
      "type": "function"
    },
    {
      "inputs": [],
      "name": "renounceOwnership",
      "outputs": [],
      "stateMutability": "nonpayable",
      "type": "function"
    },
    {
      "inputs": [
        {
          "internalType": "uint256",
          "name": "_recordId",
          "type": "uint256"
        },
        {
          "internalType": "address",
          "name": "_from",
          "type": "address"
        }
      ],
      "name": "revokeAccess",
      "outputs": [],
      "stateMutability": "nonpayable",
      "type": "function"
    },
    {
      "inputs": [
        {
          "internalType": "uint256",
          "name": "_recordId",
          "type": "uint256"
        },
        {
          "internalType": "address",
          "name": "_emergencyContact",
          "type": "address"
        }
      ],
      "name": "revokeEmergencyAccess",
      "outputs": [],
      "stateMutability": "nonpayable",
      "type": "function"
    },
    {
      "inputs": [
        {
          "internalType": "address",
          "name": "from",
          "type": "address"
        },
        {
          "internalType": "address",
          "name": "to",
          "type": "address"
        },
        {
          "internalType": "uint256",
          "name": "tokenId",
          "type": "uint256"
        }
      ],
      "name": "safeTransferFrom",
      "outputs": [],
      "stateMutability": "nonpayable",
      "type": "function"
    },
    {
      "inputs": [
        {
          "internalType": "address",
          "name": "from",
          "type": "address"
        },
        {
          "internalType": "address",
          "name": "to",
          "type": "address"
        },
        {
          "internalType": "uint256",
          "name": "tokenId",
          "type": "uint256"
        },
        {
          "internalType": "bytes",
          "name": "data",
          "type": "bytes"
        }
      ],
      "name": "safeTransferFrom",
      "outputs": [],
      "stateMutability": "nonpayable",
      "type": "function"
    },
    {
      "inputs": [
        {
          "internalType": "string",
          "name": "tag",
          "type": "string"
        }
      ],
      "name": "searchRecordsByTag",
      "outputs": [
        {
          "internalType": "uint256[]",
          "name": "",
          "type": "uint256[]"
        }
      ],
      "stateMutability": "view",
      "type": "function"
    },
    {
      "inputs": [
        {
          "internalType": "address",
          "name": "operator",
          "type": "address"
        },
        {
          "internalType": "bool",
          "name": "approved",
          "type": "bool"
        }
      ],
      "name": "setApprovalForAll",
      "outputs": [],
      "stateMutability": "nonpayable",
      "type": "function"
    },
    {
      "inputs": [
        {
          "internalType": "bytes4",
          "name": "interfaceId",
          "type": "bytes4"
        }
      ],
      "name": "supportsInterface",
      "outputs": [
        {
          "internalType": "bool",
          "name": "",
          "type": "bool"
        }
      ],
      "stateMutability": "view",
      "type": "function"
    },
    {
      "inputs": [],
      "name": "symbol",
      "outputs": [
        {
          "internalType": "string",
          "name": "",
          "type": "string"
        }
      ],
      "stateMutability": "view",
      "type": "function"
    },
    {
      "inputs": [
        {
          "internalType": "uint256",
          "name": "tokenId",
          "type": "uint256"
        }
      ],
      "name": "tokenURI",
      "outputs": [
        {
          "internalType": "string",
          "name": "",
          "type": "string"
        }
      ],
      "stateMutability": "view",
      "type": "function"
    },
    {
      "inputs": [
        {
          "internalType": "address",
          "name": "from",
          "type": "address"
        },
        {
          "internalType": "address",
          "name": "to",
          "type": "address"
        },
        {
          "internalType": "uint256",
          "name": "tokenId",
          "type": "uint256"
        }
      ],
      "name": "transferFrom",
      "outputs": [],
      "stateMutability": "nonpayable",
      "type": "function"
    },
    {
      "inputs": [
        {
          "internalType": "address",
          "name": "newOwner",
          "type": "address"
        }
      ],
      "name": "transferOwnership",
      "outputs": [],
      "stateMutability": "nonpayable",
      "type": "function"
    },
    {
      "inputs": [
        {
          "internalType": "uint256",
          "name": "recordId",
          "type": "uint256"
        },
        {
          "internalType": "string[]",
          "name": "newTags",
          "type": "string[]"
        }
      ],
      "name": "updateTags",
      "outputs": [],
      "stateMutability": "nonpayable",
      "type": "function"
    }
  ],
  "bytecode": "0x60806040523480156200001157600080fd5b506040518060400160405280600d81526020016c1359591a58d85b149958dbdc99609a1b815250604051806040016040528060048152602001634d52454360e01b815250816000908162000066919062000198565b50600162000075828262000198565b505050620000926200008c6200009d60201b60201c565b620000a1565b600160075562000264565b3390565b600680546001600160a01b038381166001600160a01b0319831681179093556040519116919082907f8be0079c531659141344cd1fd0a4f28419497f9722a3daafe3b4186f6b6457e090600090a35050565b634e487b7160e01b600052604160045260246000fd5b600181811c908216806200011e57607f821691505b6020821081036200013f57634e487b7160e01b600052602260045260246000fd5b50919050565b601f8211156200019357600081815260208120601f850160051c810160208610156200016e5750805b601f850160051c820191505b818110156200018f578281556001016200017a565b5050505b505050565b81516001600160401b03811115620001b457620001b4620000f3565b620001cc81620001c5845462000109565b8462000145565b602080601f831160018114620002045760008415620001eb5750858301515b600019600386901b1c1916600185901b1785556200018f565b600085815260208120601f198616915b82811015620002355788860151825594840194600190910190840162000214565b5085821015620002545787850151600019600388901b60f8161c191681555b5050505050600190811b01905550565b6130d480620002746000396000f3fe608060405234801561001057600080fd5b50600436106102115760003560e01c8063715018a611610125578063c08c5e83116100ad578063d9a5ec1b1161007c578063d9a5ec1b14610511578063e985e9c514610524578063f2fde38b14610560578063fdcd582914610573578063fdffba0e1461058657600080fd5b8063c08c5e831461047f578063c87b56dd146104c6578063ced14198146104d9578063d8c08673146104ec57600080fd5b806395d89b41116100f457806395d89b411461042b578063a22cb46514610433578063a7c81a0114610446578063b547236a14610459578063b88d4fde1461046c57600080fd5b8063715018a6146103eb5780638335c196146103f35780638da5cb5b1461040757806394f0df611461041857600080fd5b806334461067116101a857806361aaee921161017757806361aaee921461037e5780636248204e146103915780636352211e146103a457806365dd152c146103b757806370a08231146103ca57600080fd5b806334461067146102f95780633640e8dd1461031e5780633fb5b1f11461033157806342842e0e1461036b57600080fd5b80630c6510e0116101e45780630c6510e01461029357806316b54108146102a657806323b872dd146102c65780632c1d977c146102d957600080fd5b806301ffc9a71461021657806306fdde031461023e578063081812fc14610253578063095ea7b31461027e575b600080fd5b61022961022436600461260d565b6105b1565b60405190151581526020015b60405180910390f35b610246610603565b604051610235919061267a565b61026661026136600461268d565b610695565b6040516001600160a01b039091168152602001610235565b61029161028c3660046126c2565b6106bc565b005b6102916102a13660046126ec565b6107d6565b6102b96102b4366004612721565b61096b565b604051610235919061273c565b6102916102d4366004612780565b6109d7565b6102ec6102e736600461268d565b610a08565b60405161023591906127ac565b61030c61030736600461268d565b610ada565b60405161023596959493929190612825565b6102b961032c366004612887565b610bab565b61034461033f3660046128a2565b610c42565b604080516001600160a01b0390941684526020840192909252151590820152606001610235565b610291610379366004612780565b610cd4565b6102b961038c36600461298d565b610cef565b6102b961039f366004612721565b610ed8565b6102666103b236600461268d565b610f42565b6102916103c53660046128a2565b610fa2565b6103dd6103d8366004612721565b6111c4565b604051908152602001610235565b61029161124a565b610291610401366004612a71565b50505050565b6006546001600160a01b0316610266565b6103dd6104263660046126c2565b61125e565b61024661128f565b610291610441366004612af6565b61129e565b610291610454366004612b20565b6112ad565b6102296104673660046128a2565b6115c3565b61029161047a366004612b67565b611651565b61034461048d3660046128a2565b600b6020908152600092835260408084209091529082529020805460018201546002909201546001600160a01b03909116919060ff1683565b6102466104d436600461268d565b611683565b6102296104e73660046128a2565b6116f7565b6104ff6104fa36600461268d565b611749565b60405161023596959493929190612c2f565b61029161051f3660046128a2565b61199f565b610229610532366004612c8c565b6001600160a01b03918216600090815260056020908152604080832093909416825291909152205460ff1690565b61029161056e366004612721565b611cf2565b6102916105813660046128a2565b611d6b565b61022961059436600461268d565b600090815260096020526040902060030154610100900460ff1690565b60006001600160e01b031982166380ac58cd60e01b14806105e257506001600160e01b03198216635b5e139f60e01b145b806105fd57506301ffc9a760e01b6001600160e01b03198316145b92915050565b60606000805461061290612cb6565b80601f016020809104026020016040519081016040528092919081815260200182805461063e90612cb6565b801561068b5780601f106106605761010080835404028352916020019161068b565b820191906000526020600020905b81548152906001019060200180831161066e57829003601f168201915b5050505050905090565b60006106a082611eaa565b506000908152600460205260409020546001600160a01b031690565b60006106c782610f42565b9050806001600160a01b0316836001600160a01b0316036107395760405162461bcd60e51b815260206004820152602160248201527f4552433732313a20617070726f76616c20746f2063757272656e74206f776e656044820152603960f91b60648201526084015b60405180910390fd5b336001600160a01b038216148061075557506107558133610532565b6107c75760405162461bcd60e51b815260206004820152603d60248201527f4552433732313a20617070726f76652063616c6c6572206973206e6f7420746f60448201527f6b656e206f776e6572206f7220617070726f76656420666f7220616c6c0000006064820152608401610730565b6107d18383611f09565b505050565b600083815260096020526040902060030154610100900460ff1661080c5760405162461bcd60e51b815260040161073090612cf0565b6001600160a01b03821661086c5760405162461bcd60e51b815260206004820152602160248201527f496e76616c696420656d657267656e637920636f6e74616374206164647265736044820152607360f81b6064820152608401610730565b3361087684610f42565b6001600160a01b03161461089c5760405162461bcd60e51b815260040161073090612d1f565b60006108aa82610e10612d6c565b6108b49042612d83565b60408051606080820183526001600160a01b038781168084526020808501878152600186880181815260008e8152600b85528981208682528552899020975188546001600160a01b031916961695909517875590519086015591516002909401805460ff1916941515949094179093558351898152908101929092529181018390529192507f950cb26ce135bf8b7863126f9c1069eb87671da694b534b73338302ee22fbc9f91015b60405180910390a150505050565b6001600160a01b0381166000908152600e60209081526040918290208054835181840281018401909452808452606093928301828280156109cb57602002820191906000526020600020905b8154815260200190600101908083116109b7575b50505050509050919050565b6109e13382611f77565b6109fd5760405162461bcd60e51b815260040161073090612d96565b6107d1838383611ff5565b600081815260096020526040902060030154606090610100900460ff16610a415760405162461bcd60e51b815260040161073090612cf0565b33610a4b83610f42565b6001600160a01b031614610a715760405162461bcd60e51b815260040161073090612d1f565b6000828152600f6020908152604091829020805483518184028101840190945280845290918301828280156109cb57602002820191906000526020600020905b81546001600160a01b03168152600190910190602001808311610ab15750505050509050919050565b600960205260009081526040902080548190610af590612cb6565b80601f0160208091040260200160405190810160405280929190818152602001828054610b2190612cb6565b8015610b6e5780601f10610b4357610100808354040283529160200191610b6e565b820191906000526020600020905b815481529060010190602001808311610b5157829003601f168201915b5050506001840154600285015460039095015493946001600160a01b039091169390925060ff808216925061010082048116916201000090041686565b336000908152601060205260408120606091836008811115610bcf57610bcf6127ed565b6008811115610be057610be06127ed565b81526020019081526020016000208054806020026020016040519081016040528092919081815260200182805480156109cb57602002820191906000526020600020908154815260200190600101908083116109b75750505050509050919050565b60008281526009602052604081206003015481908190610100900460ff16610c7c5760405162461bcd60e51b815260040161073090612cf0565b5050506000918252600b602090815260408084206001600160a01b03938416855282529283902083516060810185528154909316808452600182015492840183905260029091015460ff161515929093018290529192565b6107d183838360405180602001604052806000815250611651565b60606000601183604051610d039190612de3565b9081526040805191829003602090810183208054808302850183019093528284529190830182828015610d5557602002820191906000526020600020905b815481526020019060010190808311610d41575b505050505090506000805b8251811015610dd557336001600160a01b031660096000858481518110610d8957610d89612dff565b6020908102919091018101518252810191909152604001600020600101546001600160a01b031603610dc35781610dbf81612e15565b9250505b80610dcd81612e15565b915050610d60565b5060008167ffffffffffffffff811115610df157610df16128ce565b604051908082528060200260200182016040528015610e1a578160200160208202803683370190505b5090506000805b8451811015610ecd57336001600160a01b031660096000878481518110610e4a57610e4a612dff565b6020908102919091018101518252810191909152604001600020600101546001600160a01b031603610ebb57848181518110610e8857610e88612dff565b6020026020010151838381518110610ea257610ea2612dff565b602090810291909101015281610eb781612e15565b9250505b80610ec581612e15565b915050610e21565b509095945050505050565b6001600160a01b0381166000908152600a60209081526040918290208054835181840281018401909452808452606093928301828280156109cb57602002820191906000526020600020908154815260200190600101908083116109b75750505050509050919050565b6000818152600260205260408120546001600160a01b0316806105fd5760405162461bcd60e51b8152602060048201526018602482015277115490cdcc8c4e881a5b9d985b1a59081d1bdad95b88125160421b6044820152606401610730565b600082815260096020526040902060030154610100900460ff16610fd85760405162461bcd60e51b815260040161073090612cf0565b6001600160a01b0381166110205760405162461bcd60e51b815260206004820152600f60248201526e496e76616c6964206164647265737360881b6044820152606401610730565b336001600160a01b038216036110785760405162461bcd60e51b815260206004820152601f60248201527f43616e6e6f74206772616e742061636365737320746f20796f757273656c66006044820152606401610730565b3361108283610f42565b6001600160a01b0316146110a85760405162461bcd60e51b815260040161073090612d1f565b6000828152600d602090815260408083206001600160a01b038516845290915290205460ff16156111145760405162461bcd60e51b81526020600482015260166024820152751058d8d95cdcc8185b1c9958591e4819dc985b9d195960521b6044820152606401610730565b6000828152600d602090815260408083206001600160a01b038516808552908352818420805460ff19166001908117909155600e84528285208054808301825590865284862001879055868552600f84528285208054918201815585529383902090930180546001600160a01b031916841790558051858152918201929092527f3c3a9147a1fc73dd51a32f4d10c43d457e8cb826eb6f35cac6349eb965ba82b491015b60405180910390a15050565b60006001600160a01b03821661122e5760405162461bcd60e51b815260206004820152602960248201527f4552433732313a2061646472657373207a65726f206973206e6f7420612076616044820152683634b21037bbb732b960b91b6064820152608401610730565b506001600160a01b031660009081526003602052604090205490565b611252612159565b61125c60006121b3565b565b600a602052816000526040600020818154811061127a57600080fd5b90600052602060002001600091509150505481565b60606001805461061290612cb6565b6112a9338383612205565b5050565b600082815260096020526040902060030154610100900460ff166112e35760405162461bcd60e51b815260040161073090612cf0565b336112ed83610f42565b6001600160a01b0316146113135760405162461bcd60e51b815260040161073090612d1f565b6000828152600960205260408120905b60048201548110156114ca57600082600401828154811061134657611346612dff565b90600052602060002001805461135b90612cb6565b80601f016020809104026020016040519081016040528092919081815260200182805461138790612cb6565b80156113d45780601f106113a9576101008083540402835291602001916113d4565b820191906000526020600020905b8154815290600101906020018083116113b757829003601f168201915b5050505050905060006011826040516113ed9190612de3565b9081526020016040518091039020905060005b81548110156114b4578682828154811061141c5761141c612dff565b9060005260206000200154036114a2578154829061143c90600190612e2e565b8154811061144c5761144c612dff565b906000526020600020015482828154811061146957611469612dff565b90600052602060002001819055508180548061148757611487612e41565b600190038181906000526020600020016000905590556114b4565b806114ac81612e15565b915050611400565b50505080806114c290612e15565b915050611323565b506114d9600482016000612572565b60005b825181101561158457816004018382815181106114fb576114fb612dff565b602090810291909101810151825460018101845560009384529190922001906115249082612ea5565b50601183828151811061153957611539612dff565b602002602001015160405161154e9190612de3565b9081526040516020918190038201902080546001810182556000918252919020018490558061157c81612e15565b9150506114dc565b507f1ec4c1ffa8337f540f543c894b49ff569d0f0e1f6f0401b1d853712087c9d4c583836040516115b6929190612f65565b60405180910390a1505050565b600082815260096020526040812060030154610100900460ff166115e9575060006105fd565b6000838152600b602090815260408083206001600160a01b0380871685529083529281902081516060810183528154909416845260018101549284019290925260029091015460ff16158015918301829052611649575080602001514211155b949350505050565b61165b3383611f77565b6116775760405162461bcd60e51b815260040161073090612d96565b610401848484846122d3565b606061168e82611eaa565b60006116a560408051602081019091526000815290565b905060008151116116c557604051806020016040528060008152506116f0565b806116cf84612306565b6040516020016116e0929190612f7e565b6040516020818303038152906040525b9392505050565b600082815260096020526040812060030154610100900460ff1661171d575060006105fd565b506000918252600d602090815260408084206001600160a01b0393909316845291905290205460ff1690565b606060008060008060606117758760009081526009602052604090206003015460ff6101009091041690565b6117915760405162461bcd60e51b815260040161073090612cf0565b600087815260096020526040902060018101546001600160a01b03166117f95760405162461bcd60e51b815260206004820152601f60248201527f5265636f7264206e6f742070726f7065726c7920696e697469616c697a6564006044820152606401610730565b600181015460028201546003830154835484936001600160a01b0316929160ff808216926201000090920416906004860190869061183690612cb6565b80601f016020809104026020016040519081016040528092919081815260200182805461186290612cb6565b80156118af5780601f10611884576101008083540402835291602001916118af565b820191906000526020600020905b81548152906001019060200180831161189257829003601f168201915b5050505050955080805480602002602001604051908101604052809291908181526020016000905b828210156119835783829060005260206000200180546118f690612cb6565b80601f016020809104026020016040519081016040528092919081815260200182805461192290612cb6565b801561196f5780601f106119445761010080835404028352916020019161196f565b820191906000526020600020905b81548152906001019060200180831161195257829003601f168201915b5050505050815260200190600101906118d7565b5050505090509650965096509650965096505091939550919395565b600082815260096020526040902060030154610100900460ff166119d55760405162461bcd60e51b815260040161073090612cf0565b6001600160a01b038116611a1d5760405162461bcd60e51b815260206004820152600f60248201526e496e76616c6964206164647265737360881b6044820152606401610730565b33611a2783610f42565b6001600160a01b031614611a4d5760405162461bcd60e51b815260040161073090612d1f565b6000828152600d602090815260408083206001600160a01b038516845290915290205460ff16611ab55760405162461bcd60e51b81526020600482015260136024820152724e6f2061636365737320746f207265766f6b6560681b6044820152606401610730565b6000828152600d602090815260408083206001600160a01b03851684528252808320805460ff19169055600e9091528120905b8154811015611b9c5783828281548110611b0457611b04612dff565b906000526020600020015403611b8a5781548290611b2490600190612e2e565b81548110611b3457611b34612dff565b9060005260206000200154828281548110611b5157611b51612dff565b906000526020600020018190555081805480611b6f57611b6f612e41565b60019003818190600052602060002001600090559055611b9c565b80611b9481612e15565b915050611ae8565b506000838152600f60205260408120905b8154811015611cb357836001600160a01b0316828281548110611bd257611bd2612dff565b6000918252602090912001546001600160a01b031603611ca15781548290611bfc90600190612e2e565b81548110611c0c57611c0c612dff565b9060005260206000200160009054906101000a90046001600160a01b0316828281548110611c3c57611c3c612dff565b9060005260206000200160006101000a8154816001600160a01b0302191690836001600160a01b0316021790555081805480611c7a57611c7a612e41565b600082815260209020810160001990810180546001600160a01b0319169055019055611cb3565b80611cab81612e15565b915050611bad565b50604080518581526001600160a01b03851660208201527f125883b94692baebecad9f111ed97ffa626523bbbadc6b0ef85ee1b56b9e52d5910161095d565b611cfa612159565b6001600160a01b038116611d5f5760405162461bcd60e51b815260206004820152602660248201527f4f776e61626c653a206e6577206f776e657220697320746865207a65726f206160448201526564647265737360d01b6064820152608401610730565b611d68816121b3565b50565b600082815260096020526040902060030154610100900460ff16611da15760405162461bcd60e51b815260040161073090612cf0565b33611dab83610f42565b6001600160a01b031614611dd15760405162461bcd60e51b815260040161073090612d1f565b6000828152600b602090815260408083206001600160a01b038516845290915290206002015460ff16611e465760405162461bcd60e51b815260206004820152601a60248201527f4e6f2061637469766520656d657267656e6379206163636573730000000000006044820152606401610730565b6000828152600b602090815260408083206001600160a01b03851680855290835292819020600201805460ff191690558051858152918201929092527f80ee26c128140dc5c04c3ce97037d466a7fbdd3c3894299a626cfa8c1f5bd47f91016111b8565b6000818152600260205260409020546001600160a01b0316611d685760405162461bcd60e51b8152602060048201526018602482015277115490cdcc8c4e881a5b9d985b1a59081d1bdad95b88125160421b6044820152606401610730565b600081815260046020526040902080546001600160a01b0319166001600160a01b0384169081179091558190611f3e82610f42565b6001600160a01b03167f8c5be1e5ebec7d5bd14f71427d1e84f3dd0314c0f7b2291e5b200ac8c7c3b92560405160405180910390a45050565b600080611f8383610f42565b9050806001600160a01b0316846001600160a01b03161480611fca57506001600160a01b0380821660009081526005602090815260408083209388168352929052205460ff165b806116495750836001600160a01b0316611fe384610695565b6001600160a01b031614949350505050565b826001600160a01b031661200882610f42565b6001600160a01b03161461202e5760405162461bcd60e51b815260040161073090612fad565b6001600160a01b0382166120905760405162461bcd60e51b8152602060048201526024808201527f4552433732313a207472616e7366657220746f20746865207a65726f206164646044820152637265737360e01b6064820152608401610730565b826001600160a01b03166120a382610f42565b6001600160a01b0316146120c95760405162461bcd60e51b815260040161073090612fad565b600081815260046020908152604080832080546001600160a01b03199081169091556001600160a01b0387811680865260038552838620805460001901905590871680865283862080546001019055868652600290945282852080549092168417909155905184937fddf252ad1be2c89b69c2b068fc378daa952ba7f163c4a11628f55a4df523b3ef91a4505050565b6006546001600160a01b0316331461125c5760405162461bcd60e51b815260206004820181905260248201527f4f776e61626c653a2063616c6c6572206973206e6f7420746865206f776e65726044820152606401610730565b600680546001600160a01b038381166001600160a01b0319831681179093556040519116919082907f8be0079c531659141344cd1fd0a4f28419497f9722a3daafe3b4186f6b6457e090600090a35050565b816001600160a01b0316836001600160a01b0316036122665760405162461bcd60e51b815260206004820152601960248201527f4552433732313a20617070726f766520746f2063616c6c6572000000000000006044820152606401610730565b6001600160a01b03838116600081815260056020908152604080832094871680845294825291829020805460ff191686151590811790915591519182527f17307eab39ab6107e8899845ad3d59bd9653f200f220920489ca2b5937696c31910160405180910390a3505050565b6122de848484611ff5565b6122ea84848484612399565b6104015760405162461bcd60e51b815260040161073090612ff2565b606060006123138361249a565b600101905060008167ffffffffffffffff811115612333576123336128ce565b6040519080825280601f01601f19166020018201604052801561235d576020820181803683370190505b5090508181016020015b600019016f181899199a1a9b1b9c1cb0b131b232b360811b600a86061a8153600a850494508461236757509392505050565b60006001600160a01b0384163b1561248f57604051630a85bd0160e11b81526001600160a01b0385169063150b7a02906123dd903390899088908890600401613044565b6020604051808303816000875af1925050508015612418575060408051601f3d908101601f1916820190925261241591810190613081565b60015b612475573d808015612446576040519150601f19603f3d011682016040523d82523d6000602084013e61244b565b606091505b50805160000361246d5760405162461bcd60e51b815260040161073090612ff2565b805181602001fd5b6001600160e01b031916630a85bd0160e11b149050611649565b506001949350505050565b60008072184f03e93ff9f4daa797ed6e38ed64bf6a1f0160401b83106124d95772184f03e93ff9f4daa797ed6e38ed64bf6a1f0160401b830492506040015b6d04ee2d6d415b85acef81000000008310612505576d04ee2d6d415b85acef8100000000830492506020015b662386f26fc10000831061252357662386f26fc10000830492506010015b6305f5e100831061253b576305f5e100830492506008015b612710831061254f57612710830492506004015b60648310612561576064830492506002015b600a83106105fd5760010192915050565b5080546000825590600052602060002090810190611d6891905b808211156125a95760006125a082826125ad565b5060010161258c565b5090565b5080546125b990612cb6565b6000825580601f106125c9575050565b601f016020900490600052602060002090810190611d6891905b808211156125a957600081556001016125e3565b6001600160e01b031981168114611d6857600080fd5b60006020828403121561261f57600080fd5b81356116f0816125f7565b60005b8381101561264557818101518382015260200161262d565b50506000910152565b6000815180845261266681602086016020860161262a565b601f01601f19169290920160200192915050565b6020815260006116f0602083018461264e565b60006020828403121561269f57600080fd5b5035919050565b80356001600160a01b03811681146126bd57600080fd5b919050565b600080604083850312156126d557600080fd5b6126de836126a6565b946020939093013593505050565b60008060006060848603121561270157600080fd5b83359250612711602085016126a6565b9150604084013590509250925092565b60006020828403121561273357600080fd5b6116f0826126a6565b6020808252825182820181905260009190848201906040850190845b8181101561277457835183529284019291840191600101612758565b50909695505050505050565b60008060006060848603121561279557600080fd5b61279e846126a6565b9250612711602085016126a6565b6020808252825182820181905260009190848201906040850190845b818110156127745783516001600160a01b0316835292840192918401916001016127c8565b634e487b7160e01b600052602160045260246000fd5b6009811061282157634e487b7160e01b600052602160045260246000fd5b9052565b60c08152600061283860c083018961264e565b6001600160a01b03881660208401526040830187905285151560608401528415156080840152905061286d60a0830184612803565b979650505050505050565b8035600981106126bd57600080fd5b60006020828403121561289957600080fd5b6116f082612878565b600080604083850312156128b557600080fd5b823591506128c5602084016126a6565b90509250929050565b634e487b7160e01b600052604160045260246000fd5b604051601f8201601f1916810167ffffffffffffffff8111828210171561290d5761290d6128ce565b604052919050565b600067ffffffffffffffff83111561292f5761292f6128ce565b612942601f8401601f19166020016128e4565b905082815283838301111561295657600080fd5b828260208301376000602084830101529392505050565b600082601f83011261297e57600080fd5b6116f083833560208501612915565b60006020828403121561299f57600080fd5b813567ffffffffffffffff8111156129b657600080fd5b6116498482850161296d565b803580151581146126bd57600080fd5b600082601f8301126129e357600080fd5b8135602067ffffffffffffffff80831115612a0057612a006128ce565b8260051b612a0f8382016128e4565b9384528581018301938381019088861115612a2957600080fd5b84880192505b85831015612a6557823584811115612a475760008081fd5b612a558a87838c010161296d565b8352509184019190840190612a2f565b98975050505050505050565b60008060008060808587031215612a8757600080fd5b843567ffffffffffffffff80821115612a9f57600080fd5b612aab8883890161296d565b9550612ab9602088016129c2565b9450612ac760408801612878565b93506060870135915080821115612add57600080fd5b50612aea878288016129d2565b91505092959194509250565b60008060408385031215612b0957600080fd5b612b12836126a6565b91506128c5602084016129c2565b60008060408385031215612b3357600080fd5b82359150602083013567ffffffffffffffff811115612b5157600080fd5b612b5d858286016129d2565b9150509250929050565b60008060008060808587031215612b7d57600080fd5b612b86856126a6565b9350612b94602086016126a6565b925060408501359150606085013567ffffffffffffffff811115612bb757600080fd5b8501601f81018713612bc857600080fd5b612aea87823560208401612915565b600082825180855260208086019550808260051b84010181860160005b84811015612c2257601f19868403018952612c1083835161264e565b98840198925090830190600101612bf4565b5090979650505050505050565b60c081526000612c4260c083018961264e565b6001600160a01b0388166020840152604083018790528515156060840152612c6d6080840186612803565b82810360a0840152612c7f8185612bd7565b9998505050505050505050565b60008060408385031215612c9f57600080fd5b612ca8836126a6565b91506128c5602084016126a6565b600181811c90821680612cca57607f821691505b602082108103612cea57634e487b7160e01b600052602260045260246000fd5b50919050565b602080825260159082015274149958dbdc9908191bd95cc81b9bdd08195e1a5cdd605a1b604082015260600190565b6020808252601b908201527f4e6f7420746865206f776e6572206f6620746865207265636f72640000000000604082015260600190565b634e487b7160e01b600052601160045260246000fd5b80820281158282048414176105fd576105fd612d56565b808201808211156105fd576105fd612d56565b6020808252602d908201527f4552433732313a2063616c6c6572206973206e6f7420746f6b656e206f776e6560408201526c1c881bdc88185c1c1c9bdd9959609a1b606082015260800190565b60008251612df581846020870161262a565b9190910192915050565b634e487b7160e01b600052603260045260246000fd5b600060018201612e2757612e27612d56565b5060010190565b818103818111156105fd576105fd612d56565b634e487b7160e01b600052603160045260246000fd5b601f8211156107d157600081815260208120601f850160051c81016020861015612e7e5750805b601f850160051c820191505b81811015612e9d57828155600101612e8a565b505050505050565b815167ffffffffffffffff811115612ebf57612ebf6128ce565b612ed381612ecd8454612cb6565b84612e57565b602080601f831160018114612f085760008415612ef05750858301515b600019600386901b1c1916600185901b178555612e9d565b600085815260208120601f198616915b82811015612f3757888601518255948401946001909101908401612f18565b5085821015612f555787850151600019600388901b60f8161c191681555b5050505050600190811b01905550565b8281526040602082015260006116496040830184612bd7565b60008351612f9081846020880161262a565b835190830190612fa481836020880161262a565b01949350505050565b60208082526025908201527f4552433732313a207472616e736665722066726f6d20696e636f72726563742060408201526437bbb732b960d91b606082015260800190565b60208082526032908201527f4552433732313a207472616e7366657220746f206e6f6e20455243373231526560408201527131b2b4bb32b91034b6b83632b6b2b73a32b960711b606082015260800190565b6001600160a01b03858116825284166020820152604081018390526080606082018190526000906130779083018461264e565b9695505050505050565b60006020828403121561309357600080fd5b81516116f0816125f756fea26469706673582212204b7c2e3fbdec2bc952d98be42da05bac7d0b42d9449303312c4d3870b188c6d864736f6c63430008140033",
  "linkReferences": {},
  "deployedLinkReferences": {}
}