{
  "_format": "hh-sol-artifact-1",
  "contractName": "MedicalRecord",
  "sourceName": "contracts/MedicalRecord.sol",
  "abi": [
    {
      "inputs": [],
      "stateMutability": "nonpayable",
      "type": "constructor"
    },
    {
      "inputs": [
        {
          "internalType": "address",
          "name": "sender",
          "type": "address"
        },
        {
          "internalType": "uint256",
          "name": "tokenId",
          "type": "uint256"
        },
        {
          "internalType": "address",
          "name": "owner",
          "type": "address"
        }
      ],
      "name": "ERC721IncorrectOwner",
      "type": "error"
    },
    {
      "inputs": [
        {
          "internalType": "address",
          "name": "operator",
          "type": "address"
        },
        {
          "internalType": "uint256",
          "name": "tokenId",
          "type": "uint256"
        }
      ],
      "name": "ERC721InsufficientApproval",
      "type": "error"
    },
    {
      "inputs": [
        {
          "internalType": "address",
          "name": "approver",
          "type": "address"
        }
      ],
      "name": "ERC721InvalidApprover",
      "type": "error"
    },
    {
      "inputs": [
        {
          "internalType": "address",
          "name": "operator",
          "type": "address"
        }
      ],
      "name": "ERC721InvalidOperator",
      "type": "error"
    },
    {
      "inputs": [
        {
          "internalType": "address",
          "name": "owner",
          "type": "address"
        }
      ],
      "name": "ERC721InvalidOwner",
      "type": "error"
    },
    {
      "inputs": [
        {
          "internalType": "address",
          "name": "receiver",
          "type": "address"
        }
      ],
      "name": "ERC721InvalidReceiver",
      "type": "error"
    },
    {
      "inputs": [
        {
          "internalType": "address",
          "name": "sender",
          "type": "address"
        }
      ],
      "name": "ERC721InvalidSender",
      "type": "error"
    },
    {
      "inputs": [
        {
          "internalType": "uint256",
          "name": "tokenId",
          "type": "uint256"
        }
      ],
      "name": "ERC721NonexistentToken",
      "type": "error"
    },
    {
      "inputs": [
        {
          "internalType": "address",
          "name": "owner",
          "type": "address"
        }
      ],
      "name": "OwnableInvalidOwner",
      "type": "error"
    },
    {
      "inputs": [
        {
          "internalType": "address",
          "name": "account",
          "type": "address"
        }
      ],
      "name": "OwnableUnauthorizedAccount",
      "type": "error"
    },
    {
      "anonymous": false,
      "inputs": [
        {
          "indexed": false,
          "internalType": "uint256",
          "name": "recordId",
          "type": "uint256"
        },
        {
          "indexed": false,
          "internalType": "address",
          "name": "requester",
          "type": "address"
        }
      ],
      "name": "AccessGranted",
      "type": "event"
    },
    {
      "anonymous": false,
      "inputs": [
        {
          "indexed": false,
          "internalType": "uint256",
          "name": "recordId",
          "type": "uint256"
        },
        {
          "indexed": false,
          "internalType": "address",
          "name": "requester",
          "type": "address"
        }
      ],
      "name": "AccessRevoked",
      "type": "event"
    },
    {
      "anonymous": false,
      "inputs": [
        {
          "indexed": true,
          "internalType": "address",
          "name": "owner",
          "type": "address"
        },
        {
          "indexed": true,
          "internalType": "address",
          "name": "approved",
          "type": "address"
        },
        {
          "indexed": true,
          "internalType": "uint256",
          "name": "tokenId",
          "type": "uint256"
        }
      ],
      "name": "Approval",
      "type": "event"
    },
    {
      "anonymous": false,
      "inputs": [
        {
          "indexed": true,
          "internalType": "address",
          "name": "owner",
          "type": "address"
        },
        {
          "indexed": true,
          "internalType": "address",
          "name": "operator",
          "type": "address"
        },
        {
          "indexed": false,
          "internalType": "bool",
          "name": "approved",
          "type": "bool"
        }
      ],
      "name": "ApprovalForAll",
      "type": "event"
    },
    {
      "anonymous": false,
      "inputs": [
        {
          "indexed": true,
          "internalType": "address",
          "name": "previousOwner",
          "type": "address"
        },
        {
          "indexed": true,
          "internalType": "address",
          "name": "newOwner",
          "type": "address"
        }
      ],
      "name": "OwnershipTransferred",
      "type": "event"
    },
    {
      "anonymous": false,
      "inputs": [
        {
          "indexed": false,
          "internalType": "uint256",
          "name": "recordId",
          "type": "uint256"
        },
        {
          "indexed": false,
          "internalType": "address",
          "name": "owner",
          "type": "address"
        }
      ],
      "name": "RecordCreated",
      "type": "event"
    },
    {
      "anonymous": false,
      "inputs": [
        {
          "indexed": true,
          "internalType": "address",
          "name": "from",
          "type": "address"
        },
        {
          "indexed": true,
          "internalType": "address",
          "name": "to",
          "type": "address"
        },
        {
          "indexed": true,
          "internalType": "uint256",
          "name": "tokenId",
          "type": "uint256"
        }
      ],
      "name": "Transfer",
      "type": "event"
    },
    {
      "inputs": [
        {
          "internalType": "address",
          "name": "to",
          "type": "address"
        },
        {
          "internalType": "uint256",
          "name": "tokenId",
          "type": "uint256"
        }
      ],
      "name": "approve",
      "outputs": [],
      "stateMutability": "nonpayable",
      "type": "function"
    },
    {
      "inputs": [
        {
          "internalType": "address",
          "name": "owner",
          "type": "address"
        }
      ],
      "name": "balanceOf",
      "outputs": [
        {
          "internalType": "uint256",
          "name": "",
          "type": "uint256"
        }
      ],
      "stateMutability": "view",
      "type": "function"
    },
    {
      "inputs": [
        {
          "internalType": "string",
          "name": "ipfsHash",
          "type": "string"
        },
        {
          "internalType": "bool",
          "name": "isEncrypted",
          "type": "bool"
        }
      ],
      "name": "createRecord",
      "outputs": [],
      "stateMutability": "nonpayable",
      "type": "function"
    },
    {
      "inputs": [
        {
          "internalType": "uint256",
          "name": "tokenId",
          "type": "uint256"
        }
      ],
      "name": "getApproved",
      "outputs": [
        {
          "internalType": "address",
          "name": "",
          "type": "address"
        }
      ],
      "stateMutability": "view",
      "type": "function"
    },
    {
      "inputs": [
        {
          "internalType": "address",
          "name": "patient",
          "type": "address"
        }
      ],
      "name": "getPatientRecordIds",
      "outputs": [
        {
          "internalType": "uint256[]",
          "name": "",
          "type": "uint256[]"
        }
      ],
      "stateMutability": "view",
      "type": "function"
    },
    {
      "inputs": [
        {
          "internalType": "uint256",
          "name": "recordId",
          "type": "uint256"
        }
      ],
      "name": "getRecordDetails",
      "outputs": [
        {
          "internalType": "string",
          "name": "ipfsHash",
          "type": "string"
        },
        {
          "internalType": "address",
          "name": "owner",
          "type": "address"
        },
        {
          "internalType": "uint256",
          "name": "timestamp",
          "type": "uint256"
        },
        {
          "internalType": "bool",
          "name": "isEncrypted",
          "type": "bool"
        }
      ],
      "stateMutability": "view",
      "type": "function"
    },
    {
      "inputs": [
        {
          "internalType": "uint256",
          "name": "_recordId",
          "type": "uint256"
        }
      ],
      "name": "getSharedAddresses",
      "outputs": [
        {
          "internalType": "address[]",
          "name": "",
          "type": "address[]"
        }
      ],
      "stateMutability": "view",
      "type": "function"
    },
    {
      "inputs": [
        {
          "internalType": "address",
          "name": "_address",
          "type": "address"
        }
      ],
      "name": "getSharedWithMeRecords",
      "outputs": [
        {
          "internalType": "uint256[]",
          "name": "",
          "type": "uint256[]"
        }
      ],
      "stateMutability": "view",
      "type": "function"
    },
    {
      "inputs": [
        {
          "internalType": "uint256",
          "name": "_recordId",
          "type": "uint256"
        },
        {
          "internalType": "address",
          "name": "_to",
          "type": "address"
        }
      ],
      "name": "grantAccess",
      "outputs": [],
      "stateMutability": "nonpayable",
      "type": "function"
    },
    {
      "inputs": [
        {
          "internalType": "uint256",
          "name": "recordId",
          "type": "uint256"
        },
        {
          "internalType": "address",
          "name": "requester",
          "type": "address"
        }
      ],
      "name": "hasAccess",
      "outputs": [
        {
          "internalType": "bool",
          "name": "",
          "type": "bool"
        }
      ],
      "stateMutability": "view",
      "type": "function"
    },
    {
      "inputs": [
        {
          "internalType": "address",
          "name": "owner",
          "type": "address"
        },
        {
          "internalType": "address",
          "name": "operator",
          "type": "address"
        }
      ],
      "name": "isApprovedForAll",
      "outputs": [
        {
          "internalType": "bool",
          "name": "",
          "type": "bool"
        }
      ],
      "stateMutability": "view",
      "type": "function"
    },
    {
      "inputs": [],
      "name": "name",
      "outputs": [
        {
          "internalType": "string",
          "name": "",
          "type": "string"
        }
      ],
      "stateMutability": "view",
      "type": "function"
    },
    {
      "inputs": [],
      "name": "owner",
      "outputs": [
        {
          "internalType": "address",
          "name": "",
          "type": "address"
        }
      ],
      "stateMutability": "view",
      "type": "function"
    },
    {
      "inputs": [
        {
          "internalType": "uint256",
          "name": "tokenId",
          "type": "uint256"
        }
      ],
      "name": "ownerOf",
      "outputs": [
        {
          "internalType": "address",
          "name": "",
          "type": "address"
        }
      ],
      "stateMutability": "view",
      "type": "function"
    },
    {
      "inputs": [
        {
          "internalType": "address",
          "name": "",
          "type": "address"
        },
        {
          "internalType": "uint256",
          "name": "",
          "type": "uint256"
        }
      ],
      "name": "patientRecords",
      "outputs": [
        {
          "internalType": "uint256",
          "name": "",
          "type": "uint256"
        }
      ],
      "stateMutability": "view",
      "type": "function"
    },
    {
      "inputs": [
        {
          "internalType": "uint256",
          "name": "recordId",
          "type": "uint256"
        }
      ],
      "name": "recordExists",
      "outputs": [
        {
          "internalType": "bool",
          "name": "",
          "type": "bool"
        }
      ],
      "stateMutability": "view",
      "type": "function"
    },
    {
      "inputs": [
        {
          "internalType": "uint256",
          "name": "",
          "type": "uint256"
        }
      ],
      "name": "records",
      "outputs": [
        {
          "internalType": "string",
          "name": "ipfsHash",
          "type": "string"
        },
        {
          "internalType": "address",
          "name": "owner",
          "type": "address"
        },
        {
          "internalType": "uint256",
          "name": "timestamp",
          "type": "uint256"
        },
        {
          "internalType": "bool",
          "name": "isEncrypted",
          "type": "bool"
        },
        {
          "internalType": "bool",
          "name": "exists",
          "type": "bool"
        }
      ],
      "stateMutability": "view",
      "type": "function"
    },
    {
      "inputs": [],
      "name": "renounceOwnership",
      "outputs": [],
      "stateMutability": "nonpayable",
      "type": "function"
    },
    {
      "inputs": [
        {
          "internalType": "uint256",
          "name": "_recordId",
          "type": "uint256"
        },
        {
          "internalType": "address",
          "name": "_from",
          "type": "address"
        }
      ],
      "name": "revokeAccess",
      "outputs": [],
      "stateMutability": "nonpayable",
      "type": "function"
    },
    {
      "inputs": [
        {
          "internalType": "address",
          "name": "from",
          "type": "address"
        },
        {
          "internalType": "address",
          "name": "to",
          "type": "address"
        },
        {
          "internalType": "uint256",
          "name": "tokenId",
          "type": "uint256"
        }
      ],
      "name": "safeTransferFrom",
      "outputs": [],
      "stateMutability": "nonpayable",
      "type": "function"
    },
    {
      "inputs": [
        {
          "internalType": "address",
          "name": "from",
          "type": "address"
        },
        {
          "internalType": "address",
          "name": "to",
          "type": "address"
        },
        {
          "internalType": "uint256",
          "name": "tokenId",
          "type": "uint256"
        },
        {
          "internalType": "bytes",
          "name": "data",
          "type": "bytes"
        }
      ],
      "name": "safeTransferFrom",
      "outputs": [],
      "stateMutability": "nonpayable",
      "type": "function"
    },
    {
      "inputs": [
        {
          "internalType": "address",
          "name": "operator",
          "type": "address"
        },
        {
          "internalType": "bool",
          "name": "approved",
          "type": "bool"
        }
      ],
      "name": "setApprovalForAll",
      "outputs": [],
      "stateMutability": "nonpayable",
      "type": "function"
    },
    {
      "inputs": [
        {
          "internalType": "bytes4",
          "name": "interfaceId",
          "type": "bytes4"
        }
      ],
      "name": "supportsInterface",
      "outputs": [
        {
          "internalType": "bool",
          "name": "",
          "type": "bool"
        }
      ],
      "stateMutability": "view",
      "type": "function"
    },
    {
      "inputs": [],
      "name": "symbol",
      "outputs": [
        {
          "internalType": "string",
          "name": "",
          "type": "string"
        }
      ],
      "stateMutability": "view",
      "type": "function"
    },
    {
      "inputs": [
        {
          "internalType": "uint256",
          "name": "tokenId",
          "type": "uint256"
        }
      ],
      "name": "tokenURI",
      "outputs": [
        {
          "internalType": "string",
          "name": "",
          "type": "string"
        }
      ],
      "stateMutability": "view",
      "type": "function"
    },
    {
      "inputs": [
        {
          "internalType": "address",
          "name": "from",
          "type": "address"
        },
        {
          "internalType": "address",
          "name": "to",
          "type": "address"
        },
        {
          "internalType": "uint256",
          "name": "tokenId",
          "type": "uint256"
        }
      ],
      "name": "transferFrom",
      "outputs": [],
      "stateMutability": "nonpayable",
      "type": "function"
    },
    {
      "inputs": [
        {
          "internalType": "address",
          "name": "newOwner",
          "type": "address"
        }
      ],
      "name": "transferOwnership",
      "outputs": [],
      "stateMutability": "nonpayable",
      "type": "function"
    }
  ],
  "bytecode": "0x60806040523480156200001157600080fd5b50336040518060400160405280600d81526020016c1359591a58d85b149958dbdc99609a1b815250604051806040016040528060048152602001634d52454360e01b8152508160009081620000679190620001b1565b506001620000768282620001b1565b5050506001600160a01b038116620000a857604051631e4fbdf760e01b81526000600482015260240160405180910390fd5b620000b381620000ba565b506200027d565b600680546001600160a01b038381166001600160a01b0319831681179093556040519116919082907f8be0079c531659141344cd1fd0a4f28419497f9722a3daafe3b4186f6b6457e090600090a35050565b634e487b7160e01b600052604160045260246000fd5b600181811c908216806200013757607f821691505b6020821081036200015857634e487b7160e01b600052602260045260246000fd5b50919050565b601f821115620001ac57600081815260208120601f850160051c81016020861015620001875750805b601f850160051c820191505b81811015620001a85782815560010162000193565b5050505b505050565b81516001600160401b03811115620001cd57620001cd6200010c565b620001e581620001de845462000122565b846200015e565b602080601f8311600181146200021d5760008415620002045750858301515b600019600386901b1c1916600185901b178555620001a8565b600085815260208120601f198616915b828110156200024e578886015182559484019460019091019084016200022d565b50858210156200026d5787850151600019600388901b60f8161c191681555b5050505050600190811b01905550565b6120e7806200028d6000396000f3fe608060405234801561001057600080fd5b50600436106101a95760003560e01c8063715018a6116100f9578063c87b56dd11610097578063d9a5ec1b11610071578063d9a5ec1b146103c5578063e985e9c5146103d8578063f2fde38b146103eb578063fdffba0e146103fe57600080fd5b8063c87b56dd1461037c578063ced141981461038f578063d8c08673146103a257600080fd5b806395d89b41116100d357806395d89b411461033b578063a22cb46514610343578063b653a9e314610356578063b88d4fde1461036957600080fd5b8063715018a61461030f5780638da5cb5b1461031757806394f0df611461032857600080fd5b80632c1d977c116101665780636248204e116101405780636248204e146102b55780636352211e146102c857806365dd152c146102db57806370a08231146102ee57600080fd5b80632c1d977c1461025e578063344610671461027e57806342842e0e146102a257600080fd5b806301ffc9a7146101ae57806306fdde03146101d6578063081812fc146101eb578063095ea7b31461021657806316b541081461022b57806323b872dd1461024b575b600080fd5b6101c16101bc3660046119ec565b610429565b60405190151581526020015b60405180910390f35b6101de61047b565b6040516101cd9190611a59565b6101fe6101f9366004611a6c565b61050d565b6040516001600160a01b0390911681526020016101cd565b610229610224366004611aa1565b610536565b005b61023e610239366004611acb565b610545565b6040516101cd9190611ae6565b610229610259366004611b2a565b6105b1565b61027161026c366004611a6c565b610641565b6040516101cd9190611b66565b61029161028c366004611a6c565b610713565b6040516101cd959493929190611ba7565b6102296102b0366004611b2a565b6107db565b61023e6102c3366004611acb565b6107fb565b6101fe6102d6366004611a6c565b610865565b6102296102e9366004611be9565b610870565b6103016102fc366004611acb565b610a91565b6040519081526020016101cd565b610229610ad9565b6006546001600160a01b03166101fe565b610301610336366004611aa1565b610aed565b6101de610b1e565b610229610351366004611c25565b610b2d565b610229610364366004611cdb565b610b38565b610229610377366004611d34565b610c74565b6101de61038a366004611a6c565b610c8c565b6101c161039d366004611be9565b610d01565b6103b56103b0366004611a6c565b610d53565b6040516101cd9493929190611db0565b6102296103d3366004611be9565b610ebd565b6101c16103e6366004611dea565b611210565b6102296103f9366004611acb565b61123e565b6101c161040c366004611a6c565b600090815260076020526040902060030154610100900460ff1690565b60006001600160e01b031982166380ac58cd60e01b148061045a57506001600160e01b03198216635b5e139f60e01b145b8061047557506301ffc9a760e01b6001600160e01b03198316145b92915050565b60606000805461048a90611e14565b80601f01602080910402602001604051908101604052809291908181526020018280546104b690611e14565b80156105035780601f106104d857610100808354040283529160200191610503565b820191906000526020600020905b8154815290600101906020018083116104e657829003601f168201915b5050505050905090565b60006105188261127c565b506000828152600460205260409020546001600160a01b0316610475565b6105418282336112b5565b5050565b6001600160a01b0381166000908152600b60209081526040918290208054835181840281018401909452808452606093928301828280156105a557602002820191906000526020600020905b815481526020019060010190808311610591575b50505050509050919050565b6001600160a01b0382166105e057604051633250574960e11b8152600060048201526024015b60405180910390fd5b60006105ed8383336112c2565b9050836001600160a01b0316816001600160a01b03161461063b576040516364283d7b60e01b81526001600160a01b03808616600483015260248201849052821660448201526064016105d7565b50505050565b600081815260076020526040902060030154606090610100900460ff1661067a5760405162461bcd60e51b81526004016105d790611e4e565b3361068483610865565b6001600160a01b0316146106aa5760405162461bcd60e51b81526004016105d790611e7d565b6000828152600c6020908152604091829020805483518184028101840190945280845290918301828280156105a557602002820191906000526020600020905b81546001600160a01b031681526001909101906020018083116106ea5750505050509050919050565b60076020526000908152604090208054819061072e90611e14565b80601f016020809104026020016040519081016040528092919081815260200182805461075a90611e14565b80156107a75780601f1061077c576101008083540402835291602001916107a7565b820191906000526020600020905b81548152906001019060200180831161078a57829003601f168201915b505050506001830154600284015460039094015492936001600160a01b039091169290915060ff8082169161010090041685565b6107f683838360405180602001604052806000815250610c74565b505050565b6001600160a01b0381166000908152600860209081526040918290208054835181840281018401909452808452606093928301828280156105a557602002820191906000526020600020908154815260200190600101908083116105915750505050509050919050565b60006104758261127c565b600082815260076020526040902060030154610100900460ff166108a65760405162461bcd60e51b81526004016105d790611e4e565b6001600160a01b0381166108ee5760405162461bcd60e51b815260206004820152600f60248201526e496e76616c6964206164647265737360881b60448201526064016105d7565b336001600160a01b038216036109465760405162461bcd60e51b815260206004820152601f60248201527f43616e6e6f74206772616e742061636365737320746f20796f757273656c660060448201526064016105d7565b3361095083610865565b6001600160a01b0316146109765760405162461bcd60e51b81526004016105d790611e7d565b6000828152600a602090815260408083206001600160a01b038516845290915290205460ff16156109e25760405162461bcd60e51b81526020600482015260166024820152751058d8d95cdcc8185b1c9958591e4819dc985b9d195960521b60448201526064016105d7565b6000828152600a602090815260408083206001600160a01b038516808552908352818420805460ff19166001908117909155600b84528285208054808301825590865284862001879055868552600c84528285208054918201815585529383902090930180546001600160a01b031916841790558051858152918201929092527f3c3a9147a1fc73dd51a32f4d10c43d457e8cb826eb6f35cac6349eb965ba82b4910160405180910390a15050565b60006001600160a01b038216610abd576040516322718ad960e21b8152600060048201526024016105d7565b506001600160a01b031660009081526003602052604090205490565b610ae16113bb565b610aeb60006113e8565b565b60086020528160005260406000208181548110610b0957600080fd5b90600052602060002001600091509150505481565b60606001805461048a90611e14565b61054133838361143a565b60004233604051602001610b6892919091825260601b6bffffffffffffffffffffffff1916602082015260340190565b6040516020818303038152906040528051906020012060001c9050610b8d33826114d9565b600081815260076020526040902080610ba68582611efa565b50600181810180546001600160a01b0319163390811790915542600284015560038301805461ff00198715151661ffff1990911617610100179055600081815260086020908152604080832080548087018255908452828420018790556009805495860181559092527f6e1540171b6c0c960b71a7020d9f60077f6af931a8bbf590da0223dacf75c7af9093018590558051858152928301919091527f9a96995fdafdb50a11bfbcd015e3313b1a7de85a9a5c033e9ceccc3ee1b4c89391015b60405180910390a150505050565b610c7f8484846105b1565b61063b33858585856114f3565b6060610c978261127c565b506000610caf60408051602081019091526000815290565b90506000815111610ccf5760405180602001604052806000815250610cfa565b80610cd98461161e565b604051602001610cea929190611fba565b6040516020818303038152906040525b9392505050565b600082815260076020526040812060030154610100900460ff16610d2757506000610475565b506000918252600a602090815260408084206001600160a01b0393909316845291905290205460ff1690565b60606000806000610d7c8560009081526007602052604090206003015460ff6101009091041690565b610d985760405162461bcd60e51b81526004016105d790611e4e565b600085815260076020526040902060018101546001600160a01b0316610e005760405162461bcd60e51b815260206004820152601f60248201527f5265636f7264206e6f742070726f7065726c7920696e697469616c697a65640060448201526064016105d7565b600181015460028201546003830154835484936001600160a01b0316929160ff16908490610e2d90611e14565b80601f0160208091040260200160405190810160405280929190818152602001828054610e5990611e14565b8015610ea65780601f10610e7b57610100808354040283529160200191610ea6565b820191906000526020600020905b815481529060010190602001808311610e8957829003601f168201915b505050505093509450945094509450509193509193565b600082815260076020526040902060030154610100900460ff16610ef35760405162461bcd60e51b81526004016105d790611e4e565b6001600160a01b038116610f3b5760405162461bcd60e51b815260206004820152600f60248201526e496e76616c6964206164647265737360881b60448201526064016105d7565b33610f4583610865565b6001600160a01b031614610f6b5760405162461bcd60e51b81526004016105d790611e7d565b6000828152600a602090815260408083206001600160a01b038516845290915290205460ff16610fd35760405162461bcd60e51b81526020600482015260136024820152724e6f2061636365737320746f207265766f6b6560681b60448201526064016105d7565b6000828152600a602090815260408083206001600160a01b03851684528252808320805460ff19169055600b9091528120905b81548110156110ba578382828154811061102257611022611fe9565b9060005260206000200154036110a8578154829061104290600190612015565b8154811061105257611052611fe9565b906000526020600020015482828154811061106f5761106f611fe9565b90600052602060002001819055508180548061108d5761108d612028565b600190038181906000526020600020016000905590556110ba565b806110b28161203e565b915050611006565b506000838152600c60205260408120905b81548110156111d157836001600160a01b03168282815481106110f0576110f0611fe9565b6000918252602090912001546001600160a01b0316036111bf578154829061111a90600190612015565b8154811061112a5761112a611fe9565b9060005260206000200160009054906101000a90046001600160a01b031682828154811061115a5761115a611fe9565b9060005260206000200160006101000a8154816001600160a01b0302191690836001600160a01b031602179055508180548061119857611198612028565b600082815260209020810160001990810180546001600160a01b03191690550190556111d1565b806111c98161203e565b9150506110cb565b50604080518581526001600160a01b03851660208201527f125883b94692baebecad9f111ed97ffa626523bbbadc6b0ef85ee1b56b9e52d59101610c66565b6001600160a01b03918216600090815260056020908152604080832093909416825291909152205460ff1690565b6112466113bb565b6001600160a01b03811661127057604051631e4fbdf760e01b8152600060048201526024016105d7565b611279816113e8565b50565b6000818152600260205260408120546001600160a01b03168061047557604051637e27328960e01b8152600481018490526024016105d7565b6107f683838360016116b1565b6000828152600260205260408120546001600160a01b03908116908316156112ef576112ef8184866117b7565b6001600160a01b0381161561132d5761130c6000856000806116b1565b6001600160a01b038116600090815260036020526040902080546000190190555b6001600160a01b0385161561135c576001600160a01b0385166000908152600360205260409020805460010190555b60008481526002602052604080822080546001600160a01b0319166001600160a01b0389811691821790925591518793918516917fddf252ad1be2c89b69c2b068fc378daa952ba7f163c4a11628f55a4df523b3ef91a4949350505050565b6006546001600160a01b03163314610aeb5760405163118cdaa760e01b81523360048201526024016105d7565b600680546001600160a01b038381166001600160a01b0319831681179093556040519116919082907f8be0079c531659141344cd1fd0a4f28419497f9722a3daafe3b4186f6b6457e090600090a35050565b6001600160a01b03821661146c57604051630b61174360e31b81526001600160a01b03831660048201526024016105d7565b6001600160a01b03838116600081815260056020908152604080832094871680845294825291829020805460ff191686151590811790915591519182527f17307eab39ab6107e8899845ad3d59bd9653f200f220920489ca2b5937696c31910160405180910390a3505050565b61054182826040518060200160405280600081525061181b565b6001600160a01b0383163b1561161757604051630a85bd0160e11b81526001600160a01b0384169063150b7a0290611535908890889087908790600401612057565b6020604051808303816000875af1925050508015611570575060408051601f3d908101601f1916820190925261156d91810190612094565b60015b6115d9573d80801561159e576040519150601f19603f3d011682016040523d82523d6000602084013e6115a3565b606091505b5080516000036115d157604051633250574960e11b81526001600160a01b03851660048201526024016105d7565b805181602001fd5b6001600160e01b03198116630a85bd0160e11b1461161557604051633250574960e11b81526001600160a01b03851660048201526024016105d7565b505b5050505050565b6060600061162b83611833565b600101905060008167ffffffffffffffff81111561164b5761164b611c4f565b6040519080825280601f01601f191660200182016040528015611675576020820181803683370190505b5090508181016020015b600019016f181899199a1a9b1b9c1cb0b131b232b360811b600a86061a8153600a850494508461167f57509392505050565b80806116c557506001600160a01b03821615155b156117875760006116d58461127c565b90506001600160a01b038316158015906117015750826001600160a01b0316816001600160a01b031614155b801561171457506117128184611210565b155b1561173d5760405163a9fbf51f60e01b81526001600160a01b03841660048201526024016105d7565b81156117855783856001600160a01b0316826001600160a01b03167f8c5be1e5ebec7d5bd14f71427d1e84f3dd0314c0f7b2291e5b200ac8c7c3b92560405160405180910390a45b505b5050600090815260046020526040902080546001600160a01b0319166001600160a01b0392909216919091179055565b6117c283838361190b565b6107f6576001600160a01b0383166117f057604051637e27328960e01b8152600481018290526024016105d7565b60405163177e802f60e01b81526001600160a01b0383166004820152602481018290526044016105d7565b6118258383611971565b6107f63360008585856114f3565b60008072184f03e93ff9f4daa797ed6e38ed64bf6a1f0160401b83106118725772184f03e93ff9f4daa797ed6e38ed64bf6a1f0160401b830492506040015b6d04ee2d6d415b85acef8100000000831061189e576d04ee2d6d415b85acef8100000000830492506020015b662386f26fc1000083106118bc57662386f26fc10000830492506010015b6305f5e10083106118d4576305f5e100830492506008015b61271083106118e857612710830492506004015b606483106118fa576064830492506002015b600a83106104755760010192915050565b60006001600160a01b038316158015906119695750826001600160a01b0316846001600160a01b0316148061194557506119458484611210565b8061196957506000828152600460205260409020546001600160a01b038481169116145b949350505050565b6001600160a01b03821661199b57604051633250574960e11b8152600060048201526024016105d7565b60006119a9838360006112c2565b90506001600160a01b038116156107f6576040516339e3563760e11b8152600060048201526024016105d7565b6001600160e01b03198116811461127957600080fd5b6000602082840312156119fe57600080fd5b8135610cfa816119d6565b60005b83811015611a24578181015183820152602001611a0c565b50506000910152565b60008151808452611a45816020860160208601611a09565b601f01601f19169290920160200192915050565b602081526000610cfa6020830184611a2d565b600060208284031215611a7e57600080fd5b5035919050565b80356001600160a01b0381168114611a9c57600080fd5b919050565b60008060408385031215611ab457600080fd5b611abd83611a85565b946020939093013593505050565b600060208284031215611add57600080fd5b610cfa82611a85565b6020808252825182820181905260009190848201906040850190845b81811015611b1e57835183529284019291840191600101611b02565b50909695505050505050565b600080600060608486031215611b3f57600080fd5b611b4884611a85565b9250611b5660208501611a85565b9150604084013590509250925092565b6020808252825182820181905260009190848201906040850190845b81811015611b1e5783516001600160a01b031683529284019291840191600101611b82565b60a081526000611bba60a0830188611a2d565b6001600160a01b0396909616602083015250604081019390935290151560608301521515608090910152919050565b60008060408385031215611bfc57600080fd5b82359150611c0c60208401611a85565b90509250929050565b80358015158114611a9c57600080fd5b60008060408385031215611c3857600080fd5b611c4183611a85565b9150611c0c60208401611c15565b634e487b7160e01b600052604160045260246000fd5b600067ffffffffffffffff80841115611c8057611c80611c4f565b604051601f8501601f19908116603f01168101908282118183101715611ca857611ca8611c4f565b81604052809350858152868686011115611cc157600080fd5b858560208301376000602087830101525050509392505050565b60008060408385031215611cee57600080fd5b823567ffffffffffffffff811115611d0557600080fd5b8301601f81018513611d1657600080fd5b611d2585823560208401611c65565b925050611c0c60208401611c15565b60008060008060808587031215611d4a57600080fd5b611d5385611a85565b9350611d6160208601611a85565b925060408501359150606085013567ffffffffffffffff811115611d8457600080fd5b8501601f81018713611d9557600080fd5b611da487823560208401611c65565b91505092959194509250565b608081526000611dc36080830187611a2d565b6001600160a01b039590951660208301525060408101929092521515606090910152919050565b60008060408385031215611dfd57600080fd5b611e0683611a85565b9150611c0c60208401611a85565b600181811c90821680611e2857607f821691505b602082108103611e4857634e487b7160e01b600052602260045260246000fd5b50919050565b602080825260159082015274149958dbdc9908191bd95cc81b9bdd08195e1a5cdd605a1b604082015260600190565b6020808252601b908201527f4e6f7420746865206f776e6572206f6620746865207265636f72640000000000604082015260600190565b601f8211156107f657600081815260208120601f850160051c81016020861015611edb5750805b601f850160051c820191505b8181101561161557828155600101611ee7565b815167ffffffffffffffff811115611f1457611f14611c4f565b611f2881611f228454611e14565b84611eb4565b602080601f831160018114611f5d5760008415611f455750858301515b600019600386901b1c1916600185901b178555611615565b600085815260208120601f198616915b82811015611f8c57888601518255948401946001909101908401611f6d565b5085821015611faa5787850151600019600388901b60f8161c191681555b5050505050600190811b01905550565b60008351611fcc818460208801611a09565b835190830190611fe0818360208801611a09565b01949350505050565b634e487b7160e01b600052603260045260246000fd5b634e487b7160e01b600052601160045260246000fd5b8181038181111561047557610475611fff565b634e487b7160e01b600052603160045260246000fd5b60006001820161205057612050611fff565b5060010190565b6001600160a01b038581168252841660208201526040810183905260806060820181905260009061208a90830184611a2d565b9695505050505050565b6000602082840312156120a657600080fd5b8151610cfa816119d656fea2646970667358221220276124b0ec5ec5ae849597aebfd4c85fc9af06c1745b147c1b699d0bbd4e0a1064736f6c63430008140033",
  "linkReferences": {},
  "deployedLinkReferences": {}
}