{
  "_format": "hh-sol-artifact-1",
  "contractName": "MedicalRecord",
  "sourceName": "contracts/MedicalRecord.sol",
  "abi": [
    {
      "inputs": [],
      "stateMutability": "nonpayable",
      "type": "constructor"
    },
    {
      "anonymous": false,
      "inputs": [
        {
          "indexed": false,
          "internalType": "uint256",
          "name": "recordId",
          "type": "uint256"
        },
        {
          "indexed": false,
          "internalType": "address",
          "name": "requester",
          "type": "address"
        }
      ],
      "name": "AccessGranted",
      "type": "event"
    },
    {
      "anonymous": false,
      "inputs": [
        {
          "indexed": false,
          "internalType": "uint256",
          "name": "recordId",
          "type": "uint256"
        },
        {
          "indexed": false,
          "internalType": "address",
          "name": "requester",
          "type": "address"
        }
      ],
      "name": "AccessRevoked",
      "type": "event"
    },
    {
      "anonymous": false,
      "inputs": [
        {
          "indexed": true,
          "internalType": "address",
          "name": "owner",
          "type": "address"
        },
        {
          "indexed": true,
          "internalType": "address",
          "name": "approved",
          "type": "address"
        },
        {
          "indexed": true,
          "internalType": "uint256",
          "name": "tokenId",
          "type": "uint256"
        }
      ],
      "name": "Approval",
      "type": "event"
    },
    {
      "anonymous": false,
      "inputs": [
        {
          "indexed": true,
          "internalType": "address",
          "name": "owner",
          "type": "address"
        },
        {
          "indexed": true,
          "internalType": "address",
          "name": "operator",
          "type": "address"
        },
        {
          "indexed": false,
          "internalType": "bool",
          "name": "approved",
          "type": "bool"
        }
      ],
      "name": "ApprovalForAll",
      "type": "event"
    },
    {
      "anonymous": false,
      "inputs": [
        {
          "indexed": false,
          "internalType": "uint256",
          "name": "recordId",
          "type": "uint256"
        },
        {
          "indexed": false,
          "internalType": "address",
          "name": "emergencyContact",
          "type": "address"
        },
        {
          "indexed": false,
          "internalType": "uint256",
          "name": "expiryTime",
          "type": "uint256"
        }
      ],
      "name": "EmergencyAccessGranted",
      "type": "event"
    },
    {
      "anonymous": false,
      "inputs": [
        {
          "indexed": false,
          "internalType": "uint256",
          "name": "recordId",
          "type": "uint256"
        },
        {
          "indexed": false,
          "internalType": "address",
          "name": "emergencyContact",
          "type": "address"
        }
      ],
      "name": "EmergencyAccessRevoked",
      "type": "event"
    },
    {
      "anonymous": false,
      "inputs": [
        {
          "indexed": true,
          "internalType": "address",
          "name": "previousOwner",
          "type": "address"
        },
        {
          "indexed": true,
          "internalType": "address",
          "name": "newOwner",
          "type": "address"
        }
      ],
      "name": "OwnershipTransferred",
      "type": "event"
    },
    {
      "anonymous": false,
      "inputs": [
        {
          "indexed": false,
          "internalType": "uint256",
          "name": "recordId",
          "type": "uint256"
        },
        {
          "indexed": false,
          "internalType": "address",
          "name": "owner",
          "type": "address"
        },
        {
          "indexed": false,
          "internalType": "enum MedicalRecord.Category",
          "name": "category",
          "type": "uint8"
        }
      ],
      "name": "RecordCreated",
      "type": "event"
    },
    {
      "anonymous": false,
      "inputs": [
        {
          "indexed": true,
          "internalType": "bytes32",
          "name": "role",
          "type": "bytes32"
        },
        {
          "indexed": true,
          "internalType": "bytes32",
          "name": "previousAdminRole",
          "type": "bytes32"
        },
        {
          "indexed": true,
          "internalType": "bytes32",
          "name": "newAdminRole",
          "type": "bytes32"
        }
      ],
      "name": "RoleAdminChanged",
      "type": "event"
    },
    {
      "anonymous": false,
      "inputs": [
        {
          "indexed": true,
          "internalType": "bytes32",
          "name": "role",
          "type": "bytes32"
        },
        {
          "indexed": true,
          "internalType": "address",
          "name": "account",
          "type": "address"
        },
        {
          "indexed": true,
          "internalType": "address",
          "name": "sender",
          "type": "address"
        }
      ],
      "name": "RoleGranted",
      "type": "event"
    },
    {
      "anonymous": false,
      "inputs": [
        {
          "indexed": false,
          "internalType": "address",
          "name": "account",
          "type": "address"
        },
        {
          "indexed": false,
          "internalType": "bytes32",
          "name": "role",
          "type": "bytes32"
        }
      ],
      "name": "RoleGranted",
      "type": "event"
    },
    {
      "anonymous": false,
      "inputs": [
        {
          "indexed": true,
          "internalType": "bytes32",
          "name": "role",
          "type": "bytes32"
        },
        {
          "indexed": true,
          "internalType": "address",
          "name": "account",
          "type": "address"
        },
        {
          "indexed": true,
          "internalType": "address",
          "name": "sender",
          "type": "address"
        }
      ],
      "name": "RoleRevoked",
      "type": "event"
    },
    {
      "anonymous": false,
      "inputs": [
        {
          "indexed": false,
          "internalType": "address",
          "name": "account",
          "type": "address"
        },
        {
          "indexed": false,
          "internalType": "bytes32",
          "name": "role",
          "type": "bytes32"
        }
      ],
      "name": "RoleRevoked",
      "type": "event"
    },
    {
      "anonymous": false,
      "inputs": [
        {
          "indexed": false,
          "internalType": "uint256",
          "name": "recordId",
          "type": "uint256"
        },
        {
          "indexed": false,
          "internalType": "string[]",
          "name": "tags",
          "type": "string[]"
        }
      ],
      "name": "TagsUpdated",
      "type": "event"
    },
    {
      "anonymous": false,
      "inputs": [
        {
          "indexed": true,
          "internalType": "address",
          "name": "from",
          "type": "address"
        },
        {
          "indexed": true,
          "internalType": "address",
          "name": "to",
          "type": "address"
        },
        {
          "indexed": true,
          "internalType": "uint256",
          "name": "tokenId",
          "type": "uint256"
        }
      ],
      "name": "Transfer",
      "type": "event"
    },
    {
      "anonymous": false,
      "inputs": [
        {
          "indexed": false,
          "internalType": "address",
          "name": "user",
          "type": "address"
        },
        {
          "indexed": false,
          "internalType": "string",
          "name": "name",
          "type": "string"
        },
        {
          "indexed": false,
          "internalType": "string",
          "name": "specialization",
          "type": "string"
        },
        {
          "indexed": false,
          "internalType": "string",
          "name": "institution",
          "type": "string"
        }
      ],
      "name": "UserProfileUpdated",
      "type": "event"
    },
    {
      "inputs": [],
      "name": "ADMIN_ROLE",
      "outputs": [
        {
          "internalType": "bytes32",
          "name": "",
          "type": "bytes32"
        }
      ],
      "stateMutability": "view",
      "type": "function"
    },
    {
      "inputs": [],
      "name": "DEFAULT_ADMIN_ROLE",
      "outputs": [
        {
          "internalType": "bytes32",
          "name": "",
          "type": "bytes32"
        }
      ],
      "stateMutability": "view",
      "type": "function"
    },
    {
      "inputs": [],
      "name": "DOCTOR_ROLE",
      "outputs": [
        {
          "internalType": "bytes32",
          "name": "",
          "type": "bytes32"
        }
      ],
      "stateMutability": "view",
      "type": "function"
    },
    {
      "inputs": [],
      "name": "PATIENT_ROLE",
      "outputs": [
        {
          "internalType": "bytes32",
          "name": "",
          "type": "bytes32"
        }
      ],
      "stateMutability": "view",
      "type": "function"
    },
    {
      "inputs": [],
      "name": "RESEARCHER_ROLE",
      "outputs": [
        {
          "internalType": "bytes32",
          "name": "",
          "type": "bytes32"
        }
      ],
      "stateMutability": "view",
      "type": "function"
    },
    {
      "inputs": [
        {
          "internalType": "address",
          "name": "to",
          "type": "address"
        },
        {
          "internalType": "uint256",
          "name": "tokenId",
          "type": "uint256"
        }
      ],
      "name": "approve",
      "outputs": [],
      "stateMutability": "nonpayable",
      "type": "function"
    },
    {
      "inputs": [
        {
          "internalType": "address",
          "name": "owner",
          "type": "address"
        }
      ],
      "name": "balanceOf",
      "outputs": [
        {
          "internalType": "uint256",
          "name": "",
          "type": "uint256"
        }
      ],
      "stateMutability": "view",
      "type": "function"
    },
    {
      "inputs": [
        {
          "internalType": "string",
          "name": "ipfsHash",
          "type": "string"
        },
        {
          "internalType": "bool",
          "name": "isEncrypted",
          "type": "bool"
        },
        {
          "internalType": "enum MedicalRecord.Category",
          "name": "category",
          "type": "uint8"
        },
        {
          "internalType": "string[]",
          "name": "tags",
          "type": "string[]"
        }
      ],
      "name": "createRecord",
      "outputs": [],
      "stateMutability": "nonpayable",
      "type": "function"
    },
    {
      "inputs": [
        {
          "internalType": "uint256",
          "name": "",
          "type": "uint256"
        },
        {
          "internalType": "address",
          "name": "",
          "type": "address"
        }
      ],
      "name": "emergencyAccess",
      "outputs": [
        {
          "internalType": "address",
          "name": "emergencyContact",
          "type": "address"
        },
        {
          "internalType": "uint256",
          "name": "expiryTime",
          "type": "uint256"
        },
        {
          "internalType": "bool",
          "name": "isActive",
          "type": "bool"
        }
      ],
      "stateMutability": "view",
      "type": "function"
    },
    {
      "inputs": [
        {
          "internalType": "uint256",
          "name": "tokenId",
          "type": "uint256"
        }
      ],
      "name": "getApproved",
      "outputs": [
        {
          "internalType": "address",
          "name": "",
          "type": "address"
        }
      ],
      "stateMutability": "view",
      "type": "function"
    },
    {
      "inputs": [
        {
          "internalType": "uint256",
          "name": "_recordId",
          "type": "uint256"
        },
        {
          "internalType": "address",
          "name": "_emergencyContact",
          "type": "address"
        }
      ],
      "name": "getEmergencyAccessDetails",
      "outputs": [
        {
          "internalType": "address",
          "name": "contact",
          "type": "address"
        },
        {
          "internalType": "uint256",
          "name": "expiryTime",
          "type": "uint256"
        },
        {
          "internalType": "bool",
          "name": "isActive",
          "type": "bool"
        }
      ],
      "stateMutability": "view",
      "type": "function"
    },
    {
      "inputs": [
        {
          "internalType": "address",
          "name": "patient",
          "type": "address"
        }
      ],
      "name": "getPatientRecordIds",
      "outputs": [
        {
          "internalType": "uint256[]",
          "name": "",
          "type": "uint256[]"
        }
      ],
      "stateMutability": "view",
      "type": "function"
    },
    {
      "inputs": [
        {
          "internalType": "uint256",
          "name": "recordId",
          "type": "uint256"
        }
      ],
      "name": "getRecordDetails",
      "outputs": [
        {
          "internalType": "string",
          "name": "ipfsHash",
          "type": "string"
        },
        {
          "internalType": "address",
          "name": "owner",
          "type": "address"
        },
        {
          "internalType": "uint256",
          "name": "timestamp",
          "type": "uint256"
        },
        {
          "internalType": "bool",
          "name": "isEncrypted",
          "type": "bool"
        },
        {
          "internalType": "enum MedicalRecord.Category",
          "name": "category",
          "type": "uint8"
        },
        {
          "internalType": "string[]",
          "name": "tags",
          "type": "string[]"
        }
      ],
      "stateMutability": "view",
      "type": "function"
    },
    {
      "inputs": [
        {
          "internalType": "enum MedicalRecord.Category",
          "name": "category",
          "type": "uint8"
        }
      ],
      "name": "getRecordsByCategory",
      "outputs": [
        {
          "internalType": "uint256[]",
          "name": "",
          "type": "uint256[]"
        }
      ],
      "stateMutability": "view",
      "type": "function"
    },
    {
      "inputs": [
        {
          "internalType": "bytes32",
          "name": "role",
          "type": "bytes32"
        }
      ],
      "name": "getRoleAdmin",
      "outputs": [
        {
          "internalType": "bytes32",
          "name": "",
          "type": "bytes32"
        }
      ],
      "stateMutability": "view",
      "type": "function"
    },
    {
      "inputs": [
        {
          "internalType": "uint256",
          "name": "_recordId",
          "type": "uint256"
        }
      ],
      "name": "getSharedAddresses",
      "outputs": [
        {
          "internalType": "address[]",
          "name": "",
          "type": "address[]"
        }
      ],
      "stateMutability": "view",
      "type": "function"
    },
    {
      "inputs": [
        {
          "internalType": "address",
          "name": "_address",
          "type": "address"
        }
      ],
      "name": "getSharedWithMeRecords",
      "outputs": [
        {
          "internalType": "uint256[]",
          "name": "",
          "type": "uint256[]"
        }
      ],
      "stateMutability": "view",
      "type": "function"
    },
    {
      "inputs": [
        {
          "internalType": "address",
          "name": "user",
          "type": "address"
        }
      ],
      "name": "getUserProfile",
      "outputs": [
        {
          "internalType": "string",
          "name": "name",
          "type": "string"
        },
        {
          "internalType": "string",
          "name": "specialization",
          "type": "string"
        },
        {
          "internalType": "string",
          "name": "institution",
          "type": "string"
        },
        {
          "internalType": "bool",
          "name": "isVerified",
          "type": "bool"
        },
        {
          "internalType": "uint256",
          "name": "verificationTimestamp",
          "type": "uint256"
        }
      ],
      "stateMutability": "view",
      "type": "function"
    },
    {
      "inputs": [
        {
          "internalType": "uint256",
          "name": "_recordId",
          "type": "uint256"
        },
        {
          "internalType": "address",
          "name": "_to",
          "type": "address"
        }
      ],
      "name": "grantAccess",
      "outputs": [],
      "stateMutability": "nonpayable",
      "type": "function"
    },
    {
      "inputs": [
        {
          "internalType": "uint256",
          "name": "_recordId",
          "type": "uint256"
        },
        {
          "internalType": "address",
          "name": "_emergencyContact",
          "type": "address"
        },
        {
          "internalType": "uint256",
          "name": "_durationInHours",
          "type": "uint256"
        }
      ],
      "name": "grantEmergencyAccess",
      "outputs": [],
      "stateMutability": "nonpayable",
      "type": "function"
    },
    {
      "inputs": [
        {
          "internalType": "bytes32",
          "name": "role",
          "type": "bytes32"
        },
        {
          "internalType": "address",
          "name": "account",
          "type": "address"
        }
      ],
      "name": "grantRole",
      "outputs": [],
      "stateMutability": "nonpayable",
      "type": "function"
    },
    {
      "inputs": [
        {
          "internalType": "uint256",
          "name": "_recordId",
          "type": "uint256"
        },
        {
          "internalType": "bytes32",
          "name": "_role",
          "type": "bytes32"
        }
      ],
      "name": "grantRoleAccess",
      "outputs": [],
      "stateMutability": "nonpayable",
      "type": "function"
    },
    {
      "inputs": [
        {
          "internalType": "uint256",
          "name": "recordId",
          "type": "uint256"
        },
        {
          "internalType": "address",
          "name": "requester",
          "type": "address"
        }
      ],
      "name": "hasAccess",
      "outputs": [
        {
          "internalType": "bool",
          "name": "",
          "type": "bool"
        }
      ],
      "stateMutability": "view",
      "type": "function"
    },
    {
      "inputs": [
        {
          "internalType": "uint256",
          "name": "_recordId",
          "type": "uint256"
        },
        {
          "internalType": "address",
          "name": "_requester",
          "type": "address"
        }
      ],
      "name": "hasEmergencyAccess",
      "outputs": [
        {
          "internalType": "bool",
          "name": "",
          "type": "bool"
        }
      ],
      "stateMutability": "view",
      "type": "function"
    },
    {
      "inputs": [
        {
          "internalType": "bytes32",
          "name": "role",
          "type": "bytes32"
        },
        {
          "internalType": "address",
          "name": "account",
          "type": "address"
        }
      ],
      "name": "hasRole",
      "outputs": [
        {
          "internalType": "bool",
          "name": "",
          "type": "bool"
        }
      ],
      "stateMutability": "view",
      "type": "function"
    },
    {
      "inputs": [
        {
          "internalType": "uint256",
          "name": "_recordId",
          "type": "uint256"
        },
        {
          "internalType": "bytes32",
          "name": "_role",
          "type": "bytes32"
        }
      ],
      "name": "hasRoleAccess",
      "outputs": [
        {
          "internalType": "bool",
          "name": "",
          "type": "bool"
        }
      ],
      "stateMutability": "view",
      "type": "function"
    },
    {
      "inputs": [
        {
          "internalType": "address",
          "name": "owner",
          "type": "address"
        },
        {
          "internalType": "address",
          "name": "operator",
          "type": "address"
        }
      ],
      "name": "isApprovedForAll",
      "outputs": [
        {
          "internalType": "bool",
          "name": "",
          "type": "bool"
        }
      ],
      "stateMutability": "view",
      "type": "function"
    },
    {
      "inputs": [],
      "name": "name",
      "outputs": [
        {
          "internalType": "string",
          "name": "",
          "type": "string"
        }
      ],
      "stateMutability": "view",
      "type": "function"
    },
    {
      "inputs": [],
      "name": "owner",
      "outputs": [
        {
          "internalType": "address",
          "name": "",
          "type": "address"
        }
      ],
      "stateMutability": "view",
      "type": "function"
    },
    {
      "inputs": [
        {
          "internalType": "uint256",
          "name": "tokenId",
          "type": "uint256"
        }
      ],
      "name": "ownerOf",
      "outputs": [
        {
          "internalType": "address",
          "name": "",
          "type": "address"
        }
      ],
      "stateMutability": "view",
      "type": "function"
    },
    {
      "inputs": [
        {
          "internalType": "address",
          "name": "",
          "type": "address"
        },
        {
          "internalType": "uint256",
          "name": "",
          "type": "uint256"
        }
      ],
      "name": "patientRecords",
      "outputs": [
        {
          "internalType": "uint256",
          "name": "",
          "type": "uint256"
        }
      ],
      "stateMutability": "view",
      "type": "function"
    },
    {
      "inputs": [
        {
          "internalType": "uint256",
          "name": "recordId",
          "type": "uint256"
        }
      ],
      "name": "recordExists",
      "outputs": [
        {
          "internalType": "bool",
          "name": "",
          "type": "bool"
        }
      ],
      "stateMutability": "view",
      "type": "function"
    },
    {
      "inputs": [
        {
          "internalType": "uint256",
          "name": "",
          "type": "uint256"
        }
      ],
      "name": "records",
      "outputs": [
        {
          "internalType": "string",
          "name": "ipfsHash",
          "type": "string"
        },
        {
          "internalType": "address",
          "name": "owner",
          "type": "address"
        },
        {
          "internalType": "uint256",
          "name": "timestamp",
          "type": "uint256"
        },
        {
          "internalType": "bool",
          "name": "isEncrypted",
          "type": "bool"
        },
        {
          "internalType": "bool",
          "name": "exists",
          "type": "bool"
        },
        {
          "internalType": "enum MedicalRecord.Category",
          "name": "category",
          "type": "uint8"
        }
      ],
      "stateMutability": "view",
      "type": "function"
    },
    {
      "inputs": [],
      "name": "renounceOwnership",
      "outputs": [],
      "stateMutability": "nonpayable",
      "type": "function"
    },
    {
      "inputs": [
        {
          "internalType": "bytes32",
          "name": "role",
          "type": "bytes32"
        },
        {
          "internalType": "address",
          "name": "account",
          "type": "address"
        }
      ],
      "name": "renounceRole",
      "outputs": [],
      "stateMutability": "nonpayable",
      "type": "function"
    },
    {
      "inputs": [
        {
          "internalType": "uint256",
          "name": "_recordId",
          "type": "uint256"
        },
        {
          "internalType": "address",
          "name": "_from",
          "type": "address"
        }
      ],
      "name": "revokeAccess",
      "outputs": [],
      "stateMutability": "nonpayable",
      "type": "function"
    },
    {
      "inputs": [
        {
          "internalType": "uint256",
          "name": "_recordId",
          "type": "uint256"
        },
        {
          "internalType": "address",
          "name": "_emergencyContact",
          "type": "address"
        }
      ],
      "name": "revokeEmergencyAccess",
      "outputs": [],
      "stateMutability": "nonpayable",
      "type": "function"
    },
    {
      "inputs": [
        {
          "internalType": "bytes32",
          "name": "role",
          "type": "bytes32"
        },
        {
          "internalType": "address",
          "name": "account",
          "type": "address"
        }
      ],
      "name": "revokeRole",
      "outputs": [],
      "stateMutability": "nonpayable",
      "type": "function"
    },
    {
      "inputs": [
        {
          "internalType": "address",
          "name": "from",
          "type": "address"
        },
        {
          "internalType": "address",
          "name": "to",
          "type": "address"
        },
        {
          "internalType": "uint256",
          "name": "tokenId",
          "type": "uint256"
        }
      ],
      "name": "safeTransferFrom",
      "outputs": [],
      "stateMutability": "nonpayable",
      "type": "function"
    },
    {
      "inputs": [
        {
          "internalType": "address",
          "name": "from",
          "type": "address"
        },
        {
          "internalType": "address",
          "name": "to",
          "type": "address"
        },
        {
          "internalType": "uint256",
          "name": "tokenId",
          "type": "uint256"
        },
        {
          "internalType": "bytes",
          "name": "data",
          "type": "bytes"
        }
      ],
      "name": "safeTransferFrom",
      "outputs": [],
      "stateMutability": "nonpayable",
      "type": "function"
    },
    {
      "inputs": [
        {
          "internalType": "string",
          "name": "tag",
          "type": "string"
        }
      ],
      "name": "searchRecordsByTag",
      "outputs": [
        {
          "internalType": "uint256[]",
          "name": "",
          "type": "uint256[]"
        }
      ],
      "stateMutability": "view",
      "type": "function"
    },
    {
      "inputs": [
        {
          "internalType": "address",
          "name": "operator",
          "type": "address"
        },
        {
          "internalType": "bool",
          "name": "approved",
          "type": "bool"
        }
      ],
      "name": "setApprovalForAll",
      "outputs": [],
      "stateMutability": "nonpayable",
      "type": "function"
    },
    {
      "inputs": [
        {
          "internalType": "bytes4",
          "name": "interfaceId",
          "type": "bytes4"
        }
      ],
      "name": "supportsInterface",
      "outputs": [
        {
          "internalType": "bool",
          "name": "",
          "type": "bool"
        }
      ],
      "stateMutability": "view",
      "type": "function"
    },
    {
      "inputs": [],
      "name": "symbol",
      "outputs": [
        {
          "internalType": "string",
          "name": "",
          "type": "string"
        }
      ],
      "stateMutability": "view",
      "type": "function"
    },
    {
      "inputs": [
        {
          "internalType": "uint256",
          "name": "tokenId",
          "type": "uint256"
        }
      ],
      "name": "tokenURI",
      "outputs": [
        {
          "internalType": "string",
          "name": "",
          "type": "string"
        }
      ],
      "stateMutability": "view",
      "type": "function"
    },
    {
      "inputs": [
        {
          "internalType": "address",
          "name": "from",
          "type": "address"
        },
        {
          "internalType": "address",
          "name": "to",
          "type": "address"
        },
        {
          "internalType": "uint256",
          "name": "tokenId",
          "type": "uint256"
        }
      ],
      "name": "transferFrom",
      "outputs": [],
      "stateMutability": "nonpayable",
      "type": "function"
    },
    {
      "inputs": [
        {
          "internalType": "address",
          "name": "newOwner",
          "type": "address"
        }
      ],
      "name": "transferOwnership",
      "outputs": [],
      "stateMutability": "nonpayable",
      "type": "function"
    },
    {
      "inputs": [
        {
          "internalType": "uint256",
          "name": "recordId",
          "type": "uint256"
        },
        {
          "internalType": "string[]",
          "name": "newTags",
          "type": "string[]"
        }
      ],
      "name": "updateTags",
      "outputs": [],
      "stateMutability": "nonpayable",
      "type": "function"
    },
    {
      "inputs": [
        {
          "internalType": "string",
          "name": "name",
          "type": "string"
        },
        {
          "internalType": "string",
          "name": "specialization",
          "type": "string"
        },
        {
          "internalType": "string",
          "name": "institution",
          "type": "string"
        }
      ],
      "name": "updateUserProfile",
      "outputs": [],
      "stateMutability": "nonpayable",
      "type": "function"
    },
    {
      "inputs": [
        {
          "internalType": "address",
          "name": "",
          "type": "address"
        }
      ],
      "name": "userProfiles",
      "outputs": [
        {
          "internalType": "string",
          "name": "name",
          "type": "string"
        },
        {
          "internalType": "string",
          "name": "specialization",
          "type": "string"
        },
        {
          "internalType": "string",
          "name": "institution",
          "type": "string"
        },
        {
          "internalType": "bool",
          "name": "isVerified",
          "type": "bool"
        },
        {
          "internalType": "uint256",
          "name": "verificationTimestamp",
          "type": "uint256"
        }
      ],
      "stateMutability": "view",
      "type": "function"
    },
    {
      "inputs": [
        {
          "internalType": "address",
          "name": "user",
          "type": "address"
        }
      ],
      "name": "verifyUser",
      "outputs": [],
      "stateMutability": "nonpayable",
      "type": "function"
    }
  ],
  "bytecode": "0x60806040523480156200001157600080fd5b506040518060400160405280600d81526020016c1359591a58d85b149958dbdc99609a1b815250604051806040016040528060048152602001634d52454360e01b815250816000908162000066919062000285565b50600162000075828262000285565b505050620000926200008c620000d660201b60201c565b620000da565b6001600755620000a46000336200012c565b620000d07fa49807205ce4d355092ef5a8a18f56e8913cf4a201fbe287825b095693c21775336200012c565b62000351565b3390565b600680546001600160a01b038381166001600160a01b0319831681179093556040519116919082907f8be0079c531659141344cd1fd0a4f28419497f9722a3daafe3b4186f6b6457e090600090a35050565b6200013882826200013c565b5050565b60008281526008602090815260408083206001600160a01b038516845290915290205460ff16620001385760008281526008602090815260408083206001600160a01b03851684529091529020805460ff191660011790556200019c3390565b6001600160a01b0316816001600160a01b0316837f2f8788117e7eff1d82e926ec794901d17c78024a50270940304540a733656f0d60405160405180910390a45050565b634e487b7160e01b600052604160045260246000fd5b600181811c908216806200020b57607f821691505b6020821081036200022c57634e487b7160e01b600052602260045260246000fd5b50919050565b601f8211156200028057600081815260208120601f850160051c810160208610156200025b5750805b601f850160051c820191505b818110156200027c5782815560010162000267565b5050505b505050565b81516001600160401b03811115620002a157620002a1620001e0565b620002b981620002b28454620001f6565b8462000232565b602080601f831160018114620002f15760008415620002d85750858301515b600019600386901b1c1916600185901b1785556200027c565b600085815260208120601f198616915b82811015620003225788860151825594840194600190910190840162000301565b5085821015620003415787850151600019600388901b60f8161c191681555b5050505050600190811b01905550565b6142fb80620003616000396000f3fe608060405234801561001057600080fd5b50600436106102f15760003560e01c8063715018a61161019d578063b88d4fde116100e9578063d8c08673116100a2578063f2fde38b1161007c578063f2fde38b1461079c578063fdcd5829146107af578063fdffba0e146107c2578063fec331f2146107ed57600080fd5b8063d8c0867314610728578063d9a5ec1b1461074d578063e985e9c51461076057600080fd5b8063b88d4fde14610682578063bace029014610695578063c08c5e83146106a8578063c87b56dd146106ef578063ced1419814610702578063d547741f1461071557600080fd5b806395d89b4111610156578063a22cb46511610130578063a22cb46514610622578063a7c81a0114610635578063ac5cb97d14610648578063b547236a1461066f57600080fd5b806395d89b41146105ff578063987ee15614610607578063a217fddf1461061a57600080fd5b8063715018a61461059857806375b238fc146105a05780638335c196146105b55780638da5cb5b146105c857806391d14854146105d957806394f0df61146105ec57600080fd5b80633640e8dd1161025c57806350f2aab3116102155780636248204e116101ef5780636248204e1461054c5780636352211e1461055f57806365dd152c1461057257806370a082311461058557600080fd5b806350f2aab3146104ff5780635b0402941461052657806361aaee921461053957600080fd5b80633640e8dd1461046657806336568abe146104795780633fb5b1f11461048c57806342842e0e146104c657806347d427f4146104d95780634d813120146104ec57600080fd5b806323b872dd116102ae57806323b872dd146103a6578063248a9ca3146103b95780632c1d977c146103ea5780632f2ff15d1461040a578063332d56d71461041d578063344610671461044157600080fd5b806301ffc9a7146102f657806306fdde031461031e578063081812fc14610333578063095ea7b31461035e5780630c6510e01461037357806316b5410814610386575b600080fd5b610309610304366004613682565b610814565b60405190151581526020015b60405180910390f35b610326610825565b60405161031591906136ef565b610346610341366004613702565b6108b7565b6040516001600160a01b039091168152602001610315565b61037161036c366004613737565b6108de565b005b610371610381366004613761565b6109f8565b610399610394366004613796565b610b8d565b60405161031591906137b1565b6103716103b43660046137f5565b610bf9565b6103dc6103c7366004613702565b60009081526008602052604090206001015490565b604051908152602001610315565b6103fd6103f8366004613702565b610c2a565b6040516103159190613821565b610371610418366004613862565b610cfc565b61043061042b366004613796565b610d81565b60405161031595949392919061388e565b61045461044f366004613702565b610f4b565b60405161031596959493929190613914565b610399610474366004613976565b61101c565b610371610487366004613862565b6110b3565b61049f61049a366004613862565b611131565b604080516001600160a01b0390941684526020840192909252151590820152606001610315565b6103716104d43660046137f5565b6111c3565b6103096104e7366004613991565b6111de565b6103716104fa366004613796565b611229565b6103dc7f7765bfe615aab9fb9a16bd4c5c9b353f39dae79ca7da86094b0a74ea8a89e59a81565b610371610534366004613991565b61128c565b610399610547366004613a72565b61131c565b61039961055a366004613796565b611505565b61034661056d366004613702565b61156f565b610371610580366004613862565b6115cf565b6103dc610593366004613796565b6118bf565b610371611945565b6103dc6000805160206142a683398151915281565b6103716105c3366004613b56565b611959565b6006546001600160a01b0316610346565b6103096105e7366004613862565b611c8e565b6103dc6105fa366004613737565b611cb9565b610326611cea565b610430610615366004613796565b611cf9565b6103dc600081565b610371610630366004613bdb565b611ef1565b610371610643366004613c05565b611efc565b6103dc7f72606200fac42b7dc86b75901d61ecfab2a4a1a6eded478b97a428094891abed81565b61030961067d366004613862565b612212565b610371610690366004613c4c565b6122a0565b6103716106a3366004613cbc565b6122d8565b61049f6106b6366004613862565b600c6020908152600092835260408084209091529082529020805460018201546002909201546001600160a01b03909116919060ff1683565b6103266106fd366004613702565b61238e565b610309610710366004613862565b612402565b610371610723366004613862565b612454565b61073b610736366004613702565b6124d1565b60405161031596959493929190613d99565b61037161075b366004613862565b612727565b61030961076e366004613df6565b6001600160a01b03918216600090815260056020908152604080832093909416825291909152205460ff1690565b6103716107aa366004613796565b612a7a565b6103716107bd366004613862565b612af3565b6103096107d0366004613702565b6000908152600a6020526040902060030154610100900460ff1690565b6103dc7f0af1dac7dea2fd7f7738119cec7df099dfad49aa9d2e7d17ba6b60f63ae7411f81565b600061081f82612c32565b92915050565b60606000805461083490613e20565b80601f016020809104026020016040519081016040528092919081815260200182805461086090613e20565b80156108ad5780601f10610882576101008083540402835291602001916108ad565b820191906000526020600020905b81548152906001019060200180831161089057829003601f168201915b5050505050905090565b60006108c282612c57565b506000908152600460205260409020546001600160a01b031690565b60006108e98261156f565b9050806001600160a01b0316836001600160a01b03160361095b5760405162461bcd60e51b815260206004820152602160248201527f4552433732313a20617070726f76616c20746f2063757272656e74206f776e656044820152603960f91b60648201526084015b60405180910390fd5b336001600160a01b03821614806109775750610977813361076e565b6109e95760405162461bcd60e51b815260206004820152603d60248201527f4552433732313a20617070726f76652063616c6c6572206973206e6f7420746f60448201527f6b656e206f776e6572206f7220617070726f76656420666f7220616c6c0000006064820152608401610952565b6109f38383612cb6565b505050565b6000838152600a6020526040902060030154610100900460ff16610a2e5760405162461bcd60e51b815260040161095290613e5a565b6001600160a01b038216610a8e5760405162461bcd60e51b815260206004820152602160248201527f496e76616c696420656d657267656e637920636f6e74616374206164647265736044820152607360f81b6064820152608401610952565b33610a988461156f565b6001600160a01b031614610abe5760405162461bcd60e51b815260040161095290613e89565b6000610acc82610e10613ed6565b610ad69042613eed565b60408051606080820183526001600160a01b038781168084526020808501878152600186880181815260008e8152600c85528981208682528552899020975188546001600160a01b031916961695909517875590519086015591516002909401805460ff1916941515949094179093558351898152908101929092529181018390529192507f950cb26ce135bf8b7863126f9c1069eb87671da694b534b73338302ee22fbc9f91015b60405180910390a150505050565b6001600160a01b038116600090815260106020908152604091829020805483518184028101840190945280845260609392830182828015610bed57602002820191906000526020600020905b815481526020019060010190808311610bd9575b50505050509050919050565b610c033382612d24565b610c1f5760405162461bcd60e51b815260040161095290613f00565b6109f3838383612da2565b6000818152600a6020526040902060030154606090610100900460ff16610c635760405162461bcd60e51b815260040161095290613e5a565b33610c6d8361156f565b6001600160a01b031614610c935760405162461bcd60e51b815260040161095290613e89565b60008281526011602090815260409182902080548351818402810184019094528084529091830182828015610bed57602002820191906000526020600020905b81546001600160a01b03168152600190910190602001808311610cd35750505050509050919050565b610d146000805160206142a683398151915233611c8e565b610d305760405162461bcd60e51b815260040161095290613f4d565b610d3a8282612f06565b604080516001600160a01b0383168152602081018490527fcf7afa953eac742fc7c2e2985cce7875d0ff3b2e3952b4526a780c7777bbe9af91015b60405180910390a15050565b600d60205260009081526040902080548190610d9c90613e20565b80601f0160208091040260200160405190810160405280929190818152602001828054610dc890613e20565b8015610e155780601f10610dea57610100808354040283529160200191610e15565b820191906000526020600020905b815481529060010190602001808311610df857829003601f168201915b505050505090806001018054610e2a90613e20565b80601f0160208091040260200160405190810160405280929190818152602001828054610e5690613e20565b8015610ea35780601f10610e7857610100808354040283529160200191610ea3565b820191906000526020600020905b815481529060010190602001808311610e8657829003601f168201915b505050505090806002018054610eb890613e20565b80601f0160208091040260200160405190810160405280929190818152602001828054610ee490613e20565b8015610f315780601f10610f0657610100808354040283529160200191610f31565b820191906000526020600020905b815481529060010190602001808311610f1457829003601f168201915b505050506003830154600490930154919260ff1691905085565b600a60205260009081526040902080548190610f6690613e20565b80601f0160208091040260200160405190810160405280929190818152602001828054610f9290613e20565b8015610fdf5780601f10610fb457610100808354040283529160200191610fdf565b820191906000526020600020905b815481529060010190602001808311610fc257829003601f168201915b5050506001840154600285015460039095015493946001600160a01b039091169390925060ff808216925061010082048116916201000090041686565b336000908152601260205260408120606091836008811115611040576110406138dc565b6008811115611051576110516138dc565b8152602001908152602001600020805480602002602001604051908101604052809291908181526020018280548015610bed5760200282019190600052602060002090815481526020019060010190808311610bd95750505050509050919050565b6001600160a01b03811633146111235760405162461bcd60e51b815260206004820152602f60248201527f416363657373436f6e74726f6c3a2063616e206f6e6c792072656e6f756e636560448201526e103937b632b9903337b91039b2b63360891b6064820152608401610952565b61112d8282612f8c565b5050565b6000828152600a602052604081206003015481908190610100900460ff1661116b5760405162461bcd60e51b815260040161095290613e5a565b5050506000918252600c602090815260408084206001600160a01b03938416855282529283902083516060810185528154909316808452600182015492840183905260029091015460ff161515929093018290529192565b6109f3838383604051806020016040528060008152506122a0565b6000828152600a6020526040812060030154610100900460ff166112045750600061081f565b506000918252600a602090815260408084209284526007909201905290205460ff1690565b6112416000805160206142a683398151915233611c8e565b61125d5760405162461bcd60e51b815260040161095290613f4d565b6001600160a01b03166000908152600d6020526040902060038101805460ff1916600117905542600490910155565b6000828152600a6020526040902060030154610100900460ff166112c25760405162461bcd60e51b815260040161095290613e5a565b336112cc8361156f565b6001600160a01b0316146112f25760405162461bcd60e51b815260040161095290613e89565b6000918252600a60209081526040808420928452600790920190529020805460ff19166001179055565b606060006013836040516113309190613f7d565b908152604080519182900360209081018320805480830285018301909352828452919083018282801561138257602002820191906000526020600020905b81548152602001906001019080831161136e575b505050505090506000805b825181101561140257336001600160a01b0316600a60008584815181106113b6576113b6613f99565b6020908102919091018101518252810191909152604001600020600101546001600160a01b0316036113f057816113ec81613faf565b9250505b806113fa81613faf565b91505061138d565b5060008167ffffffffffffffff81111561141e5761141e6139b3565b604051908082528060200260200182016040528015611447578160200160208202803683370190505b5090506000805b84518110156114fa57336001600160a01b0316600a600087848151811061147757611477613f99565b6020908102919091018101518252810191909152604001600020600101546001600160a01b0316036114e8578481815181106114b5576114b5613f99565b60200260200101518383815181106114cf576114cf613f99565b6020908102919091010152816114e481613faf565b9250505b806114f281613faf565b91505061144e565b509095945050505050565b6001600160a01b0381166000908152600b6020908152604091829020805483518184028101840190945280845260609392830182828015610bed5760200282019190600052602060002090815481526020019060010190808311610bd95750505050509050919050565b6000818152600260205260408120546001600160a01b03168061081f5760405162461bcd60e51b8152602060048201526018602482015277115490cdcc8c4e881a5b9d985b1a59081d1bdad95b88125160421b6044820152606401610952565b6000828152600a6020526040902060030154610100900460ff166116055760405162461bcd60e51b815260040161095290613e5a565b6001600160a01b03811661164d5760405162461bcd60e51b815260206004820152600f60248201526e496e76616c6964206164647265737360881b6044820152606401610952565b336001600160a01b038216036116a55760405162461bcd60e51b815260206004820152601f60248201527f43616e6e6f74206772616e742061636365737320746f20796f757273656c66006044820152606401610952565b336116af8361156f565b6001600160a01b0316146116d55760405162461bcd60e51b815260040161095290613e89565b6000828152600f602090815260408083206001600160a01b038516845290915290205460ff16156117415760405162461bcd60e51b81526020600482015260166024820152751058d8d95cdcc8185b1c9958591e4819dc985b9d195960521b6044820152606401610952565b61176b7f0af1dac7dea2fd7f7738119cec7df099dfad49aa9d2e7d17ba6b60f63ae7411f82611c8e565b8061179b575061179b7f7765bfe615aab9fb9a16bd4c5c9b353f39dae79ca7da86094b0a74ea8a89e59a82611c8e565b806117cb57506117cb7f72606200fac42b7dc86b75901d61ecfab2a4a1a6eded478b97a428094891abed82611c8e565b6118175760405162461bcd60e51b815260206004820181905260248201527f526563697069656e74206d757374206861766520612076616c696420726f6c656044820152606401610952565b6000828152600f602090815260408083206001600160a01b038516808552908352818420805460ff19166001908117909155601084528285208054808301825590865284862001879055868552601184528285208054918201815585529383902090930180546001600160a01b031916841790558051858152918201929092527f3c3a9147a1fc73dd51a32f4d10c43d457e8cb826eb6f35cac6349eb965ba82b49101610d75565b60006001600160a01b0382166119295760405162461bcd60e51b815260206004820152602960248201527f4552433732313a2061646472657373207a65726f206973206e6f7420612076616044820152683634b21037bbb732b960b91b6064820152608401610952565b506001600160a01b031660009081526003602052604090205490565b61194d612ff3565b611957600061304d565b565b6119837f72606200fac42b7dc86b75901d61ecfab2a4a1a6eded478b97a428094891abed33611c8e565b806119b357506119b37f0af1dac7dea2fd7f7738119cec7df099dfad49aa9d2e7d17ba6b60f63ae7411f33611c8e565b611a145760405162461bcd60e51b815260206004820152602c60248201527f4f6e6c792070617469656e747320616e6420646f63746f72732063616e20637260448201526b65617465207265636f72647360a01b6064820152608401610952565b6000845111611a595760405162461bcd60e51b8152602060048201526011602482015270092dcecc2d8d2c84092a08ca640d0c2e6d607b1b6044820152606401610952565b611a67600980546001019055565b6000611a7260095490565b6000818152600a6020526040902090915080611a8e8782614016565b506001810180546001600160a01b0319163317905542600282015560038101805461ff00198715151661ffff19909116176101001780825585919062ff0000191662010000836008811115611ae557611ae56138dc565b021790555060005b8351811015611b955781600401848281518110611b0c57611b0c613f99565b60209081029190910181015182546001810184556000938452919092200190611b359082614016565b506013848281518110611b4a57611b4a613f99565b6020026020010151604051611b5f9190613f7d565b90815260405160209181900382019020805460018101825560009182529190200183905580611b8d81613faf565b915050611aed565b5033600090815260126020526040812090856008811115611bb857611bb86138dc565b6008811115611bc957611bc96138dc565b8152602080820192909252604090810160009081208054600181810183559183528483200186905533808352600b855292822080548083018255908352938220909301859055600e8054938401815590527fbb7b4a454dc3493923482f07822329ed19e8244eff582cc204f8554c3620c3fd909101839055611c4b908361309f565b7f107736fec5bf0ecfe95025e33380c86b21f8a3ceb3799a0be620979e7505857f823386604051611c7e939291906140d6565b60405180910390a1505050505050565b60009182526008602090815260408084206001600160a01b0393909316845291905290205460ff1690565b600b6020528160005260406000208181548110611cd557600080fd5b90600052602060002001600091509150505481565b60606001805461083490613e20565b6001600160a01b0381166000908152600d602052604081206003810154600482015482546060948594859491938493919283926001840192600285019260ff16918590611d4590613e20565b80601f0160208091040260200160405190810160405280929190818152602001828054611d7190613e20565b8015611dbe5780601f10611d9357610100808354040283529160200191611dbe565b820191906000526020600020905b815481529060010190602001808311611da157829003601f168201915b50505050509450838054611dd190613e20565b80601f0160208091040260200160405190810160405280929190818152602001828054611dfd90613e20565b8015611e4a5780601f10611e1f57610100808354040283529160200191611e4a565b820191906000526020600020905b815481529060010190602001808311611e2d57829003601f168201915b50505050509350828054611e5d90613e20565b80601f0160208091040260200160405190810160405280929190818152602001828054611e8990613e20565b8015611ed65780601f10611eab57610100808354040283529160200191611ed6565b820191906000526020600020905b815481529060010190602001808311611eb957829003601f168201915b50505050509250955095509550955095505091939590929450565b61112d33838361322a565b6000828152600a6020526040902060030154610100900460ff16611f325760405162461bcd60e51b815260040161095290613e5a565b33611f3c8361156f565b6001600160a01b031614611f625760405162461bcd60e51b815260040161095290613e89565b6000828152600a60205260408120905b6004820154811015612119576000826004018281548110611f9557611f95613f99565b906000526020600020018054611faa90613e20565b80601f0160208091040260200160405190810160405280929190818152602001828054611fd690613e20565b80156120235780601f10611ff857610100808354040283529160200191612023565b820191906000526020600020905b81548152906001019060200180831161200657829003601f168201915b50505050509050600060138260405161203c9190613f7d565b9081526020016040518091039020905060005b8154811015612103578682828154811061206b5761206b613f99565b9060005260206000200154036120f1578154829061208b906001906140f9565b8154811061209b5761209b613f99565b90600052602060002001548282815481106120b8576120b8613f99565b9060005260206000200181905550818054806120d6576120d661410c565b60019003818190600052602060002001600090559055612103565b806120fb81613faf565b91505061204f565b505050808061211190613faf565b915050611f72565b506121286004820160006135e7565b60005b82518110156121d3578160040183828151811061214a5761214a613f99565b602090810291909101810151825460018101845560009384529190922001906121739082614016565b50601383828151811061218857612188613f99565b602002602001015160405161219d9190613f7d565b908152604051602091819003820190208054600181018255600091825291902001849055806121cb81613faf565b91505061212b565b507f1ec4c1ffa8337f540f543c894b49ff569d0f0e1f6f0401b1d853712087c9d4c58383604051612205929190614122565b60405180910390a1505050565b6000828152600a6020526040812060030154610100900460ff166122385750600061081f565b6000838152600c602090815260408083206001600160a01b0380871685529083529281902081516060810183528154909416845260018101549284019290925260029091015460ff16158015918301829052612298575080602001514211155b949350505050565b6122aa3383612d24565b6122c65760405162461bcd60e51b815260040161095290613f00565b6122d2848484846132f8565b50505050565b60008351116123205760405162461bcd60e51b81526020600482015260146024820152734e616d652063616e6e6f7420626520656d70747960601b6044820152606401610952565b336000908152600d602052604090208061233a8582614016565b50600181016123498482614016565b50600281016123588382614016565b507f198eb8de772c5a42c31d10ea779636d74f5a7cd2633012f88632697fae910db433858585604051610b7f949392919061413b565b606061239982612c57565b60006123b060408051602081019091526000815290565b905060008151116123d057604051806020016040528060008152506123fb565b806123da8461332b565b6040516020016123eb929190614185565b6040516020818303038152906040525b9392505050565b6000828152600a6020526040812060030154610100900460ff166124285750600061081f565b506000918252600f602090815260408084206001600160a01b0393909316845291905290205460ff1690565b61246c6000805160206142a683398151915233611c8e565b6124885760405162461bcd60e51b815260040161095290613f4d565b6124928282612f8c565b604080516001600160a01b0383168152602081018490527fea83a7caef01824e96446a8c4bc8ff4669edd99e129b53e32c077f85d21680819101610d75565b606060008060008060606124fd876000908152600a602052604090206003015460ff6101009091041690565b6125195760405162461bcd60e51b815260040161095290613e5a565b6000878152600a6020526040902060018101546001600160a01b03166125815760405162461bcd60e51b815260206004820152601f60248201527f5265636f7264206e6f742070726f7065726c7920696e697469616c697a6564006044820152606401610952565b600181015460028201546003830154835484936001600160a01b0316929160ff80821692620100009092041690600486019086906125be90613e20565b80601f01602080910402602001604051908101604052809291908181526020018280546125ea90613e20565b80156126375780601f1061260c57610100808354040283529160200191612637565b820191906000526020600020905b81548152906001019060200180831161261a57829003601f168201915b5050505050955080805480602002602001604051908101604052809291908181526020016000905b8282101561270b57838290600052602060002001805461267e90613e20565b80601f01602080910402602001604051908101604052809291908181526020018280546126aa90613e20565b80156126f75780601f106126cc576101008083540402835291602001916126f7565b820191906000526020600020905b8154815290600101906020018083116126da57829003601f168201915b50505050508152602001906001019061265f565b5050505090509650965096509650965096505091939550919395565b6000828152600a6020526040902060030154610100900460ff1661275d5760405162461bcd60e51b815260040161095290613e5a565b6001600160a01b0381166127a55760405162461bcd60e51b815260206004820152600f60248201526e496e76616c6964206164647265737360881b6044820152606401610952565b336127af8361156f565b6001600160a01b0316146127d55760405162461bcd60e51b815260040161095290613e89565b6000828152600f602090815260408083206001600160a01b038516845290915290205460ff1661283d5760405162461bcd60e51b81526020600482015260136024820152724e6f2061636365737320746f207265766f6b6560681b6044820152606401610952565b6000828152600f602090815260408083206001600160a01b03851684528252808320805460ff1916905560109091528120905b8154811015612924578382828154811061288c5761288c613f99565b90600052602060002001540361291257815482906128ac906001906140f9565b815481106128bc576128bc613f99565b90600052602060002001548282815481106128d9576128d9613f99565b9060005260206000200181905550818054806128f7576128f761410c565b60019003818190600052602060002001600090559055612924565b8061291c81613faf565b915050612870565b506000838152601160205260408120905b8154811015612a3b57836001600160a01b031682828154811061295a5761295a613f99565b6000918252602090912001546001600160a01b031603612a295781548290612984906001906140f9565b8154811061299457612994613f99565b9060005260206000200160009054906101000a90046001600160a01b03168282815481106129c4576129c4613f99565b9060005260206000200160006101000a8154816001600160a01b0302191690836001600160a01b0316021790555081805480612a0257612a0261410c565b600082815260209020810160001990810180546001600160a01b0319169055019055612a3b565b80612a3381613faf565b915050612935565b50604080518581526001600160a01b03851660208201527f125883b94692baebecad9f111ed97ffa626523bbbadc6b0ef85ee1b56b9e52d59101610b7f565b612a82612ff3565b6001600160a01b038116612ae75760405162461bcd60e51b815260206004820152602660248201527f4f776e61626c653a206e6577206f776e657220697320746865207a65726f206160448201526564647265737360d01b6064820152608401610952565b612af08161304d565b50565b6000828152600a6020526040902060030154610100900460ff16612b295760405162461bcd60e51b815260040161095290613e5a565b33612b338361156f565b6001600160a01b031614612b595760405162461bcd60e51b815260040161095290613e89565b6000828152600c602090815260408083206001600160a01b038516845290915290206002015460ff16612bce5760405162461bcd60e51b815260206004820152601a60248201527f4e6f2061637469766520656d657267656e6379206163636573730000000000006044820152606401610952565b6000828152600c602090815260408083206001600160a01b03851680855290835292819020600201805460ff191690558051858152918201929092527f80ee26c128140dc5c04c3ce97037d466a7fbdd3c3894299a626cfa8c1f5bd47f9101610d75565b60006001600160e01b03198216637965db0b60e01b148061081f575061081f826133be565b6000818152600260205260409020546001600160a01b0316612af05760405162461bcd60e51b8152602060048201526018602482015277115490cdcc8c4e881a5b9d985b1a59081d1bdad95b88125160421b6044820152606401610952565b600081815260046020526040902080546001600160a01b0319166001600160a01b0384169081179091558190612ceb8261156f565b6001600160a01b03167f8c5be1e5ebec7d5bd14f71427d1e84f3dd0314c0f7b2291e5b200ac8c7c3b92560405160405180910390a45050565b600080612d308361156f565b9050806001600160a01b0316846001600160a01b03161480612d7757506001600160a01b0380821660009081526005602090815260408083209388168352929052205460ff165b806122985750836001600160a01b0316612d90846108b7565b6001600160a01b031614949350505050565b826001600160a01b0316612db58261156f565b6001600160a01b031614612ddb5760405162461bcd60e51b8152600401610952906141b4565b6001600160a01b038216612e3d5760405162461bcd60e51b8152602060048201526024808201527f4552433732313a207472616e7366657220746f20746865207a65726f206164646044820152637265737360e01b6064820152608401610952565b826001600160a01b0316612e508261156f565b6001600160a01b031614612e765760405162461bcd60e51b8152600401610952906141b4565b600081815260046020908152604080832080546001600160a01b03199081169091556001600160a01b0387811680865260038552838620805460001901905590871680865283862080546001019055868652600290945282852080549092168417909155905184937fddf252ad1be2c89b69c2b068fc378daa952ba7f163c4a11628f55a4df523b3ef91a4505050565b612f108282611c8e565b61112d5760008281526008602090815260408083206001600160a01b03851684529091529020805460ff19166001179055612f483390565b6001600160a01b0316816001600160a01b0316837f2f8788117e7eff1d82e926ec794901d17c78024a50270940304540a733656f0d60405160405180910390a45050565b612f968282611c8e565b1561112d5760008281526008602090815260408083206001600160a01b0385168085529252808320805460ff1916905551339285917ff6391f5c32d9c69d2a47ea670b442974b53935d1edc7fd64eb21e047a839171b9190a45050565b6006546001600160a01b031633146119575760405162461bcd60e51b815260206004820181905260248201527f4f776e61626c653a2063616c6c6572206973206e6f7420746865206f776e65726044820152606401610952565b600680546001600160a01b038381166001600160a01b0319831681179093556040519116919082907f8be0079c531659141344cd1fd0a4f28419497f9722a3daafe3b4186f6b6457e090600090a35050565b6001600160a01b0382166130f55760405162461bcd60e51b815260206004820181905260248201527f4552433732313a206d696e7420746f20746865207a65726f20616464726573736044820152606401610952565b6000818152600260205260409020546001600160a01b03161561315a5760405162461bcd60e51b815260206004820152601c60248201527f4552433732313a20746f6b656e20616c7265616479206d696e746564000000006044820152606401610952565b6000818152600260205260409020546001600160a01b0316156131bf5760405162461bcd60e51b815260206004820152601c60248201527f4552433732313a20746f6b656e20616c7265616479206d696e746564000000006044820152606401610952565b6001600160a01b038216600081815260036020908152604080832080546001019055848352600290915280822080546001600160a01b0319168417905551839291907fddf252ad1be2c89b69c2b068fc378daa952ba7f163c4a11628f55a4df523b3ef908290a45050565b816001600160a01b0316836001600160a01b03160361328b5760405162461bcd60e51b815260206004820152601960248201527f4552433732313a20617070726f766520746f2063616c6c6572000000000000006044820152606401610952565b6001600160a01b03838116600081815260056020908152604080832094871680845294825291829020805460ff191686151590811790915591519182527f17307eab39ab6107e8899845ad3d59bd9653f200f220920489ca2b5937696c31910160405180910390a3505050565b613303848484612da2565b61330f8484848461340e565b6122d25760405162461bcd60e51b8152600401610952906141f9565b606060006133388361350f565b600101905060008167ffffffffffffffff811115613358576133586139b3565b6040519080825280601f01601f191660200182016040528015613382576020820181803683370190505b5090508181016020015b600019016f181899199a1a9b1b9c1cb0b131b232b360811b600a86061a8153600a850494508461338c57509392505050565b60006001600160e01b031982166380ac58cd60e01b14806133ef57506001600160e01b03198216635b5e139f60e01b145b8061081f57506301ffc9a760e01b6001600160e01b031983161461081f565b60006001600160a01b0384163b1561350457604051630a85bd0160e11b81526001600160a01b0385169063150b7a029061345290339089908890889060040161424b565b6020604051808303816000875af192505050801561348d575060408051601f3d908101601f1916820190925261348a91810190614288565b60015b6134ea573d8080156134bb576040519150601f19603f3d011682016040523d82523d6000602084013e6134c0565b606091505b5080516000036134e25760405162461bcd60e51b8152600401610952906141f9565b805181602001fd5b6001600160e01b031916630a85bd0160e11b149050612298565b506001949350505050565b60008072184f03e93ff9f4daa797ed6e38ed64bf6a1f0160401b831061354e5772184f03e93ff9f4daa797ed6e38ed64bf6a1f0160401b830492506040015b6d04ee2d6d415b85acef8100000000831061357a576d04ee2d6d415b85acef8100000000830492506020015b662386f26fc10000831061359857662386f26fc10000830492506010015b6305f5e10083106135b0576305f5e100830492506008015b61271083106135c457612710830492506004015b606483106135d6576064830492506002015b600a831061081f5760010192915050565b5080546000825590600052602060002090810190612af091905b8082111561361e5760006136158282613622565b50600101613601565b5090565b50805461362e90613e20565b6000825580601f1061363e575050565b601f016020900490600052602060002090810190612af091905b8082111561361e5760008155600101613658565b6001600160e01b031981168114612af057600080fd5b60006020828403121561369457600080fd5b81356123fb8161366c565b60005b838110156136ba5781810151838201526020016136a2565b50506000910152565b600081518084526136db81602086016020860161369f565b601f01601f19169290920160200192915050565b6020815260006123fb60208301846136c3565b60006020828403121561371457600080fd5b5035919050565b80356001600160a01b038116811461373257600080fd5b919050565b6000806040838503121561374a57600080fd5b6137538361371b565b946020939093013593505050565b60008060006060848603121561377657600080fd5b833592506137866020850161371b565b9150604084013590509250925092565b6000602082840312156137a857600080fd5b6123fb8261371b565b6020808252825182820181905260009190848201906040850190845b818110156137e9578351835292840192918401916001016137cd565b50909695505050505050565b60008060006060848603121561380a57600080fd5b6138138461371b565b92506137866020850161371b565b6020808252825182820181905260009190848201906040850190845b818110156137e95783516001600160a01b03168352928401929184019160010161383d565b6000806040838503121561387557600080fd5b823591506138856020840161371b565b90509250929050565b60a0815260006138a160a08301886136c3565b82810360208401526138b381886136c3565b905082810360408401526138c781876136c3565b94151560608401525050608001529392505050565b634e487b7160e01b600052602160045260246000fd5b6009811061391057634e487b7160e01b600052602160045260246000fd5b9052565b60c08152600061392760c08301896136c3565b6001600160a01b03881660208401526040830187905285151560608401528415156080840152905061395c60a08301846138f2565b979650505050505050565b80356009811061373257600080fd5b60006020828403121561398857600080fd5b6123fb82613967565b600080604083850312156139a457600080fd5b50508035926020909101359150565b634e487b7160e01b600052604160045260246000fd5b604051601f8201601f1916810167ffffffffffffffff811182821017156139f2576139f26139b3565b604052919050565b600067ffffffffffffffff831115613a1457613a146139b3565b613a27601f8401601f19166020016139c9565b9050828152838383011115613a3b57600080fd5b828260208301376000602084830101529392505050565b600082601f830112613a6357600080fd5b6123fb838335602085016139fa565b600060208284031215613a8457600080fd5b813567ffffffffffffffff811115613a9b57600080fd5b61229884828501613a52565b8035801515811461373257600080fd5b600082601f830112613ac857600080fd5b8135602067ffffffffffffffff80831115613ae557613ae56139b3565b8260051b613af48382016139c9565b9384528581018301938381019088861115613b0e57600080fd5b84880192505b85831015613b4a57823584811115613b2c5760008081fd5b613b3a8a87838c0101613a52565b8352509184019190840190613b14565b98975050505050505050565b60008060008060808587031215613b6c57600080fd5b843567ffffffffffffffff80821115613b8457600080fd5b613b9088838901613a52565b9550613b9e60208801613aa7565b9450613bac60408801613967565b93506060870135915080821115613bc257600080fd5b50613bcf87828801613ab7565b91505092959194509250565b60008060408385031215613bee57600080fd5b613bf78361371b565b915061388560208401613aa7565b60008060408385031215613c1857600080fd5b82359150602083013567ffffffffffffffff811115613c3657600080fd5b613c4285828601613ab7565b9150509250929050565b60008060008060808587031215613c6257600080fd5b613c6b8561371b565b9350613c796020860161371b565b925060408501359150606085013567ffffffffffffffff811115613c9c57600080fd5b8501601f81018713613cad57600080fd5b613bcf878235602084016139fa565b600080600060608486031215613cd157600080fd5b833567ffffffffffffffff80821115613ce957600080fd5b613cf587838801613a52565b94506020860135915080821115613d0b57600080fd5b613d1787838801613a52565b93506040860135915080821115613d2d57600080fd5b50613d3a86828701613a52565b9150509250925092565b600081518084526020808501808196508360051b8101915082860160005b85811015613d8c578284038952613d7a8483516136c3565b98850198935090840190600101613d62565b5091979650505050505050565b60c081526000613dac60c08301896136c3565b6001600160a01b0388166020840152604083018790528515156060840152613dd760808401866138f2565b82810360a0840152613de98185613d44565b9998505050505050505050565b60008060408385031215613e0957600080fd5b613e128361371b565b91506138856020840161371b565b600181811c90821680613e3457607f821691505b602082108103613e5457634e487b7160e01b600052602260045260246000fd5b50919050565b602080825260159082015274149958dbdc9908191bd95cc81b9bdd08195e1a5cdd605a1b604082015260600190565b6020808252601b908201527f4e6f7420746865206f776e6572206f6620746865207265636f72640000000000604082015260600190565b634e487b7160e01b600052601160045260246000fd5b808202811582820484141761081f5761081f613ec0565b8082018082111561081f5761081f613ec0565b6020808252602d908201527f4552433732313a2063616c6c6572206973206e6f7420746f6b656e206f776e6560408201526c1c881bdc88185c1c1c9bdd9959609a1b606082015260800190565b60208082526016908201527521b0b63632b91034b9903737ba1030b71030b236b4b760511b604082015260600190565b60008251613f8f81846020870161369f565b9190910192915050565b634e487b7160e01b600052603260045260246000fd5b600060018201613fc157613fc1613ec0565b5060010190565b601f8211156109f357600081815260208120601f850160051c81016020861015613fef5750805b601f850160051c820191505b8181101561400e57828155600101613ffb565b505050505050565b815167ffffffffffffffff811115614030576140306139b3565b6140448161403e8454613e20565b84613fc8565b602080601f83116001811461407957600084156140615750858301515b600019600386901b1c1916600185901b17855561400e565b600085815260208120601f198616915b828110156140a857888601518255948401946001909101908401614089565b50858210156140c65787850151600019600388901b60f8161c191681555b5050505050600190811b01905550565b8381526001600160a01b03831660208201526060810161229860408301846138f2565b8181038181111561081f5761081f613ec0565b634e487b7160e01b600052603160045260246000fd5b8281526040602082015260006122986040830184613d44565b6001600160a01b038516815260806020820181905260009061415f908301866136c3565b828103604084015261417181866136c3565b9050828103606084015261395c81856136c3565b6000835161419781846020880161369f565b8351908301906141ab81836020880161369f565b01949350505050565b60208082526025908201527f4552433732313a207472616e736665722066726f6d20696e636f72726563742060408201526437bbb732b960d91b606082015260800190565b60208082526032908201527f4552433732313a207472616e7366657220746f206e6f6e20455243373231526560408201527131b2b4bb32b91034b6b83632b6b2b73a32b960711b606082015260800190565b6001600160a01b038581168252841660208201526040810183905260806060820181905260009061427e908301846136c3565b9695505050505050565b60006020828403121561429a57600080fd5b81516123fb8161366c56fea49807205ce4d355092ef5a8a18f56e8913cf4a201fbe287825b095693c21775a26469706673582212208e153e4cc6b26fd63b4fd90261b31621c8b3a3e6d389fbc4931a96e60ca716b864736f6c63430008140033",
  "linkReferences": {},
  "deployedLinkReferences": {}
}