{
  "_format": "hh-sol-artifact-1",
  "contractName": "MedicalRecord",
  "sourceName": "contracts/MedicalRecord.sol",
  "abi": [
    {
      "inputs": [],
      "stateMutability": "nonpayable",
      "type": "constructor"
    },
    {
      "anonymous": false,
      "inputs": [
        {
          "indexed": false,
          "internalType": "uint256",
          "name": "recordId",
          "type": "uint256"
        },
        {
          "indexed": false,
          "internalType": "address",
          "name": "requester",
          "type": "address"
        }
      ],
      "name": "AccessGranted",
      "type": "event"
    },
    {
      "anonymous": false,
      "inputs": [
        {
          "indexed": false,
          "internalType": "uint256",
          "name": "recordId",
          "type": "uint256"
        },
        {
          "indexed": false,
          "internalType": "address",
          "name": "requester",
          "type": "address"
        }
      ],
      "name": "AccessRevoked",
      "type": "event"
    },
    {
      "anonymous": false,
      "inputs": [
        {
          "indexed": true,
          "internalType": "address",
          "name": "owner",
          "type": "address"
        },
        {
          "indexed": true,
          "internalType": "address",
          "name": "approved",
          "type": "address"
        },
        {
          "indexed": true,
          "internalType": "uint256",
          "name": "tokenId",
          "type": "uint256"
        }
      ],
      "name": "Approval",
      "type": "event"
    },
    {
      "anonymous": false,
      "inputs": [
        {
          "indexed": true,
          "internalType": "address",
          "name": "owner",
          "type": "address"
        },
        {
          "indexed": true,
          "internalType": "address",
          "name": "operator",
          "type": "address"
        },
        {
          "indexed": false,
          "internalType": "bool",
          "name": "approved",
          "type": "bool"
        }
      ],
      "name": "ApprovalForAll",
      "type": "event"
    },
    {
      "anonymous": false,
      "inputs": [
        {
          "indexed": false,
          "internalType": "uint256",
          "name": "recordId",
          "type": "uint256"
        },
        {
          "indexed": false,
          "internalType": "address",
          "name": "emergencyContact",
          "type": "address"
        },
        {
          "indexed": false,
          "internalType": "uint256",
          "name": "expiryTime",
          "type": "uint256"
        }
      ],
      "name": "EmergencyAccessGranted",
      "type": "event"
    },
    {
      "anonymous": false,
      "inputs": [
        {
          "indexed": false,
          "internalType": "uint256",
          "name": "recordId",
          "type": "uint256"
        },
        {
          "indexed": false,
          "internalType": "address",
          "name": "emergencyContact",
          "type": "address"
        }
      ],
      "name": "EmergencyAccessRevoked",
      "type": "event"
    },
    {
      "anonymous": false,
      "inputs": [
        {
          "indexed": true,
          "internalType": "address",
          "name": "previousOwner",
          "type": "address"
        },
        {
          "indexed": true,
          "internalType": "address",
          "name": "newOwner",
          "type": "address"
        }
      ],
      "name": "OwnershipTransferred",
      "type": "event"
    },
    {
      "anonymous": false,
      "inputs": [
        {
          "indexed": false,
          "internalType": "uint256",
          "name": "recordId",
          "type": "uint256"
        },
        {
          "indexed": false,
          "internalType": "address",
          "name": "owner",
          "type": "address"
        },
        {
          "indexed": false,
          "internalType": "enum MedicalRecord.Category",
          "name": "category",
          "type": "uint8"
        }
      ],
      "name": "RecordCreated",
      "type": "event"
    },
    {
      "anonymous": false,
      "inputs": [
        {
          "indexed": true,
          "internalType": "bytes32",
          "name": "role",
          "type": "bytes32"
        },
        {
          "indexed": true,
          "internalType": "bytes32",
          "name": "previousAdminRole",
          "type": "bytes32"
        },
        {
          "indexed": true,
          "internalType": "bytes32",
          "name": "newAdminRole",
          "type": "bytes32"
        }
      ],
      "name": "RoleAdminChanged",
      "type": "event"
    },
    {
      "anonymous": false,
      "inputs": [
        {
          "indexed": true,
          "internalType": "address",
          "name": "requester",
          "type": "address"
        },
        {
          "indexed": true,
          "internalType": "bytes32",
          "name": "requestedRole",
          "type": "bytes32"
        },
        {
          "indexed": false,
          "internalType": "bool",
          "name": "approved",
          "type": "bool"
        }
      ],
      "name": "RoleChangeRequestProcessed",
      "type": "event"
    },
    {
      "anonymous": false,
      "inputs": [
        {
          "indexed": true,
          "internalType": "address",
          "name": "requester",
          "type": "address"
        },
        {
          "indexed": true,
          "internalType": "bytes32",
          "name": "requestedRole",
          "type": "bytes32"
        }
      ],
      "name": "RoleChangeRequested",
      "type": "event"
    },
    {
      "anonymous": false,
      "inputs": [
        {
          "indexed": true,
          "internalType": "bytes32",
          "name": "role",
          "type": "bytes32"
        },
        {
          "indexed": true,
          "internalType": "address",
          "name": "account",
          "type": "address"
        },
        {
          "indexed": true,
          "internalType": "address",
          "name": "sender",
          "type": "address"
        }
      ],
      "name": "RoleGranted",
      "type": "event"
    },
    {
      "anonymous": false,
      "inputs": [
        {
          "indexed": false,
          "internalType": "address",
          "name": "account",
          "type": "address"
        },
        {
          "indexed": false,
          "internalType": "bytes32",
          "name": "role",
          "type": "bytes32"
        }
      ],
      "name": "RoleGranted",
      "type": "event"
    },
    {
      "anonymous": false,
      "inputs": [
        {
          "indexed": true,
          "internalType": "bytes32",
          "name": "role",
          "type": "bytes32"
        },
        {
          "indexed": true,
          "internalType": "address",
          "name": "account",
          "type": "address"
        },
        {
          "indexed": true,
          "internalType": "address",
          "name": "sender",
          "type": "address"
        }
      ],
      "name": "RoleRevoked",
      "type": "event"
    },
    {
      "anonymous": false,
      "inputs": [
        {
          "indexed": false,
          "internalType": "address",
          "name": "account",
          "type": "address"
        },
        {
          "indexed": false,
          "internalType": "bytes32",
          "name": "role",
          "type": "bytes32"
        }
      ],
      "name": "RoleRevoked",
      "type": "event"
    },
    {
      "anonymous": false,
      "inputs": [
        {
          "indexed": false,
          "internalType": "uint256",
          "name": "recordId",
          "type": "uint256"
        },
        {
          "indexed": false,
          "internalType": "string[]",
          "name": "tags",
          "type": "string[]"
        }
      ],
      "name": "TagsUpdated",
      "type": "event"
    },
    {
      "anonymous": false,
      "inputs": [
        {
          "indexed": true,
          "internalType": "address",
          "name": "from",
          "type": "address"
        },
        {
          "indexed": true,
          "internalType": "address",
          "name": "to",
          "type": "address"
        },
        {
          "indexed": true,
          "internalType": "uint256",
          "name": "tokenId",
          "type": "uint256"
        }
      ],
      "name": "Transfer",
      "type": "event"
    },
    {
      "anonymous": false,
      "inputs": [
        {
          "indexed": false,
          "internalType": "address",
          "name": "user",
          "type": "address"
        },
        {
          "indexed": false,
          "internalType": "string",
          "name": "name",
          "type": "string"
        },
        {
          "indexed": false,
          "internalType": "string",
          "name": "specialization",
          "type": "string"
        },
        {
          "indexed": false,
          "internalType": "string",
          "name": "institution",
          "type": "string"
        }
      ],
      "name": "UserProfileUpdated",
      "type": "event"
    },
    {
      "inputs": [],
      "name": "ADMIN_ROLE",
      "outputs": [
        {
          "internalType": "bytes32",
          "name": "",
          "type": "bytes32"
        }
      ],
      "stateMutability": "view",
      "type": "function"
    },
    {
      "inputs": [],
      "name": "DEFAULT_ADMIN_ROLE",
      "outputs": [
        {
          "internalType": "bytes32",
          "name": "",
          "type": "bytes32"
        }
      ],
      "stateMutability": "view",
      "type": "function"
    },
    {
      "inputs": [],
      "name": "DOCTOR_ROLE",
      "outputs": [
        {
          "internalType": "bytes32",
          "name": "",
          "type": "bytes32"
        }
      ],
      "stateMutability": "view",
      "type": "function"
    },
    {
      "inputs": [],
      "name": "PATIENT_ROLE",
      "outputs": [
        {
          "internalType": "bytes32",
          "name": "",
          "type": "bytes32"
        }
      ],
      "stateMutability": "view",
      "type": "function"
    },
    {
      "inputs": [],
      "name": "RESEARCHER_ROLE",
      "outputs": [
        {
          "internalType": "bytes32",
          "name": "",
          "type": "bytes32"
        }
      ],
      "stateMutability": "view",
      "type": "function"
    },
    {
      "inputs": [
        {
          "internalType": "uint256",
          "name": "recordId",
          "type": "uint256"
        },
        {
          "internalType": "address",
          "name": "targetAddress",
          "type": "address"
        },
        {
          "internalType": "bool",
          "name": "shouldGrantAccess",
          "type": "bool"
        }
      ],
      "name": "adminManageRecord",
      "outputs": [],
      "stateMutability": "nonpayable",
      "type": "function"
    },
    {
      "inputs": [
        {
          "internalType": "address",
          "name": "to",
          "type": "address"
        },
        {
          "internalType": "uint256",
          "name": "tokenId",
          "type": "uint256"
        }
      ],
      "name": "approve",
      "outputs": [],
      "stateMutability": "nonpayable",
      "type": "function"
    },
    {
      "inputs": [
        {
          "internalType": "address",
          "name": "owner",
          "type": "address"
        }
      ],
      "name": "balanceOf",
      "outputs": [
        {
          "internalType": "uint256",
          "name": "",
          "type": "uint256"
        }
      ],
      "stateMutability": "view",
      "type": "function"
    },
    {
      "inputs": [
        {
          "internalType": "string",
          "name": "ipfsHash",
          "type": "string"
        },
        {
          "internalType": "bool",
          "name": "isEncrypted",
          "type": "bool"
        },
        {
          "internalType": "enum MedicalRecord.Category",
          "name": "category",
          "type": "uint8"
        },
        {
          "internalType": "string[]",
          "name": "tags",
          "type": "string[]"
        }
      ],
      "name": "createRecord",
      "outputs": [],
      "stateMutability": "nonpayable",
      "type": "function"
    },
    {
      "inputs": [
        {
          "internalType": "uint256",
          "name": "",
          "type": "uint256"
        },
        {
          "internalType": "address",
          "name": "",
          "type": "address"
        }
      ],
      "name": "emergencyAccess",
      "outputs": [
        {
          "internalType": "address",
          "name": "emergencyContact",
          "type": "address"
        },
        {
          "internalType": "uint256",
          "name": "expiryTime",
          "type": "uint256"
        },
        {
          "internalType": "bool",
          "name": "isActive",
          "type": "bool"
        }
      ],
      "stateMutability": "view",
      "type": "function"
    },
    {
      "inputs": [
        {
          "internalType": "uint256",
          "name": "tokenId",
          "type": "uint256"
        }
      ],
      "name": "getApproved",
      "outputs": [
        {
          "internalType": "address",
          "name": "",
          "type": "address"
        }
      ],
      "stateMutability": "view",
      "type": "function"
    },
    {
      "inputs": [
        {
          "internalType": "uint256",
          "name": "_recordId",
          "type": "uint256"
        },
        {
          "internalType": "address",
          "name": "_emergencyContact",
          "type": "address"
        }
      ],
      "name": "getEmergencyAccessDetails",
      "outputs": [
        {
          "internalType": "address",
          "name": "contact",
          "type": "address"
        },
        {
          "internalType": "uint256",
          "name": "expiryTime",
          "type": "uint256"
        },
        {
          "internalType": "bool",
          "name": "isActive",
          "type": "bool"
        }
      ],
      "stateMutability": "view",
      "type": "function"
    },
    {
      "inputs": [
        {
          "internalType": "address",
          "name": "patient",
          "type": "address"
        }
      ],
      "name": "getPatientRecordIds",
      "outputs": [
        {
          "internalType": "uint256[]",
          "name": "",
          "type": "uint256[]"
        }
      ],
      "stateMutability": "view",
      "type": "function"
    },
    {
      "inputs": [
        {
          "internalType": "address",
          "name": "user",
          "type": "address"
        }
      ],
      "name": "getPendingRoleRequest",
      "outputs": [
        {
          "internalType": "bytes32",
          "name": "requestedRole",
          "type": "bytes32"
        },
        {
          "internalType": "uint256",
          "name": "timestamp",
          "type": "uint256"
        },
        {
          "internalType": "bool",
          "name": "isPending",
          "type": "bool"
        }
      ],
      "stateMutability": "view",
      "type": "function"
    },
    {
      "inputs": [
        {
          "internalType": "uint256",
          "name": "recordId",
          "type": "uint256"
        }
      ],
      "name": "getRecordDetails",
      "outputs": [
        {
          "internalType": "string",
          "name": "ipfsHash",
          "type": "string"
        },
        {
          "internalType": "address",
          "name": "owner",
          "type": "address"
        },
        {
          "internalType": "uint256",
          "name": "timestamp",
          "type": "uint256"
        },
        {
          "internalType": "bool",
          "name": "isEncrypted",
          "type": "bool"
        },
        {
          "internalType": "enum MedicalRecord.Category",
          "name": "category",
          "type": "uint8"
        },
        {
          "internalType": "string[]",
          "name": "tags",
          "type": "string[]"
        }
      ],
      "stateMutability": "view",
      "type": "function"
    },
    {
      "inputs": [
        {
          "internalType": "enum MedicalRecord.Category",
          "name": "category",
          "type": "uint8"
        }
      ],
      "name": "getRecordsByCategory",
      "outputs": [
        {
          "internalType": "uint256[]",
          "name": "",
          "type": "uint256[]"
        }
      ],
      "stateMutability": "view",
      "type": "function"
    },
    {
      "inputs": [
        {
          "internalType": "bytes32",
          "name": "role",
          "type": "bytes32"
        }
      ],
      "name": "getRoleAdmin",
      "outputs": [
        {
          "internalType": "bytes32",
          "name": "",
          "type": "bytes32"
        }
      ],
      "stateMutability": "view",
      "type": "function"
    },
    {
      "inputs": [
        {
          "internalType": "uint256",
          "name": "_recordId",
          "type": "uint256"
        }
      ],
      "name": "getSharedAddresses",
      "outputs": [
        {
          "internalType": "address[]",
          "name": "",
          "type": "address[]"
        }
      ],
      "stateMutability": "view",
      "type": "function"
    },
    {
      "inputs": [
        {
          "internalType": "address",
          "name": "_address",
          "type": "address"
        }
      ],
      "name": "getSharedWithMeRecords",
      "outputs": [
        {
          "internalType": "uint256[]",
          "name": "",
          "type": "uint256[]"
        }
      ],
      "stateMutability": "view",
      "type": "function"
    },
    {
      "inputs": [
        {
          "internalType": "address",
          "name": "user",
          "type": "address"
        }
      ],
      "name": "getUserProfile",
      "outputs": [
        {
          "internalType": "string",
          "name": "name",
          "type": "string"
        },
        {
          "internalType": "string",
          "name": "specialization",
          "type": "string"
        },
        {
          "internalType": "string",
          "name": "institution",
          "type": "string"
        },
        {
          "internalType": "bool",
          "name": "isVerified",
          "type": "bool"
        },
        {
          "internalType": "uint256",
          "name": "verificationTimestamp",
          "type": "uint256"
        }
      ],
      "stateMutability": "view",
      "type": "function"
    },
    {
      "inputs": [
        {
          "internalType": "uint256",
          "name": "_recordId",
          "type": "uint256"
        },
        {
          "internalType": "address",
          "name": "_to",
          "type": "address"
        }
      ],
      "name": "grantAccess",
      "outputs": [],
      "stateMutability": "nonpayable",
      "type": "function"
    },
    {
      "inputs": [
        {
          "internalType": "uint256",
          "name": "_recordId",
          "type": "uint256"
        },
        {
          "internalType": "address",
          "name": "_emergencyContact",
          "type": "address"
        },
        {
          "internalType": "uint256",
          "name": "_durationInHours",
          "type": "uint256"
        }
      ],
      "name": "grantEmergencyAccess",
      "outputs": [],
      "stateMutability": "nonpayable",
      "type": "function"
    },
    {
      "inputs": [
        {
          "internalType": "bytes32",
          "name": "role",
          "type": "bytes32"
        },
        {
          "internalType": "address",
          "name": "account",
          "type": "address"
        }
      ],
      "name": "grantRole",
      "outputs": [],
      "stateMutability": "nonpayable",
      "type": "function"
    },
    {
      "inputs": [
        {
          "internalType": "uint256",
          "name": "_recordId",
          "type": "uint256"
        },
        {
          "internalType": "bytes32",
          "name": "_role",
          "type": "bytes32"
        }
      ],
      "name": "grantRoleAccess",
      "outputs": [],
      "stateMutability": "nonpayable",
      "type": "function"
    },
    {
      "inputs": [
        {
          "internalType": "uint256",
          "name": "recordId",
          "type": "uint256"
        },
        {
          "internalType": "address",
          "name": "requester",
          "type": "address"
        }
      ],
      "name": "hasAccess",
      "outputs": [
        {
          "internalType": "bool",
          "name": "",
          "type": "bool"
        }
      ],
      "stateMutability": "view",
      "type": "function"
    },
    {
      "inputs": [
        {
          "internalType": "uint256",
          "name": "_recordId",
          "type": "uint256"
        },
        {
          "internalType": "address",
          "name": "_requester",
          "type": "address"
        }
      ],
      "name": "hasEmergencyAccess",
      "outputs": [
        {
          "internalType": "bool",
          "name": "",
          "type": "bool"
        }
      ],
      "stateMutability": "view",
      "type": "function"
    },
    {
      "inputs": [
        {
          "internalType": "bytes32",
          "name": "role",
          "type": "bytes32"
        },
        {
          "internalType": "address",
          "name": "account",
          "type": "address"
        }
      ],
      "name": "hasRole",
      "outputs": [
        {
          "internalType": "bool",
          "name": "",
          "type": "bool"
        }
      ],
      "stateMutability": "view",
      "type": "function"
    },
    {
      "inputs": [
        {
          "internalType": "uint256",
          "name": "_recordId",
          "type": "uint256"
        },
        {
          "internalType": "bytes32",
          "name": "_role",
          "type": "bytes32"
        }
      ],
      "name": "hasRoleAccess",
      "outputs": [
        {
          "internalType": "bool",
          "name": "",
          "type": "bool"
        }
      ],
      "stateMutability": "view",
      "type": "function"
    },
    {
      "inputs": [
        {
          "internalType": "address",
          "name": "owner",
          "type": "address"
        },
        {
          "internalType": "address",
          "name": "operator",
          "type": "address"
        }
      ],
      "name": "isApprovedForAll",
      "outputs": [
        {
          "internalType": "bool",
          "name": "",
          "type": "bool"
        }
      ],
      "stateMutability": "view",
      "type": "function"
    },
    {
      "inputs": [],
      "name": "name",
      "outputs": [
        {
          "internalType": "string",
          "name": "",
          "type": "string"
        }
      ],
      "stateMutability": "view",
      "type": "function"
    },
    {
      "inputs": [],
      "name": "owner",
      "outputs": [
        {
          "internalType": "address",
          "name": "",
          "type": "address"
        }
      ],
      "stateMutability": "view",
      "type": "function"
    },
    {
      "inputs": [
        {
          "internalType": "uint256",
          "name": "tokenId",
          "type": "uint256"
        }
      ],
      "name": "ownerOf",
      "outputs": [
        {
          "internalType": "address",
          "name": "",
          "type": "address"
        }
      ],
      "stateMutability": "view",
      "type": "function"
    },
    {
      "inputs": [
        {
          "internalType": "address",
          "name": "",
          "type": "address"
        },
        {
          "internalType": "uint256",
          "name": "",
          "type": "uint256"
        }
      ],
      "name": "patientRecords",
      "outputs": [
        {
          "internalType": "uint256",
          "name": "",
          "type": "uint256"
        }
      ],
      "stateMutability": "view",
      "type": "function"
    },
    {
      "inputs": [
        {
          "internalType": "address",
          "name": "requester",
          "type": "address"
        },
        {
          "internalType": "bool",
          "name": "approved",
          "type": "bool"
        }
      ],
      "name": "processRoleChangeRequest",
      "outputs": [],
      "stateMutability": "nonpayable",
      "type": "function"
    },
    {
      "inputs": [
        {
          "internalType": "uint256",
          "name": "recordId",
          "type": "uint256"
        }
      ],
      "name": "recordExists",
      "outputs": [
        {
          "internalType": "bool",
          "name": "",
          "type": "bool"
        }
      ],
      "stateMutability": "view",
      "type": "function"
    },
    {
      "inputs": [
        {
          "internalType": "uint256",
          "name": "",
          "type": "uint256"
        }
      ],
      "name": "records",
      "outputs": [
        {
          "internalType": "string",
          "name": "ipfsHash",
          "type": "string"
        },
        {
          "internalType": "address",
          "name": "owner",
          "type": "address"
        },
        {
          "internalType": "uint256",
          "name": "timestamp",
          "type": "uint256"
        },
        {
          "internalType": "bool",
          "name": "isEncrypted",
          "type": "bool"
        },
        {
          "internalType": "bool",
          "name": "exists",
          "type": "bool"
        },
        {
          "internalType": "enum MedicalRecord.Category",
          "name": "category",
          "type": "uint8"
        }
      ],
      "stateMutability": "view",
      "type": "function"
    },
    {
      "inputs": [],
      "name": "renounceOwnership",
      "outputs": [],
      "stateMutability": "nonpayable",
      "type": "function"
    },
    {
      "inputs": [
        {
          "internalType": "bytes32",
          "name": "role",
          "type": "bytes32"
        },
        {
          "internalType": "address",
          "name": "account",
          "type": "address"
        }
      ],
      "name": "renounceRole",
      "outputs": [],
      "stateMutability": "nonpayable",
      "type": "function"
    },
    {
      "inputs": [
        {
          "internalType": "bytes32",
          "name": "requestedRole",
          "type": "bytes32"
        }
      ],
      "name": "requestRoleChange",
      "outputs": [],
      "stateMutability": "nonpayable",
      "type": "function"
    },
    {
      "inputs": [
        {
          "internalType": "uint256",
          "name": "_recordId",
          "type": "uint256"
        },
        {
          "internalType": "address",
          "name": "_from",
          "type": "address"
        }
      ],
      "name": "revokeAccess",
      "outputs": [],
      "stateMutability": "nonpayable",
      "type": "function"
    },
    {
      "inputs": [
        {
          "internalType": "uint256",
          "name": "_recordId",
          "type": "uint256"
        },
        {
          "internalType": "address",
          "name": "_emergencyContact",
          "type": "address"
        }
      ],
      "name": "revokeEmergencyAccess",
      "outputs": [],
      "stateMutability": "nonpayable",
      "type": "function"
    },
    {
      "inputs": [
        {
          "internalType": "bytes32",
          "name": "role",
          "type": "bytes32"
        },
        {
          "internalType": "address",
          "name": "account",
          "type": "address"
        }
      ],
      "name": "revokeRole",
      "outputs": [],
      "stateMutability": "nonpayable",
      "type": "function"
    },
    {
      "inputs": [
        {
          "internalType": "address",
          "name": "",
          "type": "address"
        }
      ],
      "name": "roleChangeRequests",
      "outputs": [
        {
          "internalType": "address",
          "name": "requester",
          "type": "address"
        },
        {
          "internalType": "bytes32",
          "name": "requestedRole",
          "type": "bytes32"
        },
        {
          "internalType": "uint256",
          "name": "timestamp",
          "type": "uint256"
        },
        {
          "internalType": "bool",
          "name": "isPending",
          "type": "bool"
        }
      ],
      "stateMutability": "view",
      "type": "function"
    },
    {
      "inputs": [
        {
          "internalType": "address",
          "name": "from",
          "type": "address"
        },
        {
          "internalType": "address",
          "name": "to",
          "type": "address"
        },
        {
          "internalType": "uint256",
          "name": "tokenId",
          "type": "uint256"
        }
      ],
      "name": "safeTransferFrom",
      "outputs": [],
      "stateMutability": "nonpayable",
      "type": "function"
    },
    {
      "inputs": [
        {
          "internalType": "address",
          "name": "from",
          "type": "address"
        },
        {
          "internalType": "address",
          "name": "to",
          "type": "address"
        },
        {
          "internalType": "uint256",
          "name": "tokenId",
          "type": "uint256"
        },
        {
          "internalType": "bytes",
          "name": "data",
          "type": "bytes"
        }
      ],
      "name": "safeTransferFrom",
      "outputs": [],
      "stateMutability": "nonpayable",
      "type": "function"
    },
    {
      "inputs": [
        {
          "internalType": "string",
          "name": "tag",
          "type": "string"
        }
      ],
      "name": "searchRecordsByTag",
      "outputs": [
        {
          "internalType": "uint256[]",
          "name": "",
          "type": "uint256[]"
        }
      ],
      "stateMutability": "view",
      "type": "function"
    },
    {
      "inputs": [
        {
          "internalType": "address",
          "name": "operator",
          "type": "address"
        },
        {
          "internalType": "bool",
          "name": "approved",
          "type": "bool"
        }
      ],
      "name": "setApprovalForAll",
      "outputs": [],
      "stateMutability": "nonpayable",
      "type": "function"
    },
    {
      "inputs": [
        {
          "internalType": "bytes4",
          "name": "interfaceId",
          "type": "bytes4"
        }
      ],
      "name": "supportsInterface",
      "outputs": [
        {
          "internalType": "bool",
          "name": "",
          "type": "bool"
        }
      ],
      "stateMutability": "view",
      "type": "function"
    },
    {
      "inputs": [],
      "name": "symbol",
      "outputs": [
        {
          "internalType": "string",
          "name": "",
          "type": "string"
        }
      ],
      "stateMutability": "view",
      "type": "function"
    },
    {
      "inputs": [
        {
          "internalType": "uint256",
          "name": "tokenId",
          "type": "uint256"
        }
      ],
      "name": "tokenURI",
      "outputs": [
        {
          "internalType": "string",
          "name": "",
          "type": "string"
        }
      ],
      "stateMutability": "view",
      "type": "function"
    },
    {
      "inputs": [
        {
          "internalType": "address",
          "name": "from",
          "type": "address"
        },
        {
          "internalType": "address",
          "name": "to",
          "type": "address"
        },
        {
          "internalType": "uint256",
          "name": "tokenId",
          "type": "uint256"
        }
      ],
      "name": "transferFrom",
      "outputs": [],
      "stateMutability": "nonpayable",
      "type": "function"
    },
    {
      "inputs": [
        {
          "internalType": "address",
          "name": "newOwner",
          "type": "address"
        }
      ],
      "name": "transferOwnership",
      "outputs": [],
      "stateMutability": "nonpayable",
      "type": "function"
    },
    {
      "inputs": [
        {
          "internalType": "uint256",
          "name": "recordId",
          "type": "uint256"
        },
        {
          "internalType": "string[]",
          "name": "newTags",
          "type": "string[]"
        }
      ],
      "name": "updateTags",
      "outputs": [],
      "stateMutability": "nonpayable",
      "type": "function"
    },
    {
      "inputs": [
        {
          "internalType": "string",
          "name": "name",
          "type": "string"
        },
        {
          "internalType": "string",
          "name": "specialization",
          "type": "string"
        },
        {
          "internalType": "string",
          "name": "institution",
          "type": "string"
        }
      ],
      "name": "updateUserProfile",
      "outputs": [],
      "stateMutability": "nonpayable",
      "type": "function"
    },
    {
      "inputs": [
        {
          "internalType": "address",
          "name": "",
          "type": "address"
        }
      ],
      "name": "userProfiles",
      "outputs": [
        {
          "internalType": "string",
          "name": "name",
          "type": "string"
        },
        {
          "internalType": "string",
          "name": "specialization",
          "type": "string"
        },
        {
          "internalType": "string",
          "name": "institution",
          "type": "string"
        },
        {
          "internalType": "bool",
          "name": "isVerified",
          "type": "bool"
        },
        {
          "internalType": "uint256",
          "name": "verificationTimestamp",
          "type": "uint256"
        }
      ],
      "stateMutability": "view",
      "type": "function"
    },
    {
      "inputs": [
        {
          "internalType": "address",
          "name": "user",
          "type": "address"
        }
      ],
      "name": "verifyUser",
      "outputs": [],
      "stateMutability": "nonpayable",
      "type": "function"
    }
  ],
  "bytecode": "0x60806040523480156200001157600080fd5b506040518060400160405280600d81526020016c1359591a58d85b149958dbdc99609a1b815250604051806040016040528060048152602001634d52454360e01b815250816000908162000066919062000285565b50600162000075828262000285565b505050620000926200008c620000d660201b60201c565b620000da565b6001600755620000a46000336200012c565b620000d07fa49807205ce4d355092ef5a8a18f56e8913cf4a201fbe287825b095693c21775336200012c565b62000351565b3390565b600680546001600160a01b038381166001600160a01b0319831681179093556040519116919082907f8be0079c531659141344cd1fd0a4f28419497f9722a3daafe3b4186f6b6457e090600090a35050565b6200013882826200013c565b5050565b60008281526008602090815260408083206001600160a01b038516845290915290205460ff16620001385760008281526008602090815260408083206001600160a01b03851684529091529020805460ff191660011790556200019c3390565b6001600160a01b0316816001600160a01b0316837f2f8788117e7eff1d82e926ec794901d17c78024a50270940304540a733656f0d60405160405180910390a45050565b634e487b7160e01b600052604160045260246000fd5b600181811c908216806200020b57607f821691505b6020821081036200022c57634e487b7160e01b600052602260045260246000fd5b50919050565b601f8211156200028057600081815260208120601f850160051c810160208610156200025b5750805b601f850160051c820191505b818110156200027c5782815560010162000267565b5050505b505050565b81516001600160401b03811115620002a157620002a1620001e0565b620002b981620002b28454620001f6565b8462000232565b602080601f831160018114620002f15760008415620002d85750858301515b600019600386901b1c1916600185901b1785556200027c565b600085815260208120601f198616915b82811015620003225788860151825594840194600190910190840162000301565b5085821015620003415787850151600019600388901b60f8161c191681555b5050505050600190811b01905550565b614a1580620003616000396000f3fe608060405234801561001057600080fd5b50600436106103785760003560e01c80638335c196116101d3578063bace029011610104578063d9a5ec1b116100a2578063f51590241161007c578063f5159024146108dd578063fdcd582914610939578063fdffba0e1461094c578063fec331f21461097757600080fd5b8063d9a5ec1b1461087b578063e985e9c51461088e578063f2fde38b146108ca57600080fd5b8063cbdf8abb116100de578063cbdf8abb1461081d578063ced1419814610830578063d547741f14610843578063d8c086731461085657600080fd5b8063bace0290146107b0578063c08c5e83146107c3578063c87b56dd1461080a57600080fd5b8063a217fddf11610171578063a7c81a011161014b578063a7c81a0114610750578063ac5cb97d14610763578063b547236a1461078a578063b88d4fde1461079d57600080fd5b8063a217fddf14610722578063a22cb4651461072a578063a5444a691461073d57600080fd5b806391d14854116101ad57806391d14854146106e157806394f0df61146106f457806395d89b4114610707578063987ee1561461070f57600080fd5b80638335c1961461064f5780638adf19a4146106625780638da5cb5b146106d057600080fd5b806336568abe116102ad57806361aaee921161024b57806365dd152c1161022557806365dd152c1461060c57806370a082311461061f578063715018a61461063257806375b238fc1461063a57600080fd5b806361aaee92146105d35780636248204e146105e65780636352211e146105f957600080fd5b806347d427f41161028757806347d427f4146105735780634d8131201461058657806350f2aab3146105995780635b040294146105c057600080fd5b806336568abe146105135780633fb5b1f11461052657806342842e0e1461056057600080fd5b8063248a9ca31161031a5780632f2ff15d116102f45780632f2ff15d146104a4578063332d56d7146104b757806334461067146104db5780633640e8dd1461050057600080fd5b8063248a9ca3146104405780632b410c37146104715780632c1d977c1461048457600080fd5b8063095ea7b311610356578063095ea7b3146103e55780630c6510e0146103fa57806316b541081461040d57806323b872dd1461042d57600080fd5b806301ffc9a71461037d57806306fdde03146103a5578063081812fc146103ba575b600080fd5b61039061038b366004613d60565b61099e565b60405190151581526020015b60405180910390f35b6103ad6109af565b60405161039c9190613dcd565b6103cd6103c8366004613de0565b610a41565b6040516001600160a01b03909116815260200161039c565b6103f86103f3366004613e15565b610a68565b005b6103f8610408366004613e3f565b610b82565b61042061041b366004613e74565b610d17565b60405161039c9190613e8f565b6103f861043b366004613ed3565b610d83565b61046361044e366004613de0565b60009081526008602052604090206001015490565b60405190815260200161039c565b6103f861047f366004613de0565b610db4565b610497610492366004613de0565b610fd6565b60405161039c9190613eff565b6103f86104b2366004613f40565b6110a8565b6104ca6104c5366004613e74565b61112d565b60405161039c959493929190613f6c565b6104ee6104e9366004613de0565b6112f7565b60405161039c96959493929190613ff2565b61042061050e366004614054565b6113c8565b6103f8610521366004613f40565b61145f565b610539610534366004613f40565b6114dd565b604080516001600160a01b039094168452602084019290925215159082015260600161039c565b6103f861056e366004613ed3565b61156f565b61039061058136600461406f565b61158a565b6103f8610594366004613e74565b6115d5565b6104637f7765bfe615aab9fb9a16bd4c5c9b353f39dae79ca7da86094b0a74ea8a89e59a81565b6103f86105ce36600461406f565b611638565b6104206105e1366004614150565b6116c8565b6104206105f4366004613e74565b6118b1565b6103cd610607366004613de0565b61191b565b6103f861061a366004613f40565b61197b565b61046361062d366004613e74565b611c6b565b6103f8611cf1565b6104636000805160206149c083398151915281565b6103f861065d366004614234565b611d05565b6106a4610670366004613e74565b60146020526000908152604090208054600182015460028301546003909301546001600160a01b0390921692909160ff1684565b604080516001600160a01b0390951685526020850193909352918301521515606082015260800161039c565b6006546001600160a01b03166103cd565b6103906106ef366004613f40565b611f7f565b610463610702366004613e15565b611faa565b6103ad611fdb565b6104ca61071d366004613e74565b611fea565b610463600081565b6103f86107383660046142b9565b6121e2565b6103f861074b3660046142e3565b6121ed565b6103f861075e36600461431f565b6124e8565b6104637f72606200fac42b7dc86b75901d61ecfab2a4a1a6eded478b97a428094891abed81565b610390610798366004613f40565b6127fe565b6103f86107ab366004614366565b61288c565b6103f86107be3660046143d6565b6128be565b6105396107d1366004613f40565b600c6020908152600092835260408084209091529082529020805460018201546002909201546001600160a01b03909116919060ff1683565b6103ad610818366004613de0565b612974565b6103f861082b3660046142b9565b6129e8565b61039061083e366004613f40565b612ae8565b6103f8610851366004613f40565b612b3a565b610869610864366004613de0565b612bb7565b60405161039c969594939291906144b3565b6103f8610889366004613f40565b612e0d565b61039061089c366004614510565b6001600160a01b03918216600090815260056020908152604080832093909416825291909152205460ff1690565b6103f86108d8366004613e74565b613160565b61091c6108eb366004613e74565b6001600160a01b0316600090815260146020526040902060018101546002820154600390920154909260ff90911690565b60408051938452602084019290925215159082015260600161039c565b6103f8610947366004613f40565b6131d9565b61039061095a366004613de0565b6000908152600a6020526040902060030154610100900460ff1690565b6104637f0af1dac7dea2fd7f7738119cec7df099dfad49aa9d2e7d17ba6b60f63ae7411f81565b60006109a982613318565b92915050565b6060600080546109be9061453a565b80601f01602080910402602001604051908101604052809291908181526020018280546109ea9061453a565b8015610a375780601f10610a0c57610100808354040283529160200191610a37565b820191906000526020600020905b815481529060010190602001808311610a1a57829003601f168201915b5050505050905090565b6000610a4c8261333d565b506000908152600460205260409020546001600160a01b031690565b6000610a738261191b565b9050806001600160a01b0316836001600160a01b031603610ae55760405162461bcd60e51b815260206004820152602160248201527f4552433732313a20617070726f76616c20746f2063757272656e74206f776e656044820152603960f91b60648201526084015b60405180910390fd5b336001600160a01b0382161480610b015750610b01813361089c565b610b735760405162461bcd60e51b815260206004820152603d60248201527f4552433732313a20617070726f76652063616c6c6572206973206e6f7420746f60448201527f6b656e206f776e6572206f7220617070726f76656420666f7220616c6c0000006064820152608401610adc565b610b7d838361339c565b505050565b6000838152600a6020526040902060030154610100900460ff16610bb85760405162461bcd60e51b8152600401610adc90614574565b6001600160a01b038216610c185760405162461bcd60e51b815260206004820152602160248201527f496e76616c696420656d657267656e637920636f6e74616374206164647265736044820152607360f81b6064820152608401610adc565b33610c228461191b565b6001600160a01b031614610c485760405162461bcd60e51b8152600401610adc906145a3565b6000610c5682610e106145f0565b610c609042614607565b60408051606080820183526001600160a01b038781168084526020808501878152600186880181815260008e8152600c85528981208682528552899020975188546001600160a01b031916961695909517875590519086015591516002909401805460ff1916941515949094179093558351898152908101929092529181018390529192507f950cb26ce135bf8b7863126f9c1069eb87671da694b534b73338302ee22fbc9f91015b60405180910390a150505050565b6001600160a01b038116600090815260106020908152604091829020805483518184028101840190945280845260609392830182828015610d7757602002820191906000526020600020905b815481526020019060010190808311610d63575b50505050509050919050565b610d8d338261340a565b610da95760405162461bcd60e51b8152600401610adc9061461a565b610b7d838383613488565b7f72606200fac42b7dc86b75901d61ecfab2a4a1a6eded478b97a428094891abed811480610e0157507f0af1dac7dea2fd7f7738119cec7df099dfad49aa9d2e7d17ba6b60f63ae7411f81145b80610e2b57507f7765bfe615aab9fb9a16bd4c5c9b353f39dae79ca7da86094b0a74ea8a89e59a81145b80610e4357506000805160206149c083398151915281145b610e885760405162461bcd60e51b8152602060048201526016602482015275125b9d985b1a59081c9bdb19481c995c5d595cdd195960521b6044820152606401610adc565b610e928133611f7f565b15610ed75760405162461bcd60e51b8152602060048201526015602482015274416c726561647920686173207468697320726f6c6560581b6044820152606401610adc565b3360009081526014602052604090206003015460ff1615610f3a5760405162461bcd60e51b815260206004820152601d60248201527f416c72656164792068617320612070656e64696e6720726571756573740000006044820152606401610adc565b604080516080810182523380825260208083018581524284860190815260016060860181815260008681526014909552878520965187546001600160a01b0319166001600160a01b03909116178755925190860155516002850155516003909301805460ff19169315159390931790925591518392917f7b023f11640258227df7a33a31de27ad1282cee572fec33f3cac78af43d4a57f91a350565b6000818152600a6020526040902060030154606090610100900460ff1661100f5760405162461bcd60e51b8152600401610adc90614574565b336110198361191b565b6001600160a01b03161461103f5760405162461bcd60e51b8152600401610adc906145a3565b60008281526011602090815260409182902080548351818402810184019094528084529091830182828015610d7757602002820191906000526020600020905b81546001600160a01b0316815260019091019060200180831161107f5750505050509050919050565b6110c06000805160206149c083398151915233611f7f565b6110dc5760405162461bcd60e51b8152600401610adc90614667565b6110e682826135ec565b604080516001600160a01b0383168152602081018490527fcf7afa953eac742fc7c2e2985cce7875d0ff3b2e3952b4526a780c7777bbe9af91015b60405180910390a15050565b600d602052600090815260409020805481906111489061453a565b80601f01602080910402602001604051908101604052809291908181526020018280546111749061453a565b80156111c15780601f10611196576101008083540402835291602001916111c1565b820191906000526020600020905b8154815290600101906020018083116111a457829003601f168201915b5050505050908060010180546111d69061453a565b80601f01602080910402602001604051908101604052809291908181526020018280546112029061453a565b801561124f5780601f106112245761010080835404028352916020019161124f565b820191906000526020600020905b81548152906001019060200180831161123257829003601f168201915b5050505050908060020180546112649061453a565b80601f01602080910402602001604051908101604052809291908181526020018280546112909061453a565b80156112dd5780601f106112b2576101008083540402835291602001916112dd565b820191906000526020600020905b8154815290600101906020018083116112c057829003601f168201915b505050506003830154600490930154919260ff1691905085565b600a602052600090815260409020805481906113129061453a565b80601f016020809104026020016040519081016040528092919081815260200182805461133e9061453a565b801561138b5780601f106113605761010080835404028352916020019161138b565b820191906000526020600020905b81548152906001019060200180831161136e57829003601f168201915b5050506001840154600285015460039095015493946001600160a01b039091169390925060ff808216925061010082048116916201000090041686565b3360009081526012602052604081206060918360088111156113ec576113ec613fba565b60088111156113fd576113fd613fba565b8152602001908152602001600020805480602002602001604051908101604052809291908181526020018280548015610d775760200282019190600052602060002090815481526020019060010190808311610d635750505050509050919050565b6001600160a01b03811633146114cf5760405162461bcd60e51b815260206004820152602f60248201527f416363657373436f6e74726f6c3a2063616e206f6e6c792072656e6f756e636560448201526e103937b632b9903337b91039b2b63360891b6064820152608401610adc565b6114d98282613672565b5050565b6000828152600a602052604081206003015481908190610100900460ff166115175760405162461bcd60e51b8152600401610adc90614574565b5050506000918252600c602090815260408084206001600160a01b03938416855282529283902083516060810185528154909316808452600182015492840183905260029091015460ff161515929093018290529192565b610b7d8383836040518060200160405280600081525061288c565b6000828152600a6020526040812060030154610100900460ff166115b0575060006109a9565b506000918252600a602090815260408084209284526007909201905290205460ff1690565b6115ed6000805160206149c083398151915233611f7f565b6116095760405162461bcd60e51b8152600401610adc90614667565b6001600160a01b03166000908152600d6020526040902060038101805460ff1916600117905542600490910155565b6000828152600a6020526040902060030154610100900460ff1661166e5760405162461bcd60e51b8152600401610adc90614574565b336116788361191b565b6001600160a01b03161461169e5760405162461bcd60e51b8152600401610adc906145a3565b6000918252600a60209081526040808420928452600790920190529020805460ff19166001179055565b606060006013836040516116dc9190614697565b908152604080519182900360209081018320805480830285018301909352828452919083018282801561172e57602002820191906000526020600020905b81548152602001906001019080831161171a575b505050505090506000805b82518110156117ae57336001600160a01b0316600a6000858481518110611762576117626146b3565b6020908102919091018101518252810191909152604001600020600101546001600160a01b03160361179c5781611798816146c9565b9250505b806117a6816146c9565b915050611739565b5060008167ffffffffffffffff8111156117ca576117ca614091565b6040519080825280602002602001820160405280156117f3578160200160208202803683370190505b5090506000805b84518110156118a657336001600160a01b0316600a6000878481518110611823576118236146b3565b6020908102919091018101518252810191909152604001600020600101546001600160a01b03160361189457848181518110611861576118616146b3565b602002602001015183838151811061187b5761187b6146b3565b602090810291909101015281611890816146c9565b9250505b8061189e816146c9565b9150506117fa565b509095945050505050565b6001600160a01b0381166000908152600b6020908152604091829020805483518184028101840190945280845260609392830182828015610d775760200282019190600052602060002090815481526020019060010190808311610d635750505050509050919050565b6000818152600260205260408120546001600160a01b0316806109a95760405162461bcd60e51b8152602060048201526018602482015277115490cdcc8c4e881a5b9d985b1a59081d1bdad95b88125160421b6044820152606401610adc565b6000828152600a6020526040902060030154610100900460ff166119b15760405162461bcd60e51b8152600401610adc90614574565b6001600160a01b0381166119f95760405162461bcd60e51b815260206004820152600f60248201526e496e76616c6964206164647265737360881b6044820152606401610adc565b336001600160a01b03821603611a515760405162461bcd60e51b815260206004820152601f60248201527f43616e6e6f74206772616e742061636365737320746f20796f757273656c66006044820152606401610adc565b33611a5b8361191b565b6001600160a01b031614611a815760405162461bcd60e51b8152600401610adc906145a3565b6000828152600f602090815260408083206001600160a01b038516845290915290205460ff1615611aed5760405162461bcd60e51b81526020600482015260166024820152751058d8d95cdcc8185b1c9958591e4819dc985b9d195960521b6044820152606401610adc565b611b177f0af1dac7dea2fd7f7738119cec7df099dfad49aa9d2e7d17ba6b60f63ae7411f82611f7f565b80611b475750611b477f7765bfe615aab9fb9a16bd4c5c9b353f39dae79ca7da86094b0a74ea8a89e59a82611f7f565b80611b775750611b777f72606200fac42b7dc86b75901d61ecfab2a4a1a6eded478b97a428094891abed82611f7f565b611bc35760405162461bcd60e51b815260206004820181905260248201527f526563697069656e74206d757374206861766520612076616c696420726f6c656044820152606401610adc565b6000828152600f602090815260408083206001600160a01b038516808552908352818420805460ff19166001908117909155601084528285208054808301825590865284862001879055868552601184528285208054918201815585529383902090930180546001600160a01b031916841790558051858152918201929092527f3c3a9147a1fc73dd51a32f4d10c43d457e8cb826eb6f35cac6349eb965ba82b49101611121565b60006001600160a01b038216611cd55760405162461bcd60e51b815260206004820152602960248201527f4552433732313a2061646472657373207a65726f206973206e6f7420612076616044820152683634b21037bbb732b960b91b6064820152608401610adc565b506001600160a01b031660009081526003602052604090205490565b611cf96136d9565b611d036000613733565b565b6000845111611d4a5760405162461bcd60e51b8152602060048201526011602482015270092dcecc2d8d2c84092a08ca640d0c2e6d607b1b6044820152606401610adc565b611d58600980546001019055565b6000611d6360095490565b6000818152600a6020526040902090915080611d7f8782614730565b506001810180546001600160a01b0319163317905542600282015560038101805461ff00198715151661ffff19909116176101001780825585919062ff0000191662010000836008811115611dd657611dd6613fba565b021790555060005b8351811015611e865781600401848281518110611dfd57611dfd6146b3565b60209081029190910181015182546001810184556000938452919092200190611e269082614730565b506013848281518110611e3b57611e3b6146b3565b6020026020010151604051611e509190614697565b90815260405160209181900382019020805460018101825560009182529190200183905580611e7e816146c9565b915050611dde565b5033600090815260126020526040812090856008811115611ea957611ea9613fba565b6008811115611eba57611eba613fba565b8152602080820192909252604090810160009081208054600181810183559183528483200186905533808352600b855292822080548083018255908352938220909301859055600e8054938401815590527fbb7b4a454dc3493923482f07822329ed19e8244eff582cc204f8554c3620c3fd909101839055611f3c9083613785565b7f107736fec5bf0ecfe95025e33380c86b21f8a3ceb3799a0be620979e7505857f823386604051611f6f939291906147f0565b60405180910390a1505050505050565b60009182526008602090815260408084206001600160a01b0393909316845291905290205460ff1690565b600b6020528160005260406000208181548110611fc657600080fd5b90600052602060002001600091509150505481565b6060600180546109be9061453a565b6001600160a01b0381166000908152600d602052604081206003810154600482015482546060948594859491938493919283926001840192600285019260ff169185906120369061453a565b80601f01602080910402602001604051908101604052809291908181526020018280546120629061453a565b80156120af5780601f10612084576101008083540402835291602001916120af565b820191906000526020600020905b81548152906001019060200180831161209257829003601f168201915b505050505094508380546120c29061453a565b80601f01602080910402602001604051908101604052809291908181526020018280546120ee9061453a565b801561213b5780601f106121105761010080835404028352916020019161213b565b820191906000526020600020905b81548152906001019060200180831161211e57829003601f168201915b5050505050935082805461214e9061453a565b80601f016020809104026020016040519081016040528092919081815260200182805461217a9061453a565b80156121c75780601f1061219c576101008083540402835291602001916121c7565b820191906000526020600020905b8154815290600101906020018083116121aa57829003601f168201915b50505050509250955095509550955095505091939590929450565b6114d9338383613910565b6122056000805160206149c083398151915233611f7f565b6122215760405162461bcd60e51b8152600401610adc90614667565b6000838152600a6020526040902060030154610100900460ff166122575760405162461bcd60e51b8152600401610adc90614574565b6000838152600a60205260409020811561234e576001600160a01b038316600081815260068301602090815260408083208054600160ff19918216811790925560058701805480840182559086528486200180546001600160a01b031990811688179091558a8652600f85528386208787528552838620805490921683179091556010845282852080548084018255908652848620018a9055898552601184528285208054928301815585529383902001805490931684179092558151878152908101929092527f3c3a9147a1fc73dd51a32f4d10c43d457e8cb826eb6f35cac6349eb965ba82b4910160405180910390a16124e2565b6001600160a01b03831660009081526006820160205260408120805460ff191690555b600582015481101561248057836001600160a01b031682600501828154811061239c5761239c6146b3565b6000918252602090912001546001600160a01b03160361246e576005820180546123c890600190614813565b815481106123d8576123d86146b3565b6000918252602090912001546005830180546001600160a01b039092169183908110612406576124066146b3565b9060005260206000200160006101000a8154816001600160a01b0302191690836001600160a01b031602179055508160050180548061244757612447614826565b600082815260209020810160001990810180546001600160a01b0319169055019055612480565b80612478816146c9565b915050612371565b506000848152600f602090815260408083206001600160a01b03871680855290835292819020805460ff191690558051878152918201929092527f125883b94692baebecad9f111ed97ffa626523bbbadc6b0ef85ee1b56b9e52d59101610d09565b50505050565b6000828152600a6020526040902060030154610100900460ff1661251e5760405162461bcd60e51b8152600401610adc90614574565b336125288361191b565b6001600160a01b03161461254e5760405162461bcd60e51b8152600401610adc906145a3565b6000828152600a60205260408120905b6004820154811015612705576000826004018281548110612581576125816146b3565b9060005260206000200180546125969061453a565b80601f01602080910402602001604051908101604052809291908181526020018280546125c29061453a565b801561260f5780601f106125e45761010080835404028352916020019161260f565b820191906000526020600020905b8154815290600101906020018083116125f257829003601f168201915b5050505050905060006013826040516126289190614697565b9081526020016040518091039020905060005b81548110156126ef5786828281548110612657576126576146b3565b9060005260206000200154036126dd578154829061267790600190614813565b81548110612687576126876146b3565b90600052602060002001548282815481106126a4576126a46146b3565b9060005260206000200181905550818054806126c2576126c2614826565b600190038181906000526020600020016000905590556126ef565b806126e7816146c9565b91505061263b565b50505080806126fd906146c9565b91505061255e565b50612714600482016000613cc5565b60005b82518110156127bf5781600401838281518110612736576127366146b3565b6020908102919091018101518254600181018455600093845291909220019061275f9082614730565b506013838281518110612774576127746146b3565b60200260200101516040516127899190614697565b908152604051602091819003820190208054600181018255600091825291902001849055806127b7816146c9565b915050612717565b507f1ec4c1ffa8337f540f543c894b49ff569d0f0e1f6f0401b1d853712087c9d4c583836040516127f192919061483c565b60405180910390a1505050565b6000828152600a6020526040812060030154610100900460ff16612824575060006109a9565b6000838152600c602090815260408083206001600160a01b0380871685529083529281902081516060810183528154909416845260018101549284019290925260029091015460ff16158015918301829052612884575080602001514211155b949350505050565b612896338361340a565b6128b25760405162461bcd60e51b8152600401610adc9061461a565b6124e2848484846139d6565b60008351116129065760405162461bcd60e51b81526020600482015260146024820152734e616d652063616e6e6f7420626520656d70747960601b6044820152606401610adc565b336000908152600d60205260409020806129208582614730565b506001810161292f8482614730565b506002810161293e8382614730565b507f198eb8de772c5a42c31d10ea779636d74f5a7cd2633012f88632697fae910db433858585604051610d099493929190614855565b606061297f8261333d565b600061299660408051602081019091526000815290565b905060008151116129b657604051806020016040528060008152506129e1565b806129c084613a09565b6040516020016129d192919061489f565b6040516020818303038152906040525b9392505050565b612a006000805160206149c083398151915233611f7f565b612a1c5760405162461bcd60e51b8152600401610adc90614667565b6001600160a01b0382166000908152601460205260409020600381015460ff16612a7d5760405162461bcd60e51b8152602060048201526012602482015271139bc81c195b991a5b99c81c995c5d595cdd60721b6044820152606401610adc565b8115612a9157612a918160010154846135ec565b60038101805460ff19169055600181015460405183151581526001600160a01b038516907f158bd253b4a522424b4351844552a2703c13216942a244938ecaa41d34f9ac50906020015b60405180910390a3505050565b6000828152600a6020526040812060030154610100900460ff16612b0e575060006109a9565b506000918252600f602090815260408084206001600160a01b0393909316845291905290205460ff1690565b612b526000805160206149c083398151915233611f7f565b612b6e5760405162461bcd60e51b8152600401610adc90614667565b612b788282613672565b604080516001600160a01b0383168152602081018490527fea83a7caef01824e96446a8c4bc8ff4669edd99e129b53e32c077f85d21680819101611121565b60606000806000806060612be3876000908152600a602052604090206003015460ff6101009091041690565b612bff5760405162461bcd60e51b8152600401610adc90614574565b6000878152600a6020526040902060018101546001600160a01b0316612c675760405162461bcd60e51b815260206004820152601f60248201527f5265636f7264206e6f742070726f7065726c7920696e697469616c697a6564006044820152606401610adc565b600181015460028201546003830154835484936001600160a01b0316929160ff8082169262010000909204169060048601908690612ca49061453a565b80601f0160208091040260200160405190810160405280929190818152602001828054612cd09061453a565b8015612d1d5780601f10612cf257610100808354040283529160200191612d1d565b820191906000526020600020905b815481529060010190602001808311612d0057829003601f168201915b5050505050955080805480602002602001604051908101604052809291908181526020016000905b82821015612df1578382906000526020600020018054612d649061453a565b80601f0160208091040260200160405190810160405280929190818152602001828054612d909061453a565b8015612ddd5780601f10612db257610100808354040283529160200191612ddd565b820191906000526020600020905b815481529060010190602001808311612dc057829003601f168201915b505050505081526020019060010190612d45565b5050505090509650965096509650965096505091939550919395565b6000828152600a6020526040902060030154610100900460ff16612e435760405162461bcd60e51b8152600401610adc90614574565b6001600160a01b038116612e8b5760405162461bcd60e51b815260206004820152600f60248201526e496e76616c6964206164647265737360881b6044820152606401610adc565b33612e958361191b565b6001600160a01b031614612ebb5760405162461bcd60e51b8152600401610adc906145a3565b6000828152600f602090815260408083206001600160a01b038516845290915290205460ff16612f235760405162461bcd60e51b81526020600482015260136024820152724e6f2061636365737320746f207265766f6b6560681b6044820152606401610adc565b6000828152600f602090815260408083206001600160a01b03851684528252808320805460ff1916905560109091528120905b815481101561300a5783828281548110612f7257612f726146b3565b906000526020600020015403612ff85781548290612f9290600190614813565b81548110612fa257612fa26146b3565b9060005260206000200154828281548110612fbf57612fbf6146b3565b906000526020600020018190555081805480612fdd57612fdd614826565b6001900381819060005260206000200160009055905561300a565b80613002816146c9565b915050612f56565b506000838152601160205260408120905b815481101561312157836001600160a01b0316828281548110613040576130406146b3565b6000918252602090912001546001600160a01b03160361310f578154829061306a90600190614813565b8154811061307a5761307a6146b3565b9060005260206000200160009054906101000a90046001600160a01b03168282815481106130aa576130aa6146b3565b9060005260206000200160006101000a8154816001600160a01b0302191690836001600160a01b03160217905550818054806130e8576130e8614826565b600082815260209020810160001990810180546001600160a01b0319169055019055613121565b80613119816146c9565b91505061301b565b50604080518581526001600160a01b03851660208201527f125883b94692baebecad9f111ed97ffa626523bbbadc6b0ef85ee1b56b9e52d59101610d09565b6131686136d9565b6001600160a01b0381166131cd5760405162461bcd60e51b815260206004820152602660248201527f4f776e61626c653a206e6577206f776e657220697320746865207a65726f206160448201526564647265737360d01b6064820152608401610adc565b6131d681613733565b50565b6000828152600a6020526040902060030154610100900460ff1661320f5760405162461bcd60e51b8152600401610adc90614574565b336132198361191b565b6001600160a01b03161461323f5760405162461bcd60e51b8152600401610adc906145a3565b6000828152600c602090815260408083206001600160a01b038516845290915290206002015460ff166132b45760405162461bcd60e51b815260206004820152601a60248201527f4e6f2061637469766520656d657267656e6379206163636573730000000000006044820152606401610adc565b6000828152600c602090815260408083206001600160a01b03851680855290835292819020600201805460ff191690558051858152918201929092527f80ee26c128140dc5c04c3ce97037d466a7fbdd3c3894299a626cfa8c1f5bd47f9101611121565b60006001600160e01b03198216637965db0b60e01b14806109a957506109a982613a9c565b6000818152600260205260409020546001600160a01b03166131d65760405162461bcd60e51b8152602060048201526018602482015277115490cdcc8c4e881a5b9d985b1a59081d1bdad95b88125160421b6044820152606401610adc565b600081815260046020526040902080546001600160a01b0319166001600160a01b03841690811790915581906133d18261191b565b6001600160a01b03167f8c5be1e5ebec7d5bd14f71427d1e84f3dd0314c0f7b2291e5b200ac8c7c3b92560405160405180910390a45050565b6000806134168361191b565b9050806001600160a01b0316846001600160a01b0316148061345d57506001600160a01b0380821660009081526005602090815260408083209388168352929052205460ff165b806128845750836001600160a01b031661347684610a41565b6001600160a01b031614949350505050565b826001600160a01b031661349b8261191b565b6001600160a01b0316146134c15760405162461bcd60e51b8152600401610adc906148ce565b6001600160a01b0382166135235760405162461bcd60e51b8152602060048201526024808201527f4552433732313a207472616e7366657220746f20746865207a65726f206164646044820152637265737360e01b6064820152608401610adc565b826001600160a01b03166135368261191b565b6001600160a01b03161461355c5760405162461bcd60e51b8152600401610adc906148ce565b600081815260046020908152604080832080546001600160a01b03199081169091556001600160a01b0387811680865260038552838620805460001901905590871680865283862080546001019055868652600290945282852080549092168417909155905184937fddf252ad1be2c89b69c2b068fc378daa952ba7f163c4a11628f55a4df523b3ef91a4505050565b6135f68282611f7f565b6114d95760008281526008602090815260408083206001600160a01b03851684529091529020805460ff1916600117905561362e3390565b6001600160a01b0316816001600160a01b0316837f2f8788117e7eff1d82e926ec794901d17c78024a50270940304540a733656f0d60405160405180910390a45050565b61367c8282611f7f565b156114d95760008281526008602090815260408083206001600160a01b0385168085529252808320805460ff1916905551339285917ff6391f5c32d9c69d2a47ea670b442974b53935d1edc7fd64eb21e047a839171b9190a45050565b6006546001600160a01b03163314611d035760405162461bcd60e51b815260206004820181905260248201527f4f776e61626c653a2063616c6c6572206973206e6f7420746865206f776e65726044820152606401610adc565b600680546001600160a01b038381166001600160a01b0319831681179093556040519116919082907f8be0079c531659141344cd1fd0a4f28419497f9722a3daafe3b4186f6b6457e090600090a35050565b6001600160a01b0382166137db5760405162461bcd60e51b815260206004820181905260248201527f4552433732313a206d696e7420746f20746865207a65726f20616464726573736044820152606401610adc565b6000818152600260205260409020546001600160a01b0316156138405760405162461bcd60e51b815260206004820152601c60248201527f4552433732313a20746f6b656e20616c7265616479206d696e746564000000006044820152606401610adc565b6000818152600260205260409020546001600160a01b0316156138a55760405162461bcd60e51b815260206004820152601c60248201527f4552433732313a20746f6b656e20616c7265616479206d696e746564000000006044820152606401610adc565b6001600160a01b038216600081815260036020908152604080832080546001019055848352600290915280822080546001600160a01b0319168417905551839291907fddf252ad1be2c89b69c2b068fc378daa952ba7f163c4a11628f55a4df523b3ef908290a45050565b816001600160a01b0316836001600160a01b0316036139715760405162461bcd60e51b815260206004820152601960248201527f4552433732313a20617070726f766520746f2063616c6c6572000000000000006044820152606401610adc565b6001600160a01b03838116600081815260056020908152604080832094871680845294825291829020805460ff191686151590811790915591519182527f17307eab39ab6107e8899845ad3d59bd9653f200f220920489ca2b5937696c319101612adb565b6139e1848484613488565b6139ed84848484613aec565b6124e25760405162461bcd60e51b8152600401610adc90614913565b60606000613a1683613bed565b600101905060008167ffffffffffffffff811115613a3657613a36614091565b6040519080825280601f01601f191660200182016040528015613a60576020820181803683370190505b5090508181016020015b600019016f181899199a1a9b1b9c1cb0b131b232b360811b600a86061a8153600a8504945084613a6a57509392505050565b60006001600160e01b031982166380ac58cd60e01b1480613acd57506001600160e01b03198216635b5e139f60e01b145b806109a957506301ffc9a760e01b6001600160e01b03198316146109a9565b60006001600160a01b0384163b15613be257604051630a85bd0160e11b81526001600160a01b0385169063150b7a0290613b30903390899088908890600401614965565b6020604051808303816000875af1925050508015613b6b575060408051601f3d908101601f19168201909252613b68918101906149a2565b60015b613bc8573d808015613b99576040519150601f19603f3d011682016040523d82523d6000602084013e613b9e565b606091505b508051600003613bc05760405162461bcd60e51b8152600401610adc90614913565b805181602001fd5b6001600160e01b031916630a85bd0160e11b149050612884565b506001949350505050565b60008072184f03e93ff9f4daa797ed6e38ed64bf6a1f0160401b8310613c2c5772184f03e93ff9f4daa797ed6e38ed64bf6a1f0160401b830492506040015b6d04ee2d6d415b85acef81000000008310613c58576d04ee2d6d415b85acef8100000000830492506020015b662386f26fc100008310613c7657662386f26fc10000830492506010015b6305f5e1008310613c8e576305f5e100830492506008015b6127108310613ca257612710830492506004015b60648310613cb4576064830492506002015b600a83106109a95760010192915050565b50805460008255906000526020600020908101906131d691905b80821115613cfc576000613cf38282613d00565b50600101613cdf565b5090565b508054613d0c9061453a565b6000825580601f10613d1c575050565b601f0160209004906000526020600020908101906131d691905b80821115613cfc5760008155600101613d36565b6001600160e01b0319811681146131d657600080fd5b600060208284031215613d7257600080fd5b81356129e181613d4a565b60005b83811015613d98578181015183820152602001613d80565b50506000910152565b60008151808452613db9816020860160208601613d7d565b601f01601f19169290920160200192915050565b6020815260006129e16020830184613da1565b600060208284031215613df257600080fd5b5035919050565b80356001600160a01b0381168114613e1057600080fd5b919050565b60008060408385031215613e2857600080fd5b613e3183613df9565b946020939093013593505050565b600080600060608486031215613e5457600080fd5b83359250613e6460208501613df9565b9150604084013590509250925092565b600060208284031215613e8657600080fd5b6129e182613df9565b6020808252825182820181905260009190848201906040850190845b81811015613ec757835183529284019291840191600101613eab565b50909695505050505050565b600080600060608486031215613ee857600080fd5b613ef184613df9565b9250613e6460208501613df9565b6020808252825182820181905260009190848201906040850190845b81811015613ec75783516001600160a01b031683529284019291840191600101613f1b565b60008060408385031215613f5357600080fd5b82359150613f6360208401613df9565b90509250929050565b60a081526000613f7f60a0830188613da1565b8281036020840152613f918188613da1565b90508281036040840152613fa58187613da1565b94151560608401525050608001529392505050565b634e487b7160e01b600052602160045260246000fd5b60098110613fee57634e487b7160e01b600052602160045260246000fd5b9052565b60c08152600061400560c0830189613da1565b6001600160a01b03881660208401526040830187905285151560608401528415156080840152905061403a60a0830184613fd0565b979650505050505050565b803560098110613e1057600080fd5b60006020828403121561406657600080fd5b6129e182614045565b6000806040838503121561408257600080fd5b50508035926020909101359150565b634e487b7160e01b600052604160045260246000fd5b604051601f8201601f1916810167ffffffffffffffff811182821017156140d0576140d0614091565b604052919050565b600067ffffffffffffffff8311156140f2576140f2614091565b614105601f8401601f19166020016140a7565b905082815283838301111561411957600080fd5b828260208301376000602084830101529392505050565b600082601f83011261414157600080fd5b6129e1838335602085016140d8565b60006020828403121561416257600080fd5b813567ffffffffffffffff81111561417957600080fd5b61288484828501614130565b80358015158114613e1057600080fd5b600082601f8301126141a657600080fd5b8135602067ffffffffffffffff808311156141c3576141c3614091565b8260051b6141d28382016140a7565b93845285810183019383810190888611156141ec57600080fd5b84880192505b858310156142285782358481111561420a5760008081fd5b6142188a87838c0101614130565b83525091840191908401906141f2565b98975050505050505050565b6000806000806080858703121561424a57600080fd5b843567ffffffffffffffff8082111561426257600080fd5b61426e88838901614130565b955061427c60208801614185565b945061428a60408801614045565b935060608701359150808211156142a057600080fd5b506142ad87828801614195565b91505092959194509250565b600080604083850312156142cc57600080fd5b6142d583613df9565b9150613f6360208401614185565b6000806000606084860312156142f857600080fd5b8335925061430860208501613df9565b915061431660408501614185565b90509250925092565b6000806040838503121561433257600080fd5b82359150602083013567ffffffffffffffff81111561435057600080fd5b61435c85828601614195565b9150509250929050565b6000806000806080858703121561437c57600080fd5b61438585613df9565b935061439360208601613df9565b925060408501359150606085013567ffffffffffffffff8111156143b657600080fd5b8501601f810187136143c757600080fd5b6142ad878235602084016140d8565b6000806000606084860312156143eb57600080fd5b833567ffffffffffffffff8082111561440357600080fd5b61440f87838801614130565b9450602086013591508082111561442557600080fd5b61443187838801614130565b9350604086013591508082111561444757600080fd5b5061445486828701614130565b9150509250925092565b600081518084526020808501808196508360051b8101915082860160005b858110156144a6578284038952614494848351613da1565b9885019893509084019060010161447c565b5091979650505050505050565b60c0815260006144c660c0830189613da1565b6001600160a01b03881660208401526040830187905285151560608401526144f16080840186613fd0565b82810360a0840152614503818561445e565b9998505050505050505050565b6000806040838503121561452357600080fd5b61452c83613df9565b9150613f6360208401613df9565b600181811c9082168061454e57607f821691505b60208210810361456e57634e487b7160e01b600052602260045260246000fd5b50919050565b602080825260159082015274149958dbdc9908191bd95cc81b9bdd08195e1a5cdd605a1b604082015260600190565b6020808252601b908201527f4e6f7420746865206f776e6572206f6620746865207265636f72640000000000604082015260600190565b634e487b7160e01b600052601160045260246000fd5b80820281158282048414176109a9576109a96145da565b808201808211156109a9576109a96145da565b6020808252602d908201527f4552433732313a2063616c6c6572206973206e6f7420746f6b656e206f776e6560408201526c1c881bdc88185c1c1c9bdd9959609a1b606082015260800190565b60208082526016908201527521b0b63632b91034b9903737ba1030b71030b236b4b760511b604082015260600190565b600082516146a9818460208701613d7d565b9190910192915050565b634e487b7160e01b600052603260045260246000fd5b6000600182016146db576146db6145da565b5060010190565b601f821115610b7d57600081815260208120601f850160051c810160208610156147095750805b601f850160051c820191505b8181101561472857828155600101614715565b505050505050565b815167ffffffffffffffff81111561474a5761474a614091565b61475e81614758845461453a565b846146e2565b602080601f831160018114614793576000841561477b5750858301515b600019600386901b1c1916600185901b178555614728565b600085815260208120601f198616915b828110156147c2578886015182559484019460019091019084016147a3565b50858210156147e05787850151600019600388901b60f8161c191681555b5050505050600190811b01905550565b8381526001600160a01b0383166020820152606081016128846040830184613fd0565b818103818111156109a9576109a96145da565b634e487b7160e01b600052603160045260246000fd5b828152604060208201526000612884604083018461445e565b6001600160a01b038516815260806020820181905260009061487990830186613da1565b828103604084015261488b8186613da1565b9050828103606084015261403a8185613da1565b600083516148b1818460208801613d7d565b8351908301906148c5818360208801613d7d565b01949350505050565b60208082526025908201527f4552433732313a207472616e736665722066726f6d20696e636f72726563742060408201526437bbb732b960d91b606082015260800190565b60208082526032908201527f4552433732313a207472616e7366657220746f206e6f6e20455243373231526560408201527131b2b4bb32b91034b6b83632b6b2b73a32b960711b606082015260800190565b6001600160a01b038581168252841660208201526040810183905260806060820181905260009061499890830184613da1565b9695505050505050565b6000602082840312156149b457600080fd5b81516129e181613d4a56fea49807205ce4d355092ef5a8a18f56e8913cf4a201fbe287825b095693c21775a2646970667358221220c16e23c218b56b0246263862f78683f899b7e6372684fe29e9ce689d96217e3064736f6c63430008140033",
  "linkReferences": {},
  "deployedLinkReferences": {}
}